S315080000001808002001010008DB0B0008550B000842
S31508000010D90B00086D0100088910000800000000CF
S31508000020000000000000000000000000DD0F0008CE
S31508000030E902000800000000DB0F0008DF0F0008D7
S315080000401B0100081B0100081B0100081B01000812
S315080000501B0100081B0100081B0100081B01000802
S315080000601B0100081B0100081B0100081B010008F2
S315080000701B0100081B0100081B0100081B010008E2
S315080000801B0100081B0100081B0100081B010008D2
S315080000901B0100081B0100081B0100081B010008C2
S315080000A01B0100081B0100081B0100081B010008B2
S315080000B01B0100081B0100081B0100081B010008A2
S315080000C01B0100081B0100081B0100081B01000892
S315080000D01B0100081B0100081B0100081B01000882
S315080000E01B0100081B0100081B010008DFF80CD0E3
S315080000F000F02AF800480047C91000081808002030
S315080001000648804706480047FEE7FEE7FEE7FEE7A3
S31508000110FEE7FEE7FEE7FEE7FEE7FEE7411000081A
S31508000120ED000008D2B201E000F8012B491EFBD20F
S3150800013070470022F6E710B513460A4604461946E4
S31508000140FFF7F0FF204610BD064C074D06E0E068B5
S3150800015040F0010394E8070098471034AC42F6D300
S31508000160FFF7C8FFA8190008C8190008FEE700002D
S315080001701FB54FF400600090002001900320039003
S315080001806946024800F0ECF81FBD0000000C01406B
S315080001901FB54FF4006000900120019003200390E2
S315080001A06946024800F0DCF81FBD0000000C01405B
S315080001B02DE9F04100250446FFF7EAFF294F4FF4E1
S315080001C0006600223146384600F0BFF9122000F0DA
S315080001D0B5F801223146384600F0B7F9142000F088
S315080001E085F8FFF7C5FF142000F080F83146384639
S315080001F000F0A6F928B125E0012000F077F86D1C7B
S31508000200EDB23146384600F09BF908B9642DF3D3B0
S31508000210002504E0012000F069F86D1CEDB23146B6
S31508000220384600F08DF9012801D1642DF2D3002556
S3150800023000F01AF860556D1CEDB2052DF8D3322082
S3150800024000F054F820786178E2780844A1781144DF
S3150800025008442179814202D10120BDE8F0810020BD
S31508000260FBE70000000C01402DE9F0470024254675
S3150800027026464FF40069DFF86C8004E0012000F0A0
S3150800028035F86D1CEDB24F464946404600F058F920
S3150800029008B9642DF2D30025282000F027F8B946BE
S315080002A03946404600F04CF9012801D0002706E0FF
S315080002B0012704E0012000F019F86D1CEDB249464B
S315080002C0404600F03DF9012801D1642DF2D36006BD
S315080002D0761C0025F6B247EA1064082ED3D32046CA
S315080002E0BDE8F087000C01407047000071B54FF477
S315080002F061754FF0E023104E009819E02C46A04295
S3150800030000D804469869614201EBC10110EBC101AE
S3150800031005D49A69824208DA8A42FADA05E08A1925
S3150800032099698142FCDD9142FADC0098001B009035
S315080003300028E3D178BD00004019010070B50446D5
S3150800034000F008F90546601C02D004480078044409
S3150800035000F000F9401BA042FAD370BD000000204F
S315080003602DE9F84FDFF8B891002409F1040A0AF1DB
S31508000370040B23460F270BF1040EC9E00125A540FF
S315080003802A40AA427DD1674ED1F804C0ACEB0608D4
S31508000390B44532D014DCBCF1030F3AD009DCBCF109
S315080003A0000F2AD0BCF1010F1CD0BCF1020F31D1CD
S315080003B01DE0BCF1110F17D0BCF1120F2AD119E0BC
S315080003C0B8F5881F19D006DCB8F5803F15D0B8F502
S315080003D0801F1FD111E0B8F5001F0ED0B8F5041F15
S315080003E018D10AE0CB6815E0CB681B1D12E0CB6874
S315080003F008330FE0CB680C330CE08B682BB1012B6C
S315080004004FF0080303D0456104E0042302E00561C8
S3150800041000E00023FF2A01D8064601E000F10406A1
S315080004204FEA840501D9A5F12005D6F8008007FA18
S3150800043005FC28EA0C0803FA05F548EA0508C6F893
S3150800044000804D68ED0062D5374DAE6946F001066D
S31508000450AE61AD6924F0030605F001050095334D3C
S3150800046006EB050CDCF80850A607360F07FA06F85F
S3150800047025EA0805DFF8B880404503D14FF00008A3
S3150800048017E044E0DFF8AC80404502D14FF00108A0
S315080004900FE0DFF8A480404502D14FF0020808E0DB
S315080004A0DFF89880404502D14FF0030801E04FF08D
S315080004B0040808FA06F848EA0508CCF808804D68E2
S315080004C0D9F80060ED034D4601D5164300E0964382
S315080004D02E604D68DAF80060AD03554601D516431F
S315080004E000E096432E604D68DBF80060ED025D463D
S315080004F001D5164300E096432E604D68DEF800608D
S31508000500AD02754601D5164300E096432E60641C7D
S315080005100D682A46E5407FF431AFBDE8F88F000044
S3150800052000040140000011100010024000000140C4
S3150800053000080140000C0140001001400014014071
S315080005408068084000D0012070470AB101617047F1
S315080005500904FBE701488068704700000000002096
S3150800056002488168027811448160704700000020C3
S31508000570074810B5016841F010010160032000F03A
S3150800058067F80F2000F006F800F024F8002010BDE8
S315080005900020024070B50D4D04464FF47A71287854
S315080005A0B1FBF0F00A490968B1FBF0F000F0BEFAB9
S315080005B048B9102C07D200222146501E00F028F810
S315080005C000206C6070BD012070BD00000000002096
S315080005D0140000200C4808B5816941F001018161C9
S315080005E0816901F001010091C16941F08051C16141
S315080005F0C06900F0805000900448416821F0E0612D
S3150800060041F00071416008BD001002400000014041
S31508000610F0B40E4B1B680C46C3F30223C3F107055F
S31508000620042D00D90425191D072901D2002300E04D
S31508000630DB1E012606FA05F1491E214099409E4017
S31508000640761E16403143F0BC00F01FBD0CED00E0ED
S31508000650064900F0070208684FF6FF03184040EA0B
S315080006600220034A10430860704700000CED00E0C2
S315080006700000FA052DE9F0470F46050061D0434E04
S31508000680306800F00700B84209D2306820F0070049
S3150800069038433060306800F00700B84251D1286806
S315080006A03B4C810712D5400703D5606840F4E060EB
S315080006B060602878000703D5606840F46050606081
S315080006C06068A96820F0F000084360602878C007D1
S315080006D028D06868012810D02168022810D0890718
S315080006E000292EDA616821F0030101436160FFF7F2
S315080006F031FF804641F288390DE021688903EFE72A
S315080007008901EDE7FFF726FFA0EB0801494502D965
S315080007100320BDE8F0876068696800F00C00B0EB5C
S31508000720810FEFD1306800F00700B8420BD9306866
S3150800073020F0070038433060306800F00700B84200
S3150800074001D00120E5E72878400705D56068E96803
S3150800075020F4E060084360602878000706D56068E2
S31508000760296920F4605040EAC100606000F018F87A
S315080007706168084AC1F30311515CC840064908601C
S3150800078006480068FFF706FF0020C2E7002002407F
S3150800079000100240961900081400002004000020EA
S315080007A012A185B00FC98DE80F0014A0144A00687D
S315080007B004905168134801F00C03042B10D0082B41
S315080007C00ED1C1F38343C9031DF803000AD5516846
S315080007D004AAC1F34041515C0A4A5043B0FBF1F008
S315080007E005B0704708494843FAE7000002030405C4
S315080007F0060708090A0B0C0D0E0F1010010200005F
S315080008000010024000127A0000093D002DE9F84F59
S31508000810040070D02078C04DC00749D06868C0F37E
S315080008208100012807D06868C0F38100022809D131
S315080008306868C00306D52868800339D5606800282B
S31508000840E7D035E06068B0F5803F0BD010B1B0F561
S31508000850A02F11D0286820F480302860286820F45A
S31508000860802002E0286840F480302860606890B1F3
S31508000870FFF770FE06460AE0286840F480202860E4
S31508000880F0E700BFFFF766FE801B642873D8286868
S315080008908003F7D50CE0FFF75DFE064605E000BFCE
S315080008A0FFF758FE801B6428F0D828688003F7D421
S315080008B020789A4E80074FF001094FF0000839D585
S315080008C0686810F00C0F07D06868C0F3810002282A
S315080008D009D16868C00306D42868800714D520693A
S315080008E0012808D110E02069B0B1C6F80090FFF7DA
S315080008F031FE074605E00AE1FFF72CFEC01B022879
S31508000900C4D828688007F7D52868616920F0F800F8
S3150800091040EAC10028600DE0C6F80080FFF71AFE1D
S31508000920074604E0FFF716FEC01B022823D82868EE
S315080009308007F7D4207800072CD57948A169D9B162
S31508000940C0F80090FFF706FE074604E0FFF702FE30
S31508000950C01B02280FD8686A8007F7D571484FF47C
S31508000960FA510068B0FBF1F0009000BF0098411EF4
S315080009700091FAD20EE080E0C0F80080FFF7EAFDA9
S31508000980074604E0FFF7E6FDC01B022875D8686A2B
S315080009908007F7D42078400760D5E8690027C000AB
S315080009A008D4E86940F08050E861E869012700F05A
S315080009B0805000905C480168C90513D401688346D5
S315080009C041F480710160FFF7C5FD824606E000BF6D
S315080009D0FFF7C0FDA0EB0A0064284ED8DBF800003C
S315080009E0C005F5D5E06801280AD008B1052813D056
S315080009F0286A20F001002862286A20F0040002E034
S31508000A00286A40F001002862E06841F2883B98B104
S31508000A10FFF7A0FD82460BE0286A40F00400286232
S31508000A20EEE700BFFFF796FDA0EB0A0159455AD835
S31508000A30286A8007F6D50CE0FFF78CFD824605E0AC
S31508000A40FFF788FDA0EB0A0159454CD8286A8007AC
S31508000A50F6D41FB1E86920F08050E861E06988B3F0
S31508000A606968C1F38101022944D00228C6F860806A
S31508000A7004D0FFF76FFD044638E034E0FFF76AFD5F
S31508000A80074604E0FFF766FDC01B02282BD8286836
S31508000A908001F7D4206AB0F5803F05D16868A1685F
S31508000AA020F4003008436860D4E9080108436968FF
S31508000AB021F4741108436860C6F86090FFF74AFD90
S31508000AC0044606E025E000BFFFF744FD001B0228A8
S31508000AD009D828688001F7D51BE000BFFFF73AFD63
S31508000AE0001B022802D90320BDE8F88F2868800178
S31508000AF0F4D40EE00128F7D06868226A00F4803141
S31508000B00914204D1616A00F47010884201D0012034
S31508000B10EAE70020E8E70000001002400000424231
S31508000B2080044242140000200070004010B5401EA8
S31508000B30B0F1807F01D3012010BD4FF0E024606141
S31508000B400F21601700F0A1FA0020A061072020619C
S31508000B50002010BDFEE7000070B586B000251C48D1
S31508000B600095019502950395816941F020018161FF
S31508000B70816901F020010491816941F008018161D0
S31508000B80816901F008010491816941F004018161DC
S31508000B908069104E00F00400049001224FF4306181
S31508000BA03046FFF7D2FCF01401248DE83100032506
S31508000BB0694630460395FFF7D3FB2802CDE90004C2
S31508000BC069463046CDE90245FFF7CAFB06B070BD57
S31508000BD000100240000C0140FEE7FEE710B50021B8
S31508000BE0074C0A46002004EBC1131A54401CC0B235
S31508000BF08028FAD3491CC9B20829F3D310BD0000CE
S31508000C0018000020F0B50B4424E0044685181DE0C2
S31508000C107F2C19D8002917DB3F2915DCCE1701EBE5
S31508000C2056764FEAE60C0D4F26F0070607EBCC176B
S31508000C302744A1EB060E97F800C0012606FA0EF621
S31508000C402CEA060C87F800C0641C24B2A542DFDC37
S31508000C50491C09B28B42D8DCF0BD00001800002000
S31508000C602DE9F047164D002407464FF080084FF44B
S31508000C700079AE1528FA04F0384201D0012200E0C6
S31508000C80002249462846FFF760FC012231462846DD
S31508000C90FFF75BFC002231462846FFF756FC641C2A
S31508000CA0E4B2082CE6D3012231462846FFF74DFC6C
S31508000CB031462846BDE8F0470022FFF746BC00004B
S31508000CC0000C014070B501220B4D540221462846FE
S31508000CD0FFF73BFC0122160231462846FFF735FC92
S31508000CE0002221462846FFF730FC31462846BDE853
S31508000CF070400022FFF729BC000C014070B50A4D70
S31508000D004FF40074002221462846FFF71EFC0122F4
S31508000D1011022846FFF719FC21462846BDE870400F
S31508000D200122FFF712BC0000000C014010B5AE20EE
S31508000D3000F02AF9D52000F027F9802000F024F9E0
S31508000D40A82000F021F93F2000F01EF9D32000F07A
S31508000D501BF9002000F018F9402000F015F9A12031
S31508000D6000F012F9C82000F00FF9DA2000F00CF9AB
S31508000D70122000F009F9812000F006F9CF2000F0D2
S31508000D8003F9D92000F000F9F12000F0FDF8DB2086
S31508000D9000F0FAF8302000F0F7F8A42000F0F4F894
S31508000DA0A62000F0F1F88D2000F0EEF8142000F0EF
S31508000DB0EBF8AF2000F0E8F8FFF710FFBDE81040A9
S31508000DC000F0CEB80246012000E05043491EFCD28E
S31508000DD0704710B50C4640F0B00000F0D5F810206A
S31508000DE040EA141000F0D0F804F00F00BDE81040F7
S31508000DF000F0CAB808B5082B0DD0062B0AD10A4B45
S31508000E0002EB420203EB4202C03A00920823062292
S31508000E1000F00EF808BD054B03EB0212A2F50072AE
S31508000E20102300920822F3E75C1700086C110008EB
S31508000E302DE9F04F1F4616460D4682460024FFF759
S31508000E40E1FE7F1EF81707EB50700121DFF898B016
S31508000E5001EBE00743E000203DE000BF0AEB00039A
S31508000E607F2B36D8E91705EB5171CA1021F0070117
S31508000E70691A002D03DA521E083112B209B202EBC2
S31508000E800409B9F1070F0ED8099A04FB06F80244BB
S31508000E900BEBC91E18F802201EF803C08A404CEA5C
S31508000EA0020C0EF803C009F10102072A11D80BEB50
S31508000EB0C91202EB0308099A04FB06FC024498F8D7
S31508000EC080301CF80220C1F10801CA40134388F893
S31508000ED08030401CC0B2B042C0D3641CE4B2A74202
S31508000EE0B9DCBDE8F08F0000180000202DE9F047B6
S31508000EF000241D4690468A4681460A27089E14E025
S31508000F00291B0A20491EFFF75DFFB8FBF0F0B0FB6E
S31508000F10F7F107FB110204FB069000B2334651466F
S31508000F203032FFF767FF641CE4B2AC42E8D3BDE891
S31508000F30F0872DE9F0411E461546884607460024E7
S31508000F4008E004FB067000B233464146FFF752FF3D
S31508000F50641CE4B22A5D002AF3D1BDE8F0810000E2
S31508000F6070B5084D002400212046FFF732FF05EB37
S31508000F70C410802100F019F8641CE4B2082CF2D3DE
S31508000F8070BD00001800002010B50446FFF79AFE51
S31508000F907820FFF765FE0020FFF762FE2046FFF780
S31508000FA05FFEBDE81040FFF7A9BE70B50D460646C0
S31508000FB0FFF788FE7820FFF753FE4020FFF750FE24
S31508000FC0002404E0305DFFF74BFE641CE4B2AC423B
S31508000FD0F8D3BDE87040FFF791BE70477047FFF73A
S31508000FE0BFBA30B58FB028216846FFF7A2F814219A
S31508000FF00AA8FFF79EF801210804CDE9001000248D
S31508001000029402250491CDE907504FF4E0100990A7
S315080010106846FFF7FBFB08B172B6FEE70F20CDE97D
S315080010200A054FF48060CDE90C4002210AA80E9407
S31508001030FFF720FB002801D072B6FEE70FB030BDDF
S315080010400D48016841F00101016041680B4A1140F1
S31508001050416001680A4A11400160016821F4802153
S315080010600160416821F4FE0141604FF41F0181606F
S315080010700449C00308607047001002400000FFF8EA
S31508001080FFFFF6FE08ED00E0FEE70907090E002857
S3150800109004DB00F1E02080F80014704700F00F0030
S315080010A000F1E02080F8141D704702E008C8121FFE
S315080010B008C1002AFAD170477047002001E001C133
S315080010C0121F002AFBD1704708B5FFF751FAFFF740
S315080010D088FFFFF741FDFFF729FE0021082320A21C
S315080010E00846FFF726FF08231EA214210020FFF753
S315080010F020FF08232E2200212420FFF77BFE082349
S315080011002E2214212420FFF775FE20E0164D082410
S315080011100094AA78022300211420FFF7E7FE009422
S31508001120EA78022300212820FFF7E0FE0094142124
S315080011302A7802230846FFF7D9FE00946A78022324
S3150800114014212820FFF7D2FE3220FFF7F7F8FFF721
S3150800115007FF0548FFF72CF80028F5D0D6E700006A
S31508001160543A0000483A00000C0000200000000035
S31508001170000000000000000000000000000000F869
S3150800118000000000000000333000000000160E00CA
S31508001190160E0000000000000000000040C0784065
S315080011A0C0784000043F04043F040400007088FC33
S315080011B008300000001820FF211E0000F008F0008B
S315080011C0E018000000211C031E211E0000F00888FC
S315080011D0700000001E212324192721100000001684
S315080011E00E0000000000000000000000000000E003
S315080011F01804020000000007182040000002041826
S31508001200E00000000040201807000000404080F081
S31508001210804040000202010F01020200000000F0B7
S31508001220000000000101011F01010100000000008B
S315080012300000000000B07000000000000000000080
S315080012400000000000010101010101010000000089
S315080012500000000000303000000000000000000020
S3150800126080601804006018060100000000E01008FD
S315080012700810E000000F102020100F00001010F8D2
S31508001280000000000020203F202000000070080811
S315080012900888700000302824222130000030088891
S315080012A0884830000018202020110E000000C020B9
S315080012B010F8000000070424243F240000F80888DA
S315080012C0880808000019212020110E0000E0108867
S315080012D088180000000F112020110E000038080899
S315080012E0C83808000000003F0000000000708808A9
S315080012F008887000001C222121221C0000E010082A
S315080013000810E0000000312222110F00000000C082
S31508001310C00000000000003030000000000000C0DF
S31508001320C0000000000080B070000000000080408F
S315080013302010080000010204081020004040404028
S31508001340404040000404040404040400000810207B
S3150800135040800000002010080402010000704808C0
S315080013600808F0000000003036010000C030C82828
S31508001370E810E0000718272423140B000000C038E3
S31508001380E0000000203C23020227382008F888885D
S3150800139088700000203F202020110E00C030080869
S315080013A008083800071820202010080008F8080840
S315080013B00810E000203F202020100F0008F8888839
S315080013C0E8081000203F20202320180008F8888805
S315080013D0E8081000203F200003000000C03008087D
S315080013E00838000007182020221E020008F8080006
S315080013F00008F808203F210101213F20000808F8CD
S31508001400080800000020203F2020000000000808EF
S31508001410F8080800C08080807F00000008F888C0AF
S3150800142028180800203F20012638200008F8080060
S3150800143000000000203F20202020300008F8F80097
S31508001440F8F80800203F003F003F200008F830C0A9
S315080014500008F808203F200007183F00E010080899
S315080014600810E0000F10202020100F0008F80808C8
S315080014700808F000203F210101010000E0100808DB
S315080014800810E0000F18242438504F0008F8888800
S3150800149088887000203F2000030C302000708808E0
S315080014A0080838000038202121221C00180808F8EE
S315080014B0080818000000203F2000000008F808006F
S315080014C00008F808001F202020201F000878880040
S315080014D000C83808000007380E010000F80800F8B0
S315080014E00008F800033C0700073C0300081868805A
S315080014F08068180820302C03032C30200838C800D0
S31508001500C83808000000203F20000000100808081E
S31508001510C83808002038262120201800000000FEC0
S31508001520020202000000007F40404000000C30C06C
S3150800153000000000000000010638C0000002020298
S31508001540FE000000004040407F0000000020100818
S315080015500408102000000000000000000000000041
S31508001560000000008080808080808080000204085F
S31508001570000000000000000000000000000080805D
S31508001580808000000019242222223F2008F80080CB
S3150800159080000000003F112020110E00000000808E
S315080015A080800000000E112020201100000000801D
S315080015B08088F800000E112020103F20000080804F
S315080015C080800000001F222222221300008080F063
S315080015D0888888180020203F20200000000080808E
S315080015E080808000006B94949493600008F80080D3
S315080015F080800000203F210000203F20008098982E
S31508001600000000000020203F20200000000000808D
S315080016109898000000C08080807F000008F80000CD
S3150800162080808000203F24022D302000000808F822
S31508001630000000000020203F2020000080808080DD
S3150800164080808000203F20003F20003F00808000EF
S315080016508080000000203F2100203F20000080807D
S3150800166080800000001F202020201F00808000802E
S315080016708000000080FFA12020110E0000000080DD
S3150800168080808000000E112020A0FF8080808000CE
S315080016908080800020203F212000010000008080FB
S315080016A0808080000033242424241900008080E0F0
S315080016B0808000000000001F2020000080800000BD
S315080016C000808000001F202020103F20808080009E
S315080016D00080808000010E300806010080800080AE
S315080016E0008080800F300C030C300F0000808000D3
S315080016F0808080000020312E0E31200080808000FE
S315080017000080808080818E701806010000808080AD
S31508001710808080000021302C22213000000000004B
S31508001720807C020200000000003F404000000000EC
S31508001730FF00000000000000FF0000000002027C1D
S31508001740800000000040403F00000000008040404C
S315080017508000008000000000000101000000000079
S3150800176000000000002F000000000700070000141A
S315080017707F147F1400242A7F2A1200231308646228
S3150800178000364955225000000007000000001C22C0
S315080017904100000041221C000014083E08140008FD
S315080017A0083E0808000000A06000000808080808AD
S315080017B0000060600000002010080402003E514945
S315080017C0453E0000427F40000042615149460021E3
S315080017D041454B31001814127F10002745454539FD
S315080017E0003C4A4949300001710905030036494958
S315080017F0493600064949291E000036360000000011
S31508001800563600000008142241000014141414145B
S31508001810000041221408000201510906003E4955FC
S31508001820592E007C1211127C007F49494936003E28
S3150800183041414122007F4141221C007F49494941DB
S31508001840007F09090901003E4149497A007F0808D5
S31508001850087F0000417F4100002040413F01007F92
S3150800186008142241007F40404040007F020C027F5E
S31508001870007F0408107F003E4141413E007F090970
S315080018800906003E4151215E007F09192946004696
S31508001890494949310001017F0101003F4040403F6D
S315080018A0001F2040201F003F4038403F00631408B7
S315080018B01463000708700807006151494543000092
S315080018C07F414100000204081020000041417F00CA
S315080018D000040201020400404040404000000102AA
S315080018E00400002054545478007F48444438003893
S315080018F04444442000384444487F0038545454181B
S3150800190000087E0901020018A4A4A47C007F08042C
S3150800191004780000447D4000004080847D00007FFC
S31508001920102844000000417F4000007C0418047819
S31508001930007C0804047800384444443800FC242415
S3150800194024180018242418FC007C080404080048FD
S315080019505454542000043F444020003C4040207C1E
S31508001960001C2040201C003C4030403C004428100D
S315080019702844001CA0A0A07C004464544C440000E9
S31508001980087F41000000007F00000000417F08003A
S31508001990000804081008000000000000000001020A
S315080019A00304060708090000C819000800000020FB
S315080019B018000000AA100008E01900081800002006
S315080019C000080000BA10000801000000100000001E
S315080019D00000000000000000000000000024F400E1
S705080000ED05
