S3150800000050060020010100083F240008911E000840
S315080000103D2400088D060008D529000800000000C8
S315080000200000000000000000000000001D25000878
S31508000030DF06000800000000412400081F2500080C
S315080000401B0100081B0100081B0100081B01000812
S315080000501B0100081B0100081B0100081B01000802
S315080000601B0100081B0100081B0100081B010008F2
S315080000701B010008910600089D060008A90600084D
S315080000801B0100081B0100081B0100081B010008D2
S315080000901B0100081B0100081B0100081B010008C2
S315080000A01B0100081B0100081B0100081B010008B2
S315080000B01B0100081B0100081B0100081B010008A2
S315080000C01B0100081B0100081B0100081B01000892
S315080000D01B010008B52900081B0100081B010008C0
S315080000E01B0100081B0100081B010008DFF80CD0E3
S315080000F000F00AF9004800478D2A0008500600203B
S315080001000648804706480047FEE7FEE7FEE7FEE7A3
S31508000110FEE7FEE7FEE7FEE7FEE7FEE781250008C5
S31508000120ED00000840EA01039B0703D009E008C96F
S31508000130121F08C0042AFAD203E011F8013B00F89E
S31508000140013B521EF9D27047D2B201E000F8012BEA
S31508000150491EFBD270470022F6E710B513460A4639
S3150800016004461946FFF7F0FF204610BD30B5044691
S315080001700020034600E05B1C934203D2E05CCD5CA2
S31508000180401BF8D030BD00000FB400B58DB010A9E3
S3150800019009900B9000914FF0FF300A9000200C90C8
S315080001A005480690054807906A4609A80F9900F081
S315080001B07DF80DB05DF814FBC9020008E7020008D7
S315080001C02DE9FF5FD2E901A74FF00008916999462A
S315080001D01446DDF838B0464601988847054659EA78
S315080001E00B0005D009E0A169761C019888470546E9
S315080001F0216A284688470028F5D1681C03D05FEA9B
S31508000200CA7005D015E04FF0FF3004B0BDE8F09F86
S315080002102068011D2160D0F800800AE05FEACA70F4
S3150800022001D108F8015BA169761C7F1E01988847F1
S315080002300546002F1ADD681C18D0B9F1000F0DD03D
S31508000240E81705EBD060421120F01F0059F822107C
S315080002502A1A012090400142E0D107E0BBF1000FC5
S31508000260DCD1216A284688470028D7D0E169019859
S315080002708847BBF1000F07D1002E05DD5FEACA707B
S3150800028002D1002188F80010A068B84203DDBBF14E
S31508000290000F03D017B16FF00100B6E73046B4E798
S315080002A0026811441378016018467047D160044902
S315080002B051610449116200211161114600F03CB8F0
S315080002C0A10200082D030008426842B1016811F82E
S315080002D0013B23B1521EC0E900121846704701219E
S315080002E0C160881E704742685AB1C368016843B93D
S315080002F083688B4205D0491E521CC0E900120020B3
S3150800030070474FF0FF307047064C074D06E0E0682F
S3150800031040F0010394E8070098471034AC42F6D33E
S31508000320FFF7E8FE0C6500082C650008C0B24FF41C
S31508000330F05100F097B900002DE9F34F8BB04FF05C
S31508000340000801F10C000C464FF0010B46460DF172
S31508000350080A01906269012101989047051E2DD06F
S31508000360252D2CD0216A8847C0B1626901210198E0
S315080003709047216A88470028F7D1411E626901988B
S31508000380904700E0761CA1690B988847216A884740
S315080003900028F7D1E1690B988847DBE7A1690B9834
S315080003A088470746A84201D1761CD3E7E1690B982E
S315080003B088477F1C02D1B8F1000F6FD046E10027AD
S315080003C062693D463946019890472A2804D16269F0
S315080003D00121019890470125DFF88492626901217D
S315080003E001989047A0F130010A290AD24F45E5DC69
S315080003F007EB870100EB4107303FDFD445F01005D6
S31508000400ECE7E90601D46FF000476C280AD04C28BF
S3150800041014D0682815D06A280DD074281CD07A28DC
S315080004201AD01DE062690121019890476C2802D014
S3150800043045F0040514E045F002050DE045F02005F9
S315080004400AE06269012101989047682802D045F0C0
S31508000450080505E045F400656269012101989047A1
S31508000460C4E9015765283DD019DC58287AD00CDC38
S31508000470452837D004DC252826D0412831D131E05B
S3150800048046282FD047282CD12CE05B2877D0612826
S3150800049028D063287CD0642823D15AE0D0E06F287E
S315080004A048D008DC66281DD067281BD0692821D0CB
S315080004B06E2816D127E0702845D0732868D075288D
S315080004C047D078280DD14DE0A1690B988847054695
S315080004D025283FF469AFE1690B9888476D1C3FF4FE
S315080004E06AAFB3E023466A466FF001000B99AFF393
S315080004F000809EE045F040006060A80723464FF064
S31508000500000236D43EE0E8077FF447AF2068011DB5
S3150800051021600068290501D506701BE7290701D562
S31508000520068017E7A90703D5F117C0E9006111E7A7
S3150800053006600FE745F040006060A80723464FF0C5
S31508000540080216D41EE040F60E0125EA0100606096
S3150800055016E045F040006060A80723464FF00A02FF
S3150800056007D40FE045F040006060A80708D5234689
S3150800057010226FF001000B99AFF3008059E007E0F5
S31508000580234610226FF001000B99AFF3008050E06C
S315080005904FF000094F464B46632802D05B2806D029
S315080005A040E0E80601D40120A06001273AE062692C
S315080005B00121019890475E2805D14FF0010962692B
S315080005C0494601989047216939B900210A46534698
S315080005D043F82120491C0829FADBB0B3216969B917
S315080005E0C11700EBD16253110AEB830122F01F02F7
S315080005F0821A01200B68904003430B60626901214F
S31508000600019890475D28E8D1B9F1000F09D000207C
S31508000610514651F82020D24341F82020401C082892
S31508000620F7DB02AB224600976FF001000B99FFF744
S31508000630C7FD00280CDA401C08D1BBF1000F05D015
S315080006404FF0FF300DB0BDE8F08FFFE74046F9E701
S31508000650E90701D108F1010806444FF0000B79E6D5
S31508000660CCCCCC0C7F2801D9002208E0064A02EB44
S315080006705002C007127800D1120902F00F020120B9
S3150800068090400840704700001A640008FEE7000022
S31508000690014800F079BA000038010020014800F04E
S315080006A073BA000008020020014800F06DBA000085
S315080006B0C401002030B590F840500124AC40C56B09
S315080006C06C60046863604368102B036803D0996004
S315080006D00068C26030BD9A600068C16030BD70476E
S315080006E070B540F2DC54204600F05EFB3F4801F04E
S315080006F025F93FA002F0B4F941A002F06DF92046B1
S3150800070000F052FB43A002F0ABF94648007840B926
S3150800071045A002F061F9204600F046FB45A002F02C
S315080007209FF948A002F058F949A002F099F940F655
S31508000730B835284600F038FB48A002F04DF92046A7
S3150800074000F032FB49A002F08BF94CA002F044F904
S31508000750204600F029FB4EA002F082F950A002F0D4
S315080007603BF9204600F020FB5BA002F079F95EA079
S3150800077002F032F9642265491C4801F098F82046CF
S3150800078000F012FB62A002F06BF900F041F9204676
S3150800079000F00AFB154801F0D1F8614802F01CF98F
S315080007A0204600F001FB5FA002F05AF962A002F0B1
S315080007B013F94FF4FA6000F0F7FA6FA002F050F957
S315080007C0724802F009F9284600F0EEFA64224F4909
S315080007D0064801F06CF86EA002F042F9284600F0CF
S315080007E0E3FABDE8704000F0DBB800007C010020A9
S315080007F0524541445920464F522045535030310006
S3150800080041542B4D515454434C45414E3D300D0AED
S31508000810000000004D51545420444953434F4E4E56
S31508000820000000000C00002041542B435751415052
S315080008300D0A00005749464920444953434F4E4E36
S315080008400000000041542B5253540D0A00000000CA
S3150800085052455345542045535030310041542B439B
S31508000860574D4F44453D310D0A000000534554206D
S315080008704553503031204D4F4445000041542B43D9
S31508000880574155544F434F4E4E3D300D0A00000018
S31508000890434C4F5345204155544F20434F4E4E002D
S315080008A041542B434950534E54504346473D312CEF
S315080008B0382C22636E2E6E74702E6F72672E636EDE
S315080008C0222C226E74702E736A74752E6564752ECA
S315080008D0636E220D0A0000005345542054494D45C5
S315080008E0205A4F4E4500000041542B43574A415069
S315080008F03D22434C636F6E677574222C22717765AF
S315080009007274797569220D0A00000000180000202B
S31508000910574946492053455420444F4E4500000048
S315080009205C640008534554204D5154542055534592
S31508000930524346470000000041542B4D515454433E
S315080009404C49454E5449443D302C223330333833D4
S315080009507C7365637572656D6F64653D335C2C7376
S3150800096069676E6D6574686F643D686D6163736809
S3150800097061317C220D0A0000534554204D515454D0
S3150800098020434C494E54494400000000C064000806
S31508000990534554204D5154542055524C00000000E4
S315080009A030B587B04FF4FA750C4C284600F0FCF9C0
S315080009B06A460BA12046FFF7E7FB02220BA1684611
S315080009C0FFF7D4FB28B10AA002F04AF8FFF788FE21
S315080009D0EAE70BA002F044F807B030BD7C0000201F
S315080009E0252A5B5E0D0A5D25730D0A004F4B000034
S315080009F04D51545420434F4E4E204641494C000019
S31508000A004D51545420434F4E4E45435445440000DF
S31508000A1070B50125134C88B000261348017857296C
S31508000A2008D02B29F9D111A002F01AF82670FFF781
S31508000A3057FEF2E76A4611A1FFF7A6FB012212A1AB
S31508000A406846FFF793FB30B1012210A16846FFF70D
S31508000A508DFB0028E1D10EA002F002F8257008B03F
S31508000A6070BD00000C0000207C0000205749464954
S31508000A70204E4F5420464F554E440000574946498C
S31508000A802025315B5E205D00430000004700000022
S31508000A905749464920434F4E4E4543544544000066
S31508000AA072B6FEE710B590F821100022022905D08B
S31508000AB00421816380F82020012010BD01680B689D
S31508000AC023F00E030B6001680B6823F001030B602B
S31508000AD090F84030C46B012101FA03F3636080F893
S31508000AE0211080F82020104610BD000010B590F89F
S31508000AF021100024022903D00421816301243DE04A
S31508000B0001680A6822F00E020A6001680A6822F083
S31508000B1001020A601A4A0168914201D1012121E0C5
S31508000B20174A1432914201D110211BE0144A283287
S31508000B30914201D1891515E0114A3C32914201D101
S31508000B4089140FE00E4A5032914202D14FF4803197
S31508000B5008E00B4A6432914202D14FF4801101E059
S31508000B604FF08071064A083A5160012180F8211039
S31508000B70002180F82010416B01B18847204610BD3E
S31508000B8008000240806B70472DE9F05FC16B0C6866
S31508000B9001680B68D0F840C0042202FA0CF2494DED
S31508000BA0DFF824A1494E4A4FDFF828B1DFF828E1DB
S31508000BB022422CD05A072AD50A68920603D40A6814
S31508000BC022F004020A600168A94201D1042219E050
S31508000BD0514501D1402215E0B14202D14FF480625D
S31508000BE010E0B94202D14FF480420BE0594502D1D8
S31508000BF04FF4802206E0714502D14FF4800201E0ED
S31508000C004FF080622F4908394A60C16A3BE04FF0CD
S31508000C10020808FA0CF818EA040F4FF000094FF01A
S31508000C20010235D05FEA837832D50B689B0605D476
S31508000C300B6823F00A030B6080F821200168A9429B
S31508000C4001D1022219E0514501D1202215E0B14215
S31508000C5002D14FF4007210E0B94202D14FF40052AB
S31508000C600BE0594502D14FF4003206E0714502D136
S31508000C704FF4001201E04FF00072124908394A6039
S31508000C8080F82090816A00291AD0BDE8F05F0847ED
S31508000C90082505FA0CF5254212D01B0710D50B6856
S31508000CA023F00E030B6090F84010C36B02FA01F1B3
S31508000CB05960826380F8212080F82090016BE2E772
S31508000CC0BDE8F09F080002401C00024030000240C8
S31508000CD044000240580002406C00024030B528B378
S31508000CE008C8134914221944B1FBF2F18900C163FB
S31508000CF010498163022141771A6843F6F0718A43E5
S31508000D00D0E900142143D0E902452C432143046964
S31508000D102143446921438469214311431960002111
S31508000D204163012242770177084630BD012030BD74
S31508000D30F8FFFDBF0000024070B5044690F8200099
S31508000D40002501280CD0012084F8200094F82160A1
S31508000D500020012E06D084F820000225284670BD02
S31508000D60022070BD022684F82160A0632068066808
S31508000D7026F0010606602046FFF79CFCE06A00287C
S31508000D802068016802D041F00E0106E021F0040156
S31508000D9001602068016841F00A0101602068016865
S31508000DA041F001010160D9E770B5044600F004F985
S31508000DB00546601C02D004480078044400F0FCF89C
S31508000DC0401BA042FAD370BD000000202DE9F84F61
S31508000DD0DFF8B8910024A9F1040B23460F2709F17F
S31508000DE0040AABF1040EC9E00125A5402A40AA422F
S31508000DF07DD1674ED1F804C0ACEB0608B44532D0B5
S31508000E0014DCBCF1030F3AD009DCBCF1000F2AD080
S31508000E10BCF1010F1CD0BCF1020F31D11DE0BCF1B1
S31508000E20110F17D0BCF1120F2AD119E0B8F5881F97
S31508000E3019D006DCB8F5803F15D0B8F5801F1FD14C
S31508000E4011E0B8F5001F0ED0B8F5041F18D10AE056
S31508000E50CB6815E0CB681B1D12E0CB6808330FE0A2
S31508000E60CB680C330CE08B682BB1012B4FF00803D1
S31508000E7003D0456104E0042302E0056100E0002395
S31508000E80FF2A01D8064601E000F104064FEA840568
S31508000E9001D9A5F12005D6F8008007FA05FC28EA4D
S31508000EA00C0803FA05F548EA0508C6F800804D68F7
S31508000EB0ED0062D5374DAE6946F00106AE61AD6903
S31508000EC024F0030605F001050095334D06EB050CE5
S31508000ED0DCF80850A607360F07FA06F825EA0805CB
S31508000EE0DFF8B880404503D14FF0000817E044E02A
S31508000EF0DFF8AC80404502D14FF001080FE0DFF87B
S31508000F00A480404502D14FF0020808E0DFF8988037
S31508000F10404502D14FF0030801E04FF0040808FAF3
S31508000F2006F848EA0508CCF808804D68D9F8006044
S31508000F30ED024D4601D5164300E096432E604D68F6
S31508000F40DAF80060AD02554601D5164300E096432F
S31508000F502E604D68DBF80060AD035D4601D516438B
S31508000F6000E096432E604D68DEF80060ED03754696
S31508000F7001D5164300E096432E60641C0D682A4688
S31508000F80E5407FF431AFBDE8F88F00000804014062
S31508000F900000111000100240000001400008014046
S31508000FA0000C014000100140001401400AB1016123
S31508000FB070470904FBE70000014880687047000095
S31508000FC00000002002488168027811448160704759
S31508000FD000000020074810B5016841F010010160C3
S31508000FE0032000F079F8002000F006F800F024F855
S31508000FF0002010BD0020024070B50D4D04464FF488
S315080010007A712878B1FBF0F00A490968B1FBF0F06B
S3150800101000F039FC48B9102C07D200222146501E90
S3150800102000F03AF800206C6070BD012070BD000029
S3150800103000000020100000200E4808B5816941F024
S3150800104001018161816901F001010091C16941F0E5
S315080010508051C161C06900F080500090052000F001
S315080010603BF80548416821F0E06141F000714160B4
S3150800107008BD00000010024000000140002809DBFE
S3150800108000F01F02012191404009800000F1E02094
S31508001090C0F8001170470000F0B40E4B1B680C46F0
S315080010A0C3F30223C3F10705042D00D90425191D2E
S315080010B0072901D2002300E0DB1E012606FA05F106
S315080010C0491E214099409E40761E16403143F0BC89
S315080010D001F08ABC0CED00E0064900F0070208683A
S315080010E04FF6FF03184040EA0220034A10430860FF
S315080010F0704700000CED00E00000FA052DE9F04706
S315080011000F46050061D0434E306800F00700B8422C
S3150800111009D2306820F0070038433060306800F0A4
S315080011200700B84251D128683B4C810712D54007C1
S3150800113003D5606840F4E06060602878000703D54E
S31508001140606840F4605060606068A96820F0F0004C
S31508001150084360602878C00728D06868012810D03E
S315080011602168022810D0890700292EDA616821F043
S31508001170030101436160FFF71FFF804641F288398A
S315080011800DE021688903EFE78901EDE7FFF714FF12
S31508001190A0EB0801494502D90320BDE8F08760683D
S315080011A0696800F00C00B0EB810FEFD1306800F0F1
S315080011B00700B8420BD9306820F007003843306082
S315080011C0306800F00700B84201D00120E5E728782A
S315080011D0400705D56068E96820F4E0600843606068
S315080011E02878000706D56068296920F4605040EA27
S315080011F0C100606000F038F86168084AC1F303115D
S31508001200515CC8400649086006480068FFF7F4FEC6
S315080012100020C2E7002002400010024002640008D5
S3150800122010000020040000200448054900684968A9
S31508001230044AC1F30221515CC840704710000020DF
S31508001240001002401264000804480549006849680D
S31508001250044AC1F3C221515CC840704710000020FF
S3150800126000100240126400080E4A51680E4801F048
S315080012700C03042B11D0082B0FD10C48C1F3834360
S31508001280C903C05C0AD55168084AC1F34041921E99
S31508001290515C054A5043B0FBF1F070470449484396
S315080012A0704700000010024000127A00D62A000893
S315080012B000093D002DE9F84F040070D02078C04D94
S315080012C0C00749D06868C0F38100012807D068685C
S315080012D0C0F38100022809D16868C00306D52868CA
S315080012E0800339D560680028E7D035E06068B0F536
S315080012F0803F0BD010B1B0F5A02F11D0286820F48C
S3150800130080302860286820F4802002E0286840F4AD
S3150800131080302860606890B1FFF74EFE06460AE006
S31508001320286840F480202860F0E700BFFFF744FEF5
S31508001330801B642873D828688003F7D50CE0FFF76C
S315080013403BFE064605E000BFFFF736FE801B642815
S31508001350F0D828688003F7D420789A4E80074FF093
S3150800136001094FF0000839D5686810F00C0F07D04E
S315080013706868C0F38100022809D16868C00306D4EA
S315080013802868800714D52069012808D110E020694B
S31508001390B0B1C6F80090FFF70FFE074605E00AE170
S315080013A0FFF70AFEC01B0228C4D828688007F7D5AD
S315080013B02868616920F0F80040EAC10028600DE05D
S315080013C0C6F80080FFF7F8FD074604E0FFF7F4FDCE
S315080013D0C01B022823D828688007F7D4207800077E
S315080013E02CD57948A169D9B1C0F80090FFF7E4FD7A
S315080013F0074604E0FFF7E0FDC01B02280FD8686A1D
S315080014008007F7D571484FF4FA510068B0FBF1F040
S31508001410009000BF0098411E0091FAD20EE080E0CD
S31508001420C0F80080FFF7C8FD074604E0FFF7C4FDD3
S31508001430C01B022875D8686A8007F7D42078400749
S3150800144060D5E8690027C00008D4E86940F08050F4
S31508001450E861E869012700F0805000905C4801685F
S31508001460C90513D40168834641F480710160FFF70A
S31508001470A3FD824606E000BFFFF79EFDA0EB0A002B
S3150800148064284ED8DBF80000C005F5D5E0680128C9
S315080014900AD008B1052813D0286A20F0010028626E
S315080014A0286A20F0040002E0286A40F00100286259
S315080014B0E06841F2883B98B1FFF77EFD82460BE073
S315080014C0286A40F004002862EEE700BFFFF774FDC3
S315080014D0A0EB0A0159455AD8286A8007F6D50CE0C8
S315080014E0FFF76AFD824605E0FFF766FDA0EB0A01F5
S315080014F059454CD8286A8007F6D41FB1E86920F008
S315080015008050E861E06988B36968C1F381010229FE
S3150800151044D00228C6F8608004D0FFF74DFD044683
S3150800152038E034E0FFF748FD074604E0FFF744FDDE
S31508001530C01B02282BD828688001F7D4206AB0F58A
S31508001540803F05D16868A16820F4003008436860C8
S31508001550D4E908010843696821F4741108436860EE
S31508001560C6F86090FFF728FD044606E025E000BFB0
S31508001570FFF722FD001B022809D828688001F7D545
S315080015801BE000BFFFF718FD001B022802D9032045
S31508001590BDE8F88F28688001F4D40EE00128F7D05A
S315080015A06868226A00F48031914204D1616A00F4C5
S315080015B07010884201D00120EAE70020E8E7000021
S315080015C000100240000042428004424210000020FF
S315080015D00070004070B5040009D0606A002540B16B
S315080015E025616561A56294F8510040B10CE00120BF
S315080015F070BD6068B0F5827FF4D0E561F2E784F8E3
S315080016005050204600F040F8022084F85100206827
S31508001610016821F040010160A088218900F48270E8
S3150800162001F404410843A18901F400610843217CBF
S3150800163001F002010843217D01F001010843218BD5
S3150800164001F400710843217F01F03801084394F83A
S31508001650201001F080010843218D01F40051084350
S3150800166021680860A069042101EA104021684860E1
S315080016702068C16921F40061C1616565012084F8AB
S315080016805100002070BD000070B586B000250646E2
S31508001690009501950295039500681A4988422ED14E
S315080016A01949886940F480508861886900F4805037
S315080016B00490886940F0040088618869694600F0EA
S315080016C004000490A02000900220019003200390BB
S315080016D00E48FFF77BFB0F4C0D4820601020C4E92D
S315080016E001058020C4E903056561A5612046E56119
S315080016F0FFF7F4FA08B1FFF7D3F9B464666206B0E7
S3150800170070BD000000300140001002400008014092
S3150800171030000240380100202DE9F84F044690F8C1
S3150800172050000026984615468A4601280CD00127FF
S3150800173084F85070FFF740FC814694F85100B34690
S31508001740012804D002269AE00220BDE8F88FBAF1F3
S31508001750000F6FD0002D6DD0032084F85100C4F817
S3150800176054B0C4F830A0A586E586C4F838B0A4F805
S315080017703CB0A4F83EB0C4F844B0C4F840B0A06881
S31508001780B0F5004F09D12068016821F040010160D9
S315080017902068016841F480410160206801684906B3
S315080017A003D4016841F040010160E068B0F5006FBC
S315080017B0606803D058B3012D29D049E008B1012D3E
S315080017C01FD1206B21680088C86006E02068816800
S315080017D0890709D5216B0988C160206B801C2063A5
S315080017E0E08E401EE0860CE0FFF7E6FBA0EB090161
S315080017F0414503D3B8F1FF3F03D006E0B8F1000F27
S3150800180003D0E08E0028E1D125E0032635E0206BE1
S3150800181021680078087306E02068816889070AD578
S31508001820216B09780173206B401C2063E08E401EF3
S31508001830E0860DE01FE0FFF7BFFBA0EB090141457D
S3150800184003D3B8F1FF3F03D0DFE7B8F1000FDCD0D0
S31508001850E08E0028E0D14A464146204600F0F1FDD8
S3150800186008B120206065A06818B92068C16880683A
S315080018700090606D08B1012601E084F8517084F883
S3150800188050B0304661E710B5401EB0F1807F01D3F5
S31508001890012010BD4FF0E02460610F21601701F0B0
S315080018A0A3F80020A06107202061002010BD38B5EC
S315080018B0044690F84200202801D0022038BD61B1C4
S315080018C05AB10120206300206063204600F0EEFF35
S315080018D00028F3D1216B012901D0012038BD2168E8
S315080018E00A684968009121680C3151E8002F42F0D6
S315080018F0100241E80023002BF5D138BD10B50B4A7C
S315080019000168914211D100F063F8094800684068FF
S31508001910C0F16400C2B207480078002805D0BDE8C7
S31508001920104004490448FEF7FDBB10BD00380140CD
S31508001930C4010020180000207C00002070B5044671
S3150800194020680C3050E8001F21F4907140E800121E
S31508001950002AF5D12068143050E8001F21F0010153
S3150800196040E80012002AF5D1206B012809D1206829
S315080019700C3050E8001F21F0100140E80012002A40
S31508001980F5D1206840694FF00005400615D5206856
S31508001990143050E8001F21F0400140E80012002AE8
S315080019A0F5D1E06B48B14563E06BFFF77BF820B1F2
S315080019B0E06BFFF7E7F8202806D0E585202084F8B5
S315080019C042002563002070BD10206064032070BDAE
S315080019D010B504460068406994F84110C0F3C01079
S315080019E0212911D180B12068143050E8001F21F058
S315080019F0800140E80012002AF5D1A06B08B1FFF774
S31508001A0051F8204600F086FE2068406994F8421096
S31508001A10C0F38010222911D180B12068143050E813
S31508001A20001F21F0400140E80012002AF5D1E06BC2
S31508001A3008B1FFF737F8204600F045FE002010BD34
S31508001A4070470000F8B5016804460868CA684B691B
S31508001A5010F00F0F4FF000055AD003F0010602F4FC
S31508001A609077374365D0C10705D0D10503D5616C9A
S31508001A7041F001016164410705D5D90703D0616CBE
S31508001A8041F002016164810705D5D90703D0616C6D
S31508001A9041F004016164010707D502F020013143D2
S31508001AA003D0616C41F008016164616C00293BD088
S31508001AB0800604D5900602D5204600F039FE206837
S31508001AC04069616CC0F3801001F0080101432046AB
S31508001AD02BD000F0F8FD20684069400621D5206823
S31508001AE0143050E8001F21F0400140E80012002A97
S31508001AF0F5D1E06BA8B16D494163E06BFEF7F6FFDF
S31508001B00002811D0E06B416B01B0BDE8F0400847F2
S31508001B1083060ED593060CD52046BDE8F84000F09E
S31508001B2007BE2046FFF78CFFF8BDFFF789FF6564FF
S31508001B30F8BD266B2023012E7CD1C6067AD5D6069B
S31508001B4078D508684868009048694FF0020640064C
S31508001B5040D5E16B086840680004000CE8D0A28D07
S31508001B608242E5D9E085886920282DD020680C3086
S31508001B7050E8001F21F4807140E80012002AF5D1D0
S31508001B802168143151E8000F20F0010041E80002F5
S31508001B90002AF5D12068143050E8001F21F04001D2
S31508001BA040E80012002AF5D184F8423025632068FF
S31508001BB00C3050E8001F21F0100140E80012002AFE
S31508001BC0F5D1E06BFEF76EFF6663A08DE18D401AD6
S31508001BD081B22AE0A08DE18D401A81B2E08D0028FD
S31508001BE0A6D00029A4D022680C3252E8000F20F4AF
S31508001BF0907042E80007002FF5D12068143050E8AD
S31508001C00002F22F0010240E80027002FF5D184F8C2
S31508001C104230256320680C3050E8002F22F010026D
S31508001C2040E80023002BF5D166632046FFF766FEE1
S31508001C30F8BDFFE705062BD5150629D594F841000A
S31508001C402128F5D1A068B0F5805F01D12069B0B12F
S31508001C50206A411C2162216800784860E08C401E99
S31508001C600004000CE084E3D12068C16821F08001FB
S31508001C70C1602068C16841F04001C160D8E7206AA8
S31508001C800088C0F308004860206A801C2062E5E7E7
S31508001C904006CDD55006CBD5CA68204622F040026C
S31508001CA0CA6084F8413000F0F2F8C1E7C925000897
S31508001CB070B5040004D094F84100002510B106E080
S31508001CC0012070BD84F84050204600F023F82420F7
S31508001CD084F841002068C16821F40051C16020469B
S31508001CE000F088FD2068016921F4904101612068AF
S31508001CF0416921F02A0141612068C16841F4005117
S31508001D00C1606564202084F8410084F84200656358
S31508001D10002070BDF0B585B00024064600940194F5
S31508001D200294039400682D49884254D12C4881694D
S31508001D3041F480418161816901F48041049181699E
S31508001D4041F0040181618069264D00F00400049089
S31508001D504FF400700090022001900320039069461A
S31508001D602846FFF733F82815CDE9000469462846C2
S31508001D700294FFF72BF81D4D1B488027C5E9000480
S31508001D80C5E902472C616C61AC612846EC61FEF737
S31508001D90A5FF08B1FEF784FEF5636E62134D12487F
S31508001DA04435143801C5102091C5104845F8104926
S31508001DB044306C61AC61EC61FEF790FF08B1FEF748
S31508001DC06FFEB5630122114625206E62FFF764F99E
S31508001DD02520FFF753F905B0F0BD00000038014093
S31508001DE0001002400008014058000240C4010020CB
S31508001DF0704770472DE9F843044690F841001F469E
S31508001E0016460D46202802D00220BDE8F8837DB18B
S31508001E1076B100206064212084F84100FFF7CCF8F1
S31508001E20A6848046E684A068B0F5805F02D003E009
S31508001E300120EAE7206910B12E4600250EE00026AB
S31508001E400CE08021204600F079FDA0B9AEB116F865
S31508001E50010B21684860E08C401EE084E08C434614
S31508001E604FF0000200970028EBD14FF040012046C2
S31508001E7000F064FD30B10320C7E735F8020BC0F364
S31508001E800800E6E7202084F841000020BDE77047F7
S31508001E90FEE72DE9F04104461D4616460F462A2060
S31508001EA000F0ECF9204600F0DEF9304600F0DBF9E8
S31508001EB02B2000F0E3F9384600F0D5F9284600F063
S31508001EC0D2F9BDE8F0412C2000F0D8B910B5144677
S31508001ED00B460246FFF7DDFF2046BDE8104000F03E
S31508001EE0C2B92DE9F04780461F46581E83B21646EA
S31508001EF0501E82B20C464046DDF82090FFF7C9FF17
S31508001F000AE0454604E0484600F0ADF96D1CADB25E
S31508001F10B542F8D3641CA4B2BC42F2D3BDE8F0873C
S31508001F2010B57E4C206820F480502060206820F48C
S31508001F30004020606420FEF737FF206840F4004028
S31508001F4020606420FEF730FF206840F4805020604F
S31508001F506420FEF729FF112000F090F97820FEF79B
S31508001F6023FFB12000F08AF9052000F097F93C20FC
S31508001F7000F094F93C2000F091F9B22000F07EF9C7
S31508001F80052000F08BF93C2000F088F93C2000F091
S31508001F9085F9B32000F072F9052000F07FF93C209E
S31508001FA000F07CF93C2000F079F9052000F076F97C
S31508001FB03C2000F073F93C2000F070F9B42000F0E2
S31508001FC05DF9032000F06AF9C02000F057F92820CF
S31508001FD000F064F9082000F061F9042000F05EF9C9
S31508001FE0C12000F04BF9C02000F058F9C22000F0DB
S31508001FF045F90D2000F052F9002000F04FF9C320F2
S3150800200000F03CF98D2000F049F92A2000F046F945
S31508002010C42000F033F98D2000F040F9EE2000F0DE
S315080020203DF9C52000F02AF91A2000F037F93620C4
S3150800203000F024F9C02000F031F9E02000F01EF984
S31508002040042000F02BF9222000F028F9072000F0E0
S3150800205025F90A2000F022F92E2000F01FF9302079
S3150800206000F01CF9252000F019F92A2000F016F9CD
S31508002070282000F013F9262000F010F92E2000F091
S315080020800DF93A2000F00AF9002000F007F90120BE
S3150800209000F004F9032000F001F9132000F0FEF81F
S315080020A0E12000F0EBF8042000F0F8F8162000F024
S315080020B0F5F8062000F0F2F80D2000F0EFF82D20D4
S315080020C000F0ECF8262000F0E9F8232000F0E6F806
S315080020D0272000F0E3F8272000F0E0F8252000F09C
S315080020E0DDF82D2000F0DAF83B2000F0D7F80020C4
S315080020F000F0D4F8012000F0D1F8042000F0CEF862
S31508002100132000F0CBF83A2000F0B8F8052000F0CC
S31508002110C5F8BDE81040292000F0B0B80C0C014005
S315080021202DE9FF4F81B00446DDF83C9000904FEA58
S3150800213059074FF00008780700D0012000EBD700B8
S3150800214000FB09FB203AD0B2039002980299484452
S31508002150401E83B2E019401E82B22046FFF799FE60
S31508002160002553E0B9F10C0F2AD0B9F1100F2ED083
S31508002170B9F1180F2ED0B9F1200F49D12749039884
S3150800218001EB8010002610F805A0109800284FF0E3
S31508002190010000FA06F000EA0A0022D020B1204623
S315080021A0049A0299FFF792FE641C0098A4B2201ABA
S315080021B0B84225D10298009C401C80B2029023E0C8
S315080021C00398174900EB400001EB8000DAE7154950
S315080021D0039803E00398144900EB400001EB001054
S315080021E0D0E708B1049800E00E9800F03CF808F132
S315080021F00100C0B2B0FBF7F1804607FB118050B171
S31508002200761CF6B2082EC0D36D1CADB25D45A9D3B7
S3150800221005B0BDE8F08F4FF00008F5E71A4700084B
S31508002220E62A00085A2F00084A3500082DE9FE4F0D
S315080022309946DDE90D6714468A460546DDF830807D
S315080022400CE0CDF800804B4651462846CDE901679B
S31508002250FFF766FF05EB560085B2641C2278002A54
S31508002260EFD1BDE8FE8F10B50446000A00F016F857
S31508002270E0B2BDE8104000F011B8000010B5064CF9
S31508002280216821F48041216000F008F8206840F4B4
S315080022908040206010BD00000C0C014031B5084C90
S315080022A0206820F4005020604FF6FF73012269462B
S315080022B00448FFF731FA206840F40050206038BD22
S315080022C00C0C0140E0000020114808B5416941F0B6
S315080022D0010141614069002200F0010000901146A9
S315080022E00D20FEF7D9FE0D20FEF7C8FE0022114686
S315080022F00E20FEF7D1FE0E20FEF7C0FE0022114684
S315080023000F20FEF7C9FEBDE808400F20FEF7B6BE4F
S31508002310001002402DE9F04385B0002421480094BE
S31508002320019402940394816941F0200181618169D5
S3150800233001F020010491816941F0040181618169FC
S3150800234001F004010491816941F008018161806905
S31508002350DFF8548000F0080004900122102140465E
S31508002360FEF724FEDFF844904FF470470122394601
S315080023704846FEF71BFE102001250326CDE9000579
S31508002380CDE9024669464046FEF720FD00970396CA
S31508002390CDE9015469464846FEF718FD05B0BDE883
S315080023A0F08300000010024000080140000C0140C4
S315080023B0104810B50E4901604FF482714160002142
S315080023C08160C1604FF400720161C0E905121022F4
S315080023D0C0E90721416281620A21C162FFF7FAF862
S315080023E0002803D0BDE81040FEF75ABB10BD000018
S315080023F000300140E00000200E4810B50C4901608D
S315080024004FF4E1314160002181600C22C160C0E9CE
S3150800241004128161C161FFF74BFC08B1FEF740FB6E
S31508002420BDE81040642204490248FFF740BA00009C
S31508002430003801407C01002018000020FEE7FEE776
S31508002440704738B50B46009204460022802100F0FA
S3150800245009F8002804D0606D40F02000606503206C
S3150800246038BD00002DE9F8431E46914688460446C5
S31508002470089DFEF7A1FD401B351AFEF79DFD074690
S3150800248025480068C0F3CB30684338E0701C37D065
S31508002490FEF792FDC01BA84203D215B1009860B39F
S315080024A02CE02068416821F0E00141606068B0F5E1
S315080024B0827F0BD1A068B0F5004F02D0B0F5806FCF
S315080024C004D12068016821F040010160A06AB0F5D6
S315080024D0005F09D12068016821F400510160206875
S315080024E0016841F400510160012084F85100002080
S315080024F084F850000320BDE8F8830025401E0090AC
S315080025002068816838EA010004D000214945BDD118
S315080025100020F0E70121F9E7100000207047FEF7D8
S3150800252051BD30B58FB028216846FDF714FE142139
S315080025300AA8FDF710FE01210804CDE900100024C1
S31508002540029402250491CDE907504FF4E010099052
S315080025506846FEF7AFFE08B172B6FEE70F20CDE972
S315080025600A054FF48060CDE90C4002210AA80E94B2
S31508002570FEF7C4FD002801D072B6FEE70FB030BDE5
S315080025800D48016841F00101016041680B4A11409C
S31508002590416001680A4A11400160016821F48021FE
S315080025A00160416821F4FE0141604FF41F0181601A
S315080025B00449C00308607047001002400000FFF895
S315080025C0FFFFF6FE08ED00E010B5406A0021C18560
S315080025D0C184FFF735FA10BD70B5446A20684069B2
S315080025E094F84110C0F3C0100025212904D118B170
S315080025F0E584204600F08EF82068406994F8421079
S31508002600C0F38010222904D118B1E585204600F0D0
S315080026105AF8606C40F0100060642046FFF710FA24
S3150800262070BD10B50146406A096809684FF0000296
S3150800263089062ED4C28501680C3151E8003F23F47F
S31508002640807341E80034002CF5D10168143151E853
S31508002650003F23F0010341E80034002CF5D101685E
S31508002660143151E8003F23F0400341E80034002CC0
S31508002670F5D1202180F84210016B012909D10168A2
S315080026800C3151E8003F23F0100341E80034002CD8
S31508002690F5D14263016B012902D0FFF7A9FB10BDF2
S315080026A0818DFFF72BF910BD10B5406A01214163F2
S315080026B0016B012902D0FFF79CFB10BD818D4908EB
S315080026C0FFF71CF910BD01680C3151E8002F22F400
S315080026D0907241E80023002BF5D10168143151E8C6
S315080026E0002F22F0010241E80023002BF5D1016BEF
S315080026F0012909D101680C3151E8002F22F0100296
S3150800270041E80023002BF5D1202180F84210002152
S315080027100163704701680C3151E8002F22F0C002AE
S3150800272041E80023002BF5D1202180F8411070479D
S3150800273008B590F84210222901D0022008BD826807
S315080027404FF480539A4201D1016921B1816A9A42B4
S315080027501BD04AB10AE00268816A5268C2F30802CD
S315080027600A80816A891C08E0026972B102685268A7
S3150800277002F07F020A70816A491C8162C18D491E76
S315080027800904090CC18503D01BE002685268F1E709
S315080027900168CA6822F02002CA600168CA6822F481
S315080027A08072CA6001684A6922F001024A612021E2
S315080027B080F8421000214163026B012A03D0FFF71B
S315080027C017FB002008BD016301680C3151E8002F92
S315080027D022F0100241E80023002BF5D101680A68AF
S315080027E0D20602D50A6849680091818DFFF786F8F6
S315080027F0E7E7000070B5044600680169E26821F45D
S315080028004051114301612169A06808436169084381
S315080028102168CA6841F20C639A430243CA60206879
S315080028204169A26921F44071114341611E4920683A
S31508002830884202D1FEF708FD01E0FEF7F5FC00EB41
S31508002840C00101EB0012606864218000B2FBF0F35E
S31508002850B3FBF1F36FF018067343B2FBF0F5B2FB66
S31508002860F0F605EB8305322303EB0515B5FBF1F509
S31508002870B6FBF1F605F0F00505EB0615B2FBF0F62A
S31508002880B2FBF0F0B0FBF1F06FF01802504306EB24
S31508002890800003EB0010B0FBF1F0216800F00F0098
S315080028A02844886070BD00000038014038B5816250
S315080028B004468285002013466064222284F842205A
S315080028C0E56B1B4AAA62E56B1A4AEA62E56B1A4A85
S315080028D02A63E26B50630A462168E06B091DFEF71E
S315080028E02BFA2068016840680090206948B1206882
S315080028F00C3050E8001F41F4807140E80012002AAD
S31508002900F5D12068143050E8001F41F0010140E875
S315080029100012002AF5D12068143050E8001F41F053
S31508002920400140E80012002AF5D1002038BD000019
S3150800293023260008A9260008D92500082DE9F04114
S31508002940984617460E460446069D27E0681C25D07D
S315080029502DB1FEF731FBA0EB0800A8421ED920686E
S315080029600C3050E8001F21F4D07140E80012002A0C
S31508002970F5D12068143050E8001F21F0010140E825
S315080029800012002AF5D1202084F8410084F842007C
S31508002990002084F840000320BDE8F0812068006824
S315080029A036EA000004D00020B842CFD00020F3E772
S315080029B00120F9E710B50548FFF744F8BDE81040CF
S315080029C0642203490148FEF772BF00007C0100201B
S315080029D018000020FEE70000014A024900F023B86B
S315080029E0492A0008140000200907090E002804DBFC
S315080029F000F1E02080F80014704700F00F0000F1A5
S31508002A00E02080F8141D704702E008C8121F08C1AC
S31508002A10002AFAD170477047002001E001C1121F51
S31508002A20002AFBD170472DE9F04116460F460446A9
S31508002A30002503E03946B047641C6D1C2078002841
S31508002A40F8D12846BDE8F08113B54FF6FF73012289
S31508002A5069460248FFF7CEF900981CBD7C010020A4
S31508002A603EB504464FF6FF7500210C238022084622
S31508002A700095FFF736FA00200C210095CDE90110E4
S31508002A80034622460146FFF7D1FB3EBD08B5FEF7D1
S31508002A90A1FAFFF746FDFFF73DFCFFF715FCFFF728
S31508002AA0ABFCFFF785FC0A480068C16821F02001E5
S31508002AB0C160FFF735FA4FF6FF7000210090A0239A
S31508002AC080220846FFF70DFAFDF70AFEFEE700002A
S31508002AD07C010020010202030405060708090A0B07
S31508002AE00C0D0E0F10100000000000000000000082
S31508002AF00000000004040404040000040000141488
S31508002B000A00000000000000000000000A0A1F0A70
S31508002B100A1F0A0A000000040E1505060C14150EF5
S31508002B200400000012150D152E2C2A1200000000B4
S31508002B30040A0A36151529160000020201000000CB
S31508002B400000000000001008080404040404080833
S31508002B50100002040408080808080404020000001B
S31508002B600004150E0E150400000000000008083EBB
S31508002B700808000000000000000000000000020233
S31508002B80010000000000003F0000000000000000F7
S31508002B9000000000000000020000002010100808D5
S31508002BA004040202010000000E1111111111110E88
S31508002BB000000000040604040404040E00000000DB
S31508002BC00E1111080402011F000000000E11100C5E
S31508002BD01010110E00000000080C0C0A091F081C32
S31508002BE0000000001F01010F1110110E0000000067
S31508002BF00C12010D1311110E000000001E1008081A
S31508002C0004040404000000000E11110E1111110E27
S31508002C10000000000E111119161009060000000028
S31508002C20000004000000000400000000000000048A
S31508002C300000000404000000100804020204081042
S31508002C400000000000003F003F00000000000000F8
S31508002C500204081010080402000000000E111108F2
S31508002C6004040004000000001C22292D2D1D221C2E
S31508002C700000000004040C0A0A1E123300000000BB
S31508002C800F12120E1212120F000000001E1101017F
S31508002C900101110E000000000F1212121212120F7B
S31508002CA0000000001F120A0E0A02121F0000000090
S31508002CB01F120A0E0A020207000000001C12010178
S31508002CC03911120C000000003312121E12121233B0
S31508002CD0000000001F0404040404041F0000000090
S31508002CE03E080808080808080907000037120A06F7
S31508002CF00A12123700000000070202020202223FEF
S31508002D00000000003B1B1B1B1515153500000000B5
S31508002D103B1216161A1A1217000000000E1111118E
S31508002D201111110E000000000F12120E0202020706
S31508002D30000000000E1111111117190E18000000DD
S31508002D400F12120E0A121237000000001E11010699
S31508002D500810110F000000001F1504040404040ED7
S31508002D6000000000331212121212120C00000000AA
S31508002D703312120A0A0C0404000000001515151572
S31508002D800E0A0A0A000000001B0A0A04040A0A1BA3
S31508002D90000000001B0A0A0A0404040E00000000D2
S31508002DA01F0908040402121F00001C04040404047A
S31508002DB0040404041C0000020204040408080810A1
S31508002DC010000E0808080808080808080E00040A73
S31508002DD000000000000000000000000000000000E5
S31508002DE000000000003F0204000000000000000090
S31508002DF0000000000000000C121C123C000000033A
S31508002E000202020E1212120E000000000000001C40
S31508002E101202120C000000181010101C1212123C9C
S31508002E20000000000000000C121E021C0000001822
S31508002E302404041E0404041E000000000000003CD4
S31508002E40120C021C221C00030202020E1212123776
S31508002E5000000004040000060404040E0000000834
S31508002E600800000C08080808080700030202021AEE
S31508002E700A060A1300000007040404040404041FD5
S31508002E80000000000000000F1515151500000000D1
S31508002E900000000F12121237000000000000000C9C
S31508002EA01212120C000000000000000F1212120E7F
S31508002EB0020700000000001C1212121C1038000045
S31508002EC00000001B06020207000000000000001EAA
S31508002ED0020C101E000000000004041E0404041C5A
S31508002EE0000000000000001B1212123C0000000047
S31508002EF00000001B0A0A0404000000000000001578
S31508002F00150E0A0A000000000000001B0A040A1B2E
S31508002F10000000000000003312120C080403000031
S31508002F200000001E0804041E000018080808080C03
S31508002F3008080808180008080808080808080808FB
S31508002F400808060404040408040404040600160910
S31508002F500000000000000000000000000000000063
S31508002F60000000000000000000000000000808083B
S31508002F700808080800001818000000486C24120009
S31508002F8000000000000000000000000000242424C7
S31508002F907F1212127F12121200000000081C2A2A41
S31508002FA00A0C1828282A2A1C0808000000222515B9
S31508002FB015152A585454542200000000000C121209
S31508002FC0120A76252911916E0000000606040300F0
S31508002FD0000000000000000000000040201010085B
S31508002FE00808080808101020400000020408081005
S31508002FF0101010101008080402000000000008084D
S315080030006B1C1C6B08080000000000000000080884
S3150800301008087F08080808000000000000000000F3
S31508003020000000000000060604030000000000007F
S315080030300000FE0000000000000000000000000084
S315080030400000000000000606000000008040402046
S315080030502010100808040402020000000018244288
S3150800306042424242424224180000000000080E086C
S31508003070080808080808083E00000000003C42420C
S31508003080422020100804427E00000000003C424214
S31508003090201820404042221C000000000020302852
S315080030A0242422227E20207800000000007E0202CE
S315080030B0021A26404042221C000000000038240262
S315080030C0021A26424242241800000000007E2222EC
S315080030D0101008080808080800000000003C4242D2
S315080030E0422418244242423C0000000000182442B0
S315080030F0424264584040241C0000000000000000C2
S315080031001818000000001818000000000000000051
S315080031100008000000000008080400000040201015
S315080031200804020408102040000000000000000007
S315080031307F0000007F000000000000000002040875
S31508003140102040201008040200000000003C424203
S31508003150464020101000181800000000001C225AD3
S31508003160555555552D42221C000000000008081828
S315080031701414243C224242E700000000001F2222C9
S31508003180221E22424242221F00000000007C4242C8
S31508003190010101010142221C00000000001F224219
S315080031A0424242424242221F00000000003F4212B1
S315080031B0121E12120242423F00000000003F421255
S315080031C0121E12120202020700000000003C222210
S315080031D0010101712122221C0000000000E7424281
S315080031E042427E42424242E700000000003E080892
S315080031F0080808080808083E00000000007C1010AF
S315080032001010101010101010110F00000077221265
S315080032100A0E0A1212222277000000000007020294
S31508003220020202020202427F0000000000773636E0
S3150800323036362A2A2A2A2A6B0000000000E3464668
S315080032404A4A52525262624700000000001C22415C
S31508003250414141414141221C00000000003F4242D9
S3150800326042423E020202020700000000001C224100
S31508003270414141414D53321C60000000003F42422B
S31508003280423E1212222242C700000000007C42423F
S31508003290020418204042423E00000000007F490810
S315080032A0080808080808081C0000000000E7424251
S315080032B0424242424242423C0000000000E742428B
S315080032C0222424141418080800000000006B494939
S315080032D049495555362222220000000000E74224BB
S315080032E024181818242442E7000000000077222238
S315080032F0141408080808081C00000000007E212095
S31508003300101008040442423F000000780808080824
S3150800331008080808080808087800000002020404DB
S3150800332008080810102020204040001E1010101019
S3150800333010101010101010101E0000384400000065
S31508003340000000000000000000000000000000006F
S31508003350000000000000000000FF00060800000052
S31508003360000000000000000000000000000000004F
S31508003370003C4278444242FC00000000000302027E
S31508003380021A26424242261A0000000000000000E7
S315080033900038440202024438000000000060404041
S315080033A040784442424264D8000000000000000011
S315080033B0003C427E0202423C0000000000F0880801
S315080033C0087E08080808083E000000000000000003
S315080033D0007C22221C023C42423C000000030202FE
S315080033E0023A4642424242E700000000000C0C0046
S315080033F0000E08080808083E0000000000303000EB
S315080034000038202020202020221E0000000302026F
S315080034100272120A1612227700000000000E08082F
S31508003420080808080808083E000000000000000018
S31508003430007F9292929292B700000000000000006E
S31508003440003B4642424242E70000000000000000FE
S31508003450003C42424242423C00000000000000009C
S31508003460001B26424242221E0207000000000000FE
S31508003470007844424242447840E0000000000000E0
S3150800348000774C040404041F00000000000000003C
S31508003490007C42023C40423E00000000000000085A
S315080034A0083E080808080830000000000000000070
S315080034B000634242424262DC000000000000000055
S315080034C000E7422424140808000000000000000059
S315080034D000EB494955552222000000000000000073
S315080034E0007624181818246E00000000000000005A
S315080034F000E742242414180808070000000000000A
S31508003500007E22100808447E000000C020202020EB
S315080035102010202020202020C0001010101010108D
S3150800352010101010101010101010000608080808C7
S31508003530081008080808080806000C32C20000002F
S31508003540000000000000000000000000000000006D
S31508003550000000000000000000000000000000005D
S31508003560000000000000000000000000000000004D
S31508003570000000000000000000000000000000003D
S31508003580000060006000600060006000600060008D
S31508003590400020002000200000000000000060001D
S315080035A060006000000000000000000000006006E7
S315080035B060063003980188004400000000000000FF
S315080035C000000000000000000000000000000000ED
S315080035D000000000000000000000000000000000DD
S315080035E000001002100210021002FE07FE07080271
S315080035F00801080108010801FE07FE070401040185
S3150800360004010401000000000000000000000000A2
S3150800361040004000F00158034C03CC034C0058000E
S315080036207000E000C001C00140034C035C034C037A
S315080036304801F000400040000000000000000000C3
S3150800364000000E010A0191009100910051005100FD
S315080036503A00AE03A0025004500448044804480443
S31508003660840284030000000000000000000000003F
S31508003670000038006C006C006C006C006C002C00BC
S3150800368098071C011A01330133016301E300C308DB
S31508003690C6093C07000000000000000000000C00FE
S315080036A01C001000100008000400000000000000C4
S315080036B000000000000000000000000000000000FC
S315080036C000000000000000000000000000000004E8
S315080036D00002000180008000400040002000200019
S315080036E0200020002000200020004000400080002C
S315080036F08000000100020004000000000000020033
S3150800370004000800100010002000200040004000BF
S31508003710400040004000400040002000200010000B
S31508003720100008000400020000000000000000006D
S315080037300000000000004000C0004000460C4E0F8C
S31508003740D001F0015E0F460C40004000400000002A
S31508003750000000000000000000000000000000005B
S31508003760000000000000000040004000400040004B
S315080037704000FE0F400040004000400040000000AE
S31508003780000000000000000000000000000000002B
S31508003790000000000000000000000000000000001B
S315080037A000000000000000000000000000000C00FF
S315080037B01C001000100008000400000000000000B3
S315080037C000000000000000000000000000000000EB
S315080037D00000FE07000000000000000000000000D6
S315080037E000000000000000000000000000000000CB
S315080037F000000000000000000000000000000000BB
S3150800380000000000000000000000000000001C008E
S315080038101C001C000000000000000000000000045E
S31508003820000600020003000100018000800040003D
S31508003830400060002000200010001000080008006A
S315080038400C00040006000200000000000000000052
S3150800385000000000F00098010C030C03060606069B
S315080038600606060606060606060606060C030C03E4
S315080038709801F000000000000000000000000000B1
S315080038800000000040007C006000600060006000EE
S31508003890600060006000600060006000600060001A
S315080038A06000FC03000000000000000000000000AB
S315080038B000000000F8008401020306030603000363
S315080038C000018001C0006000200010000802040208
S315080038D00602FE03000000000000000000000000D1
S315080038E0000000007800C60086018601800180017C
S315080038F0C0007000800100010003000306030603F0
S315080039008601F8000000000000000000000000002A
S315080039100000000080018001C001A001A001900103
S315080039208801880184018201FE0F800180018001DF
S315080039308001E00700000000000000000000000011
S3150800394000000000FC030400040004000400040056
S31508003950F4008C0104030003000306030603820136
S315080039608401F800000000000000000000000000CC
S3150800397000000000E00118030C030C000400060018
S31508003980E60116030E0606060606060604060C02D9
S315080039901803F0000000000000000000000000000E
S315080039A000000000F8070C060402040100010001EB
S315080039B08000800040004000400060006000600019
S315080039C06000600000000000000000000000000029
S315080039D000000000F8010C030606060606060C029F
S315080039E01C03F000C8010C030606060606060606B2
S315080039F00C03F001000000000000000000000000B9
S31508003A0000000000F0000C010C030602060606067C
S31508003A10060606078C0678060006000300030C0156
S31508003A208C01780000000000000000000000000083
S31508003A300000000000000000000000000000E00098
S31508003A40E000E00000000000000000000000E000C8
S31508003A50E000E00000000000000000000000000098
S31508003A6000000000000000000000000000006000E8
S31508003A7060000000000000000000000000000000D8
S31508003A8060006000400020002000000000000000E8
S31508003A900000000400020001800040002000100021
S31508003AA00800040008001000200040008000000103
S31508003AB000020004000000000000000000000000F2
S31508003AC00000000000000000000000000000FE07E3
S31508003AD0000000000000FE070000000000000000D3
S31508003AE000000000000000000000000000000000C8
S31508003AF000000400080010002000400080000001BB
S31508003B0000020004000200018000400020001000AE
S31508003B10080004000000000000000000000000008B
S31508003B2000000000E0031806040C040C0C0C0C0C36
S31508003B300007800140004000400000000000E0004F
S31508003B40E000E000000000000000000000000000A7
S31508003B500000E00018030C02CC0564056605A605FE
S31508003B60B604B604B604B604B602E4010C040C02A4
S31508003B701803F0000000000000000000000000002C
S31508003B8000000000600060005000D0009000900027
S31508003B90880088010801F8010403040304020202EC
S31508003BA002060F0F000000000000000000000000E1
S31508003BB000000000FE008C030C030C030C030C032E
S31508003BC08C01FC000C030C020C060C060C060C06F9
S31508003BD00C03FE01000000000000000000000000C9
S31508003BE000000000E00318030C060C040404060099
S31508003BF00600060006000600060006040C040C0271
S31508003C001803F0000000000000000000000000009B
S31508003C10000000007F008C010C030C030C060C0648
S31508003C200C060C060C060C060C060C060C030C03FC
S31508003C308C017F000000000000000000000000006A
S31508003C4000000000FF0306030604060406008600BB
S31508003C508600FE0086008600860006000604060426
S31508003C600602FF030000000000000000000000003C
S31508003C7000000000FF03060306040604060086008B
S31508003C808600FE00860086008600060006000600FE
S31508003C9006001F00000000000000000000000000F1
S31508003CA000000000F00018010C020C0204020600D5
S31508003CB0060006000600C60F060306030C030C03DF
S31508003CC01803F000000000000000000000000000DB
S31508003CD0000000000F0F060606060606060606067C
S31508003CE00606FE070606060606060606060606066D
S31508003CF006060F0F0000000000000000000000008C
S31508003D0000000000FC0360006000600060006000C6
S31508003D106000600060006000600060006000600095
S31508003D206000FC0300000000000000000000000026
S31508003D3000000000F807C000C000C000C000C000B6
S31508003D40C000C000C000C000C000C000C000C00065
S31508003D50C000C000C60066003C000000000000006D
S31508003D6000000000CF038601C600460026001600A4
S31508003D7036002E006E004600C60086008601060143
S31508003D8006038F0700000000000000000000000086
S31508003D90000000001F0006000600060006000600D8
S31508003DA006000600060006000600060006040604CD
S31508003DB00602FF03000000000000000000000000EB
S31508003DC0000000000707860386038E038E034E0352
S31508003DD04E034A035A035A033A03320332033203A1
S31508003DE01203870700000000000000000000000022
S31508003DF0000000008E0F0C021C021C023402340262
S31508003E00640264024402C402840284038403040331
S31508003E1004031F020000000000000000000000006C
S31508003E2000000000F00098010C030C0206060606C6
S31508003E300606060606060606060606060C020C030F
S31508003E409801F000000000000000000000000000DB
S31508003E5000000000FF00060306060606060606061C
S31508003E6006068603FE000600060006000600060093
S31508003E7006001F000000000000000000000000000F
S31508003E8000000000F00098010C030C020606060666
S31508003E900606060606060606060676064C02CC033F
S31508003EA09801F000800700030000000000000000F1
S31508003EB000000000FF0106030606060606060606BB
S31508003EC00603FE004600C6008600860106030603B2
S31508003ED006060F0E000000000000000000000000AB
S31508003EE000000000F8020C030602060206000E0097
S31508003EF03C00F800E00380030007020602060606F7
S31508003F000C03F001000000000000000000000000A3
S31508003F1000000000FE076204610861086000600096
S31508003F206000600060006000600060006000600083
S31508003F306000F8010000000000000000000000001A
S31508003F40000000001E070C020C020C020C020C02F8
S31508003F500C020C020C020C020C020C020C020C02E3
S31508003F601801F0000000000000000000000000003A
S31508003F70000000000F070602040104010C010C01F1
S31508003F8088008800980098005000500070003000A3
S31508003F9020002000000000000000000000000000D3
S31508003FA000000000F70E6204420446044604640258
S31508003FB06402E402E4029C029C01980198018801CB
S31508003FC088008800000000000000000000000000D3
S31508003FD0000000009E070C01080118019000B000BF
S31508003FE06000200060006000D00090008801080191
S31508003FF004038E0700000000000000000000000017
S31508004000000000000F0F060404020C020801180144
S31508004010B800B000700060006000600060006000DA
S315080040206000F80100000000000000000000000029
S3150800403000000000FC070C02060302018001800054
S3150800404040004000200020001000180008040C045E
S315080040500402FE0300000000000000000000E00368
S315080040602000200020002000200020002000200042
S315080040702000200020002000200020002000200032
S31508004080200020002000E0030000000000000000DF
S3150800409000000400040008000800100010001000CA
S315080040A02000200040004000C00080008000000181
S315080040B000010002000200020004000000007C006B
S315080040C040004000400040004000400040004000E2
S315080040D040004000400040004000400040004000D2
S315080040E04000400040007C00000000006000900096
S315080040F008010000000000000000000000000000A9
S3150800410000000000000000000000000000000000A1
S315080041100000000000000000000000000000000091
S315080041200000000000000000000000000000000081
S315080041300000000000000000000000000000000071
S315080041400000000000000000FF0F0000000018003B
S3150800415060000000000000000000000000000000F1
S315080041600000000000000000000000000000000041
S315080041700000000000000000000000000000000031
S315080041800000000000000000000000000000F00130
S315080041900C030C030003E0031C030E0306030603CB
S315080041A08E0B7C0E000000000000000000000000DE
S315080041B0000008000E000C000C000C000C00CC01DE
S315080041C03C031C060C060C060C060C060C060C0218
S315080041D01C03E401000000000000000000000000CD
S315080041E00000000000000000000000000000F000D1
S315080041F08C018C01860106000600060006020C02E8
S315080042000C01F000000000000000000000000000A3
S3150800421000000002C0030003000300030003780344
S315080042208C030C03060306030603060306030403AE
S315080042308C07780100000000000000000000000064
S315080042400000000000000000000000000000E0017F
S31508004250180308020C060C06FC070C000C001804D0
S315080042601802E00100000000000000000000000045
S3150800427000000000C0036006300630003000FE0172
S3150800428030003000300030003000300030003000A0
S315080042903000FC01000000000000000000000000E3
S315080042A00000000000000000000000000000F00709
S315080042B0D8068C018C018C019801F8000C00FC00D2
S315080042C0CC03060306038E03F80000000000000076
S315080042D0000008000E000C000C000C000C00EC019D
S315080042E01C030C030C030C030C030C030C030C0338
S315080042F00C039E07000000000000000000000000FC
S3150800430000000000600060000000000040007C0023
S31508004310600060006000600060006000600060008F
S315080043206000FC0300000000000000000000000020
S3150800433000000000C001C001000000000001F001FB
S315080043408001800180018001800180018001800157
S31508004350800180018001CC007C0000000000000084
S31508004360000008000E000C000C000C000C008C036A
S315080043708C008C004C006C005C008C008C010C01DD
S315080043800C039E070000000000000000000000006B
S31508004390000040007C006000600060006000600073
S315080043A060006000600060006000600060006000FF
S315080043B06000FC0300000000000000000000000090
S315080043C000000000000000000000000000003707A1
S315080043D0EE066606660666066606660666066606E7
S315080043E06606FF0F00000000000000000000000045
S315080043F00000000000000000000000000000EE01C0
S315080044001C030C030C030C030C030C030C030C0316
S315080044100C039E07000000000000000000000000DA
S315080044200000000000000000000000000000F0008E
S3150800443098010C03060606060606060606060C037B
S315080044400C03F0000000000000000000000000005F
S315080044500000000000000000000000000000EE015F
S315080044601C030C060C060C060C060C060C060C03A4
S315080044701C03EC010C000C003E00000000000000CC
S3150800448000000000000000000000000000007802A4
S315080044908C030C030603060306030603060304033C
S315080044A08C03780300030003C00700000000000027
S315080044B000000000000000000000000000009F034C
S315080044C058063806180018001800180018001800B2
S315080044D01800FF00000000000000000000000000B7
S315080044E00000000000000000000000000000F003CB
S315080044F01C030C020C023800F000C003040304037A
S315080045008C03FC0100000000000000000000000011
S315080045100000000000002000200030003000FE01EE
S3150800452030003000300030003000300030003002FB
S315080045303002E0010000000000000000000000005A
S3150800454000000000000000000000000008028E03C2
S315080045500C030C030C030C030C030C030C030C03D5
S315080045609C07780100000000000000000000000021
S3150800457000000000000000000000000000001E0708
S315080045800C020801080118019000B000B000600094
S31508004590600020000000000000000000000000008D
S315080045A00000000000000000000000000000F70EF8
S315080045B06204460464026402EC029C0198019801B4
S315080045C0980108000000000000000000000000003C
S315080045D00000000000000000000000000000BC070A
S315080045E018011001B00060006000E00090000801AA
S315080045F008039E07000000000000000000000000FD
S3150800460000000000000000000000000000009E07F7
S3150800461008010801080190009000B00060006000E1
S3150800462060002000200024001C000000000000009C
S315080046300000000000000000000000000000FC016F
S315080046408401C400440060002000300018020802FB
S315080046500C03FC010000000000000000000000033D
S31508004660800080008000800080008000800080003C
S31508004670400020004000800080008000800080000C
S3150800468080008000800000030000400040004000D9
S31508004690400040004000400040004000400040000C
S315080046A040004000400040004000400040004000FC
S315080046B040004000400040004000000000000C00A0
S315080046C0100010001000100010001000100010005C
S315080046D020004000200010001000100010001000FC
S315080046E01000100010000C00000000001C0022043E
S315080046F0C204800300000000000000000000000063
S31508004700000000000000000000000000000000009B
S31508004710000000000000000000000000000000008B
S31508004720000000000000000000000000000000007B
S31508004730000000000000000000000000000000006B
S31508004740000000000000000000000000000000005B
S31508004750000000000000000000000000000000004B
S3150800476000000000C001C001C001C001C001C001B5
S31508004770C0018000800080008000800080008000EA
S3150800478000000000000000008001C003C003800193
S31508004790000000000000000000000000000000000B
S315080047A0E01CE01CF01E700E380718030801840090
S315080047B000000000000000000000000000000000EB
S315080047C000000000000000000000000000000000DB
S315080047D000000000000000000000000000000000CB
S315080047E000000000000020102010201020102010CB
S315080047F0FE7FFE7F10081008100810081008100821
S315080048001008FE7FFE7F080408040804080408044C
S31508004810000000000000000000000000000000008A
S31508004820000000010001C00760191031183118395D
S31508004830183938017001E001C0038007000F001D18
S31508004840003900311C311C310C310C11180DE007F0
S315080048500001000100010000000000000000000047
S315080048600000000000001C1036186308630C63047F
S315080048706304630263026301361D9C3780228063EA
S315080048804063406320632063306310221836081C97
S31508004890000000000000000000000000000000000A
S315080048A0000000000000F00098018C018C018C01CA
S315080048B08C018C00CC007800183E1C08360832089B
S315080048C063046304C304C303834306438E26781C28
S315080048D000000000000000000000000000000000CA
S315080048E01C003C003C003000300010000C000600A4
S315080048F000000000000000000000000000000000AA
S315080049000000000000000000000000000000000099
S315080049100000000000000000000000000000000089
S315080049200040002000100008000C000400060003E8
S31508004930000300038001800180018001800180015D
S315080049408001800100030003000300060006000C36
S3150800495000080010002000400000000000000000D1
S315080049600200040008001000300020006000C000AB
S31508004970C000C000800180018001800180018001A3
S3150800498080018001C000C000C000600060003000E7
S3150800499010000800040002000000000000000000EB
S315080049A000000000000000000000000180038003F2
S315080049B000011C713C79783DC0070001C007783DAD
S315080049C03C791C710001800380038001000000000F
S315080049D000000000000000000000000000000000C9
S315080049E000000000000000000000000000010001B7
S315080049F000010001000100010001FC7F0001000127
S31508004A000001000100010001000100000000000093
S31508004A100000000000000000000000000000000088
S31508004A200000000000000000000000000000000078
S31508004A300000000000000000000000000000000068
S31508004A40000000000000000000001C003C003C00C4
S31508004A503000300010000C000600000000000000C6
S31508004A600000000000000000000000000000000038
S31508004A7000000000000000000000FE7F00000000AB
S31508004A800000000000000000000000000000000018
S31508004A900000000000000000000000000000000008
S31508004AA000000000000000000000000000000000F8
S31508004AB000000000000000000000000000000000E8
S31508004AC0000000000000000018003C003C00180030
S31508004AD000000000000000000000000000000000C8
S31508004AE00040006000200030001000180008000C8C
S31508004AF00004000600020003000180018000C000D7
S31508004B0040006000200030001000180008000C006B
S31508004B10040006000200000000000000000000007B
S31508004B20000000000000C007600C3018183018306C
S31508004B3018200C600C600C600C600C600C600C603B
S31508004B400C600C601820183018303018600CC0073C
S31508004B500000000000000000000000000000000047
S31508004B6000000000000000018001F80180018001BA
S31508004B70800180018001800180018001800180011F
S31508004B80800180018001800180018001C003F81F37
S31508004B900000000000000000000000000000000007
S31508004BA0000000000000E007101C0818043004305C
S31508004BB00C300C3000300018000800040002000118
S31508004BC0800040002020102008200430FC1FFC1F15
S31508004BD000000000000000000000000000000000C7
S31508004BE0000000000000E003180E0C0C0C180C184E
S31508004BF00C180018000C0006C003000E0018001060
S31508004C00003000300C300C300C100C18180CE00377
S31508004C100000000000000000000000000000000086
S31508004C20000000000000000C000E000E000F800EB1
S31508004C30800E400E600E200E100E100E080E040E8A
S31508004C40040EFE7F000E000E000E000E000E000E73
S31508004C50C07F000000000000000000000000000007
S31508004C60000000000000F03FF03F100010001000A8
S31508004C7008000800C807280C18180810003000306B
S31508004C80003000300C300C3004180418080CF003FF
S31508004C900000000000000000000000000000000006
S31508004CA0000000000000800FC010203010301800EF
S31508004CB0180008000C008C0F6C183C301C600C6047
S31508004CC00C600C600C601860182030306018C00743
S31508004CD000000000000000000000000000000000C6
S31508004CE0000000000000F83FF83F1C100C080408FC
S31508004CF00404000400020002000100010001800013
S31508004D0080008000C000C000C000C000C000C00015
S31508004D100000000000000000000000000000000085
S31508004D20000000000000E007300C18180C300C30AA
S31508004D300C301C3038187008E007B007180E0C1C29
S31508004D40063806300630063006300C18180CE00314
S31508004D500000000000000000000000000000000045
S31508004D60000000000000E00318040C080C180610E8
S31508004D70063006300630063006380C3C1836F03158
S31508004D8000300018001800180C0C0C060C03F00173
S31508004D900000000000000000000000000000000005
S31508004DA000000000000000000000000000000000F5
S31508004DB0000000008001C003C0038001000000005D
S31508004DC000000000000000008001C003C00380014D
S31508004DD000000000000000000000000000000000C5
S31508004DE000000000000000000000000000000000B5
S31508004DF000000000C000C000000000000000000025
S31508004E00000000000000000000000000C000C00014
S31508004E108000800040004000000000000000000004
S31508004E20000000000020001000080004000600032F
S31508004E308001C0006000300018000C001800300027
S31508004E406000C0008001000300060004000800108E
S31508004E500020000000000000000000000000000024
S31508004E600000000000000000000000000000000034
S31508004E7000000000FE7F00000000000000000000A7
S31508004E80FE7F000000000000000000000000000097
S31508004E900000000000000000000000000000000004
S31508004EA00000000004000800100020006000C00098
S31508004EB0800100030006000C001800300018000CE2
S31508004EC0000600038001C0006000200010000800F2
S31508004ED004000000000000000000000000000000C0
S31508004EE000000000C0073018083008600C601C601D
S31508004EF01C601C600030001C000600018000800059
S31508004F0080008000000000008001C003C00380010B
S31508004F100000000000000000000000000000000083
S31508004F20000000000000C0076018103018200C2F81
S31508004F308C4D864CC64CC64C664C66446644662602
S31508004F4066266615CC1C0C40082018303018C00799
S31508004F500000000000000000000000000000000043
S31508004F60000000000001C001C001C001400160034B
S31508004F702003200320033006100610061006F80F3B
S31508004F80080C080C080C0C0C0418041806181F7CCE
S31508004F900000000000000000000000000000000003
S31508004FA0000000000000FE07181C183818301830DA
S31508004FB0183018301818180CF80718181830182050
S31508004FC01860186018601860186018301818FE0FF6
S31508004FD000000000000000000000000000000000C3
S31508004FE0000000000000C0276038103018200C4070
S31508004FF00C4004000600060006000600060006002F
S31508005000060006000C400C400C2018303018C0076B
S315080050100000000000000000000000000000000082
S31508005020000000000000FE03180E1818183018308B
S3150800503018301860186018601860186018601860D2
S31508005040186018601830183018101818180EFE0353
S315080050500000000000000000000000000000000042
S31508005060000000000000FE3F1830182018601840A5
S31508005070180018081808180CF80F180C180818083B
S315080050801800180018001840184018201830FE3F5D
S315080050900000000000000000000000000000000002
S315080050A0000000000000FE7F1870184018C0188025
S315080050B01800181018101818F81F181818101810B3
S315080050C018001800180018001800180018007E00AC
S315080050D000000000000000000000000000000000C2
S315080050E0000000000000C013701C101018100C20DF
S315080050F00C2004000600060006000600060006FC52
S31508005100063006300C300C30183018303008C0071E
S315080051100000000000000000000000000000000081
S315080051200000000000003F7E0C180C180C180C1824
S315080051300C180C180C180C180C18FC1F0C180C184A
S315080051400C180C180C180C180C180C180C183F7E98
S315080051500000000000000000000000000000000041
S31508005160000000000000F81F800180018001800116
S315080051708001800180018001800180018001800119
S315080051808001800180018001800180018001F81F73
S315080051900000000000000000000000000000000001
S315080051A0000000000000E07F00060006000600067A
S315080051B000060006000600060006000600060006B1
S315080051C000060006000600060006000600060006A1
S315080051D000060E060E038E01FC000000000000000B
S315080051E00000000000007E7C18181808180418062D
S315080051F01802180198019801D801B803380318074E
S315080052001806180E180C181C1818183018307EFCBA
S315080052100000000000000000000000000000000080
S315080052200000000000007E00180018001800180092
S3150800523018001800180018001800180018001800A0
S315080052401800180018001840184018201830FE3F9B
S315080052500000000000000000000000000000000040
S315080052600000000000001FF81C381C381C381C3CC5
S315080052703434343434343436743264326432643216
S315080052806431C431C431C431C430C43084309FFC65
S315080052900000000000000000000000000000000000
S315080052A00000000000001F7C1C103C103410341055
S315080052B074106410E410C410C41184118413041308
S315080052C004170416041E041C041C041C04181F18C6
S315080052D000000000000000000000000000000000C0
S315080052E0000000000000C003300C181808100C302D
S315080052F00C3006600660066006600660066006609A
S31508005300066006600C200C3008101818300CC00314
S31508005310000000000000000000000000000000007F
S31508005320000000000000FE0F1818183018601860FA
S3150800533018601860186018301818F80F1800180048
S3150800534018001800180018001800180018007E0029
S31508005350000000000000000000000000000000003F
S31508005360000000000000C003300C18180C100C30A8
S315080053700C20066006600660066006600660066029
S3150800538006600660E4612C331C321816300EC0071E
S31508005390004C007C003800000000000000000000FF
S315080053A0000000000000FE07181C183818301830D6
S315080053B0183018301818180CF80798031803180727
S315080053C018061806180E180C180C181C18187E78CB
S315080053D000000000000000000000000000000000BF
S315080053E0000000000000E027303818300C200C20A0
S315080053F00C000C0018007800E003800F001E00382F
S315080054000070006004600460086018303818C80F1F
S31508005410000000000000000000000000000000007E
S31508005420000000000000FC3F8C218461824182411B
S315080054308001800180018001800180018001800156
S315080054408001800180018001800180018001E007E0
S31508005450000000000000000000000000000000003E
S315080054600000000000003F7C0C100C100C100C1003
S315080054700C100C100C100C100C100C100C100C103E
S315080054800C100C100C100C100C1008083804E00353
S3150800549000000000000000000000000000000000FE
S315080054A00000000000003EF81820182018203010D0
S315080054B0301030103010600860086008E00CC00436
S315080054C0C004C00480038003800380030001000138
S315080054D000000000000000000000000000000000BE
S315080054E0000000000000DFF38661862186218C21FA
S315080054F00C218C238C138C138C134C1358125816AE
S31508005500580E380E380E380E300C100410041004DD
