S315080000002007002001010008BB290008F123000889
S31508000010B9290008B10B0008512F0008000000009C
S31508000020000000000000000000000000992A0008F7
S31508000030030C000800000000BD2900089B2A0008E0
S315080000401B0100081B0100081B0100081B01000812
S315080000501B0100081B0100081B0100081B01000802
S315080000601B0100081B0100081B0100081B010008F2
S315080000701B010008B50B0008C10B0008CD0B0008D2
S315080000801B0100081B0100081B0100081B010008D2
S315080000901B0100081B0100081B0100081B010008C2
S315080000A01B0100081B0100081B0100081B010008B2
S315080000B01B0100081B0100081B0100081B010008A2
S315080000C01B0100081B0100081B0100081B01000892
S315080000D01B010008312F00081B0100081B0100083E
S315080000E01B0100081B0100081B010008DFF80CD0E3
S315080000F000F09CFB004800478D38000820070020C8
S315080001000648804706480047FEE7FEE7FEE7FEE7A3
S31508000110FEE7FEE7FEE7FEE7FEE7FEE7FD2A000844
S31508000120ED000008202A04DB203A21FA02F000211B
S31508000130704721FA02F3D040C2F1200291400843E9
S315080001401946704740EA01039B0703D009E008C92E
S31508000150121F08C0042AFAD203E011F8013B00F87E
S31508000160013B521EF9D27047D2B201E000F8012BCA
S31508000170491EFBD270470022F6E710B513460A4619
S3150800018004461946FFF7F0FF204610BD30B5054670
S315080001902A460B4612F8010B13F8014B08B1A04288
S315080001A0F8D01CB1002802D06D1CF1E7284630BDF6
S315080001B00FB400B58DB010A909900B9000914FF0BF
S315080001C0FF300A9000200C900548069005480790D5
S315080001D06A4609A80F9900F0FBF90DB05DF814FB03
S315080001E0ED0500080B0600082DE9FF5FD2E901A717
S315080001F04FF00008916999461446DDF838B046462E
S3150800020001988847054659EA0B0005D009E0A16917
S31508000210761C019888470546216A2846884700289B
S31508000220F5D1681C03D05FEACA7005D015E04FF017
S31508000230FF3004B0BDE8F09F2068011D2160D0F8AA
S3150800024000800AE05FEACA7001D108F8015BA1697B
S31508000250761C7F1E019888470546002F1ADD681C04
S3150800026018D0B9F1000F0DD0E81705EBD060421190
S3150800027020F01F0059F822102A1A01209040014246
S31508000280E0D107E0BBF1000FDCD1216A2846884798
S315080002900028D7D0E16901988847BBF1000F07D13C
S315080002A0002E05DD5FEACA7002D1002188F8001029
S315080002B0A068B84203DDBBF1000F03D017B16FF099
S315080002C00100B6E73046B4E72DE9FE4F804681EADD
S315080002D00300C00F0C46009021F0004123F00045B2
S315080002E0B8EB0200A94105D24046214690461C4675
S315080002F00B46024623F00040104347D0270DC7F3AC
S315080003000A00C3F30A510290401A019040286BDA9A
S31508000310C3F3130040F4801B0098924620B10023D3
S31508000320D2EB030A63EB0B0B01985946C0F1400266
S31508000330504600F026F906460D4650465946019A9B
S3150800034000F02EF910EB08006141002487EA1152EB
S3150800035084EAE7731A4340D0009A62B3019A012AE5
S315080003604FEA075215DC001B61EB02014FF0004211
S3150800037002EA0752CDE90042001C41F580113246D7
S315080003802B4600F062F903B0BDE8F08F40462146DF
S31508000390F9E7001B61EB0201001C41F58013001808
S315080003A05B412018A2F5001747EB030140EAD57018
S315080003B0B6196D4111E06D084FEA360645EAC07573
S315080003C04FEA0752001B61EB0201001C41F5801140
S315080003D049084FEA30000019514132462B4603B00E
S315080003E0BDE8F04F00F022B9009801224000002332
S315080003F0D0EB020263EBE073009821464FEAE07403
S31508000400B8EB000061EB0401E9E783F000435BE722
S3150800041081F0004158E72DE9F04D81EA030404F024
S31508000420004B21F0004514464FF0000A23F0004126
S3150800043050EA050220D054EA01021DD0C5F30A5736
S315080004400246C5F31303C1F31300C1F30A5640F479
S31508000450801543F48013A7EB0608101BD64608F24E
S31508000460FD3873EB050002D308F1010801E0921884
S315080004705B41B8F1000F03DA00200146BDE8F08DB4
S3150800048000204FF48011064684460EE0171B73EBD6
S31508000490050705D3121B63EB050306434CEA010C5B
S315080004A049084FEA300092185B4150EA0107EDD13E
S315080004B052EA030012D082EA040083EA05010843DF
S315080004C005D0101BAB4106D20122002306E000220C
S315080004D04FF0004302E06FF0010253101AEB0600DA
S315080004E04CEB085110EB0A0041EB0B01BDE8F04D4F
S315080004F000F09CB830B50B460146002020220124A6
S3150800050009E021FA02F59D4205D303FA02F5491BD3
S3150800051004FA02F52844151EA2F10102F1DC30BDE9
S315080005202DE9F05F0546002092469B46884606461A
S31508000530814640241BE02846414647462246FFF7A7
S31508000540F1FD53465A46C01A914110D31146184632
S31508000550224600F016F82D1A67EB01084F46224688
S315080005600120002100F00DF817EB00094E41201E6E
S31508000570A4F10104DFDC484631462A464346BDE875
S31508000580F09F202A04DB203A00FA02F10020704787
S315080005909140C2F1200320FA03F3194390407047B3
S315080005A0202A06DBCB17203A41FA02F043EAE07329
S315080005B006E041FA02F3D040C2F120029140084316
S315080005C01946704702681144137801601846704747
S315080005D0D160044951610449116200211161114633
S315080005E000F03CB9C505000851080008426842B148
S315080005F0016811F8013B23B1521EC0E900121846E2
S3150800060070470121C160881E704742685AB1C368A5
S31508000610016843B983688B4205D0491E521CC0E95C
S315080006200012002070474FF0FF30704710B5141EB7
S3150800063073F1000408DA401C41F1000192185B418D
S315080006401A4301D120F0010010BD2DE9F04D924664
S315080006509B4611B1B1FA81F202E0B0FA80F220327B
S315080006609046FFF78EFF04460F4640EA0A0041EA25
S315080006700B0153465A46084313D0114653EA010064
S3150800068019D0C8F140025046FFF74CFD05460E4604
S31508000690504659464246FFF774FF084305D00120E5
S315080006A004E020463946BDE8F08D0020054346EAB9
S315080006B0E0762C4337430A986305E40AA0EB080062
S315080006C00022FD0A44EA47540A3002D500200146B2
S315080006D0E9E7010510196941DDE90845001969418D
S315080006E0BDE8F04DA2E72DE9FE4F81EA030404F0C8
S315080006F0004421F0004100944FF0000B23F0004322
S3150800070050EA01045ED052EA03045BD0C3F30A54EC
S31508000710C1F30A552C44A4F2F3340194A0FB025405
S31508000720C1F3130141F48011C3F3130343F4801397
S3150800073001FB024400FB034E840A970A44EA8154EB
S3150800074047EA8357A4FB076802958D0A05FB0785C8
S315080007504FEA932C04FB0C542705029D4FEA0658D2
S3150800076047EA1637B5EB08056EEB070C870E920EAF
S3150800077047EA811742EA8312A7FB0201B6EB0B018F
S3150800078064EB00042B0D43EA0C335E1844EB1C5053
S31508000790DA465146E7FB0201C5F313044FEA0B3369
S315080007A043EA14534FEA0432019C43EA0603A4F1D0
S315080007B00C040294009CCDE900B4FFF746FF03B091
S315080007C0BDE8F08F00200146F9E7C1F30A52C1F3EC
S315080007D0130140F2FF3341F480119A4202DA0020F5
S315080007E00146704740F233439A42A2F2334202DC92
S315080007F05242FFF797BCFFF7C4BE000030B5041E8F
S3150800080071F1000404DB4FF00044404264EB01013F
S31508000810141E73F1000405DB1C464FF000435242D8
S3150800082063EB0403994208BF904230BD064C074D5E
S3150800083006E0E06840F0010394E8070098471034A2
S31508000840AC42F6D3FFF756FC7C7300089C7300088D
S31508000850C0B24FF4F05100F097B900002DE9F34FFC
S315080008608BB04FF0000801F10C000C464FF0010B5D
S3150800087046460DF1080A01906269012101989047E0
S31508000880051E2DD0252D2CD0216A8847C0B1626956
S31508000890012101989047216A88470028F7D1411E0F
S315080008A062690198904700E0761CA1690B98884711
S315080008B0216A88470028F7D1E1690B988847DBE762
S315080008C0A1690B9888470746A84201D1761CD3E749
S315080008D0E1690B9888477F1C02D1B8F1000F6FD0E9
S315080008E046E1002762693D463946019890472A281D
S315080008F004D162690121019890470125DFF88492A5
S315080009006269012101989047A0F130010A290AD2AB
S315080009104F45E5DC07EB870100EB4107303FDFD4A5
S3150800092045F01005ECE7E90601D46FF000476C289E
S315080009300AD04C2814D0682815D06A280DD07428F7
S315080009401CD07A281AD01DE06269012101989047C7
S315080009506C2802D045F0040514E045F002050DE0C8
S3150800096045F020050AE06269012101989047682848
S3150800097002D045F0080505E045F4006562690121E5
S3150800098001989047C4E9015765283DD019DC5828D5
S315080009907AD00CDC452837D004DC252826D0412817
S315080009A031D131E046282FD047282CD12CE05B28BE
S315080009B077D0612828D063287CD0642823D15AE0D0
S315080009C0D0E06F2848D008DC66281DD067281BD0E1
S315080009D0692821D06E2816D127E0702845D07328BB
S315080009E068D0752847D078280DD14DE0A1690B98B5
S315080009F08847054625283FF469AFE1690B9888477B
S31508000A006D1C3FF46AAFB3E023466A466FF00100F7
S31508000A100B99AFF300809EE045F040006060A807A0
S31508000A2023464FF0000236D43EE0E8077FF447AF8E
S31508000A302068011D21600068290501D506701BE79D
S31508000A40290701D5068017E7A90703D5F117C0E9D5
S31508000A50006111E706600FE745F040006060A807EF
S31508000A6023464FF0080216D41EE040F60E0125EA8A
S31508000A700100606016E045F040006060A807234664
S31508000A804FF00A0207D40FE045F040006060A8075F
S31508000A9008D5234610226FF001000B99AFF30080AA
S31508000AA059E007E0234610226FF001000B99AFF3D7
S31508000AB0008050E04FF000094F464B46632802D0AD
S31508000AC05B2806D040E0E80601D40120A060012793
S31508000AD03AE062690121019890475E2805D14FF0F6
S31508000AE001096269494601989047216939B9002187
S31508000AF00A46534643F82120491C0829FADBB0B3B5
S31508000B00216969B9C11700EBD16253110AEB830158
S31508000B1022F01F02821A01200B68904003430B60E3
S31508000B2062690121019890475D28E8D1B9F1000F63
S31508000B3009D00020514651F82020D24341F8202000
S31508000B40401C0828F7DB02AB224600976FF001002D
S31508000B500B99FFF749FB00280CDA401C08D1BBF1BA
S31508000B60000F05D04FF0FF300DB0BDE8F08FFFE75E
S31508000B704046F9E7E90701D108F1010806444FF0B4
S31508000B80000B79E6CCCCCC0C7F2801D9002208E0F2
S31508000B90064A02EB5002C007127800D1120902F089
S31508000BA00F0201209040084070470000427200087A
S31508000BB0FEE70000014800F07BBA000008020020AA
S31508000BC0014800F075BA0000D8020020014800F07C
S31508000BD06FBA00009402002030B590F84050012406
S31508000BE0AC40C56B6C60046863604368102B03688F
S31508000BF003D099600068C26030BD9A600068C16021
S31508000C0030BD704770B54A484A4C40F6B83500784A
S31508000C1000286AD184F8C8006E10304600F058FBE8
S31508000C20454801F03BF945A002F01AFE47A002F03C
S31508000C3091F9304600F04CFB49A002F011FE4CA099
S31508000C4002F088F9304600F043FB4CA002F008FE9B
S31508000C504EA002F07FF950A002F002FE284600F0EE
S31508000C6037FB50A002F076F9304600F031FB51A070
S31508000C7002F0F6FD53A002F06DF9304600F028FBAD
S31508000C8055A002F0EDFD58A002F064F9304600F0D8
S31508000C901FFB63A002F0E4FD65A002F05BF9C82221
S31508000CA06C49254801F097F8304600F011FB6AA018
S31508000CB002F0D6FD00F05AF9304600F009FB1E484E
S31508000CC001F0ECF8684802F045F9304600F000FB00
S31508000CD066A002F0C5FD6AA002F03CF94FF4FA607E
S31508000CE000F0F6FA76A002F0BBFD7A4802F032F977
S31508000CF04FF47A66304600F0EBFAC82255490E489A
S31508000D0001F069F874A002F0ABFD304600F0E0FA95
S31508000D1000F0F2F8744802F01DF9284600F0D8FAF7
S31508000D2072A002F09DFD012084F8C80070BD000085
S31508000D300C000020E40000204C02002052454144EB
S31508000D405920464F522045535030310041542B4DBF
S31508000D50515454434C45414E3D300D0A00000000A5
S31508000D604D51545420444953434F4E4E0000000001
S31508000D7041542B43575141500D0A000057494649E3
S31508000D8020444953434F4E4E0000000041542B5215
S31508000D9053540D0A0000000052455345542045534C
S31508000DA05030310041542B43574D4F44453D310D8A
S31508000DB00A000000534554204553503031204D4F0A
S31508000DC04445000041542B43574155544F434F4E19
S31508000DD04E3D300D0A000000434C4F534520415507
S31508000DE0544F20434F4E4E0041542B434950534EC7
S31508000DF054504346473D312C382C22636E2E6E7470
S31508000E00702E6F72672E636E222C226E74702E738C
S31508000E106A74752E6564752E636E220D0A000000CD
S31508000E205345542054494D45205A4F4E450000001D
S31508000E3041542B43574A41503D22434C636F6E67DA
S31508000E407574222C227177657274797569220D0A78
S31508000E50000000001C00002057494649205345540D
S31508000E6020444F4E45000000847200085345542024
S31508000E704D515454205553455243464700000000EF
S31508000E8041542B4D515454434C49454E5449443DC5
S31508000E90302C2233303338337C7365637572656D55
S31508000EA06F64653D335C2C7369676E6D6574686F36
S31508000EB0643D686D6163736861317C220D0A0000C8
S31508000EC0534554204D51545420434C494E5449449B
S31508000ED00000000030730008534554204D51545407
S31508000EE02055524C00000000E8720008544F504943
S31508000EF043205355420000002DE9F041104D4FF4B0
S31508000F007A67012640F6B8380E4C384600F0E0F904
S31508000F100DA12046FFF73AF940B10CA002F0A0FC5B
S31508000F2000202870BDE8F04100F048B80BA002F098
S31508000F3097FC2E70404600F0CBF9FFF763FEE3E717
S31508000F400C000020E40000204F4B00004D51545483
S31508000F5020434F4E4E454354454400004D5154548A
S31508000F6020434F4E4E204641494C000010B50948D3
S31508000F7009A1FFF70BF930B108A002F071FCBDE832
S31508000F80104000F01BB809A002F06AFCFFF73AFE11
S31508000F90EDE70000E40000204F4B000057494649A2
S31508000FA020434F4E4E454354454400005749464951
S31508000FB0204E4F5420464F554E440000C821014844
S31508000FC0FFF7D9B81C00002072B6FEE710B590F8F6
S31508000FD021100022022905D00421816380F82020EF
S31508000FE0012010BD01680B6823F00E030B60016831
S31508000FF00B6823F001030B6090F84030C46B0121A5
S3150800100001FA03F3636080F8211080F82020104667
S3150800101010BD000010B590F821100024022903D055
S315080010200421816301243DE001680A6822F00E026A
S315080010300A6001680A6822F001020A601A4A016811
S31508001040914201D1012121E0174A1432914201D17E
S3150800105010211BE0144A2832914201D1891515E066
S31508001060114A3C32914201D189140FE00E4A50329E
S31508001070914202D14FF4803108E00B4A6432914222
S3150800108002D14FF4801101E04FF08071064A083A08
S315080010905160012180F82110002180F82010416B51
S315080010A001B18847204610BD08000240806B704792
S315080010B02DE9F05FC16B0C6801680B68D0F840C079
S315080010C0042202FA0CF2494DDFF824A1494E4A4F90
S315080010D0DFF828B1DFF828E122422CD05A072AD5B2
S315080010E00A68920603D40A6822F004020A600168B4
S315080010F0A94201D1042219E0514501D1402215E047
S31508001100B14202D14FF4806210E0B94202D14FF4E5
S3150800111080420BE0594502D14FF4802206E0714522
S3150800112002D14FF4800201E04FF080622F4908395E
S315080011304A60C16A3BE04FF0020808FA0CF818EA60
S31508001140040F4FF000094FF0010235D05FEA8378AB
S3150800115032D50B689B0605D40B6823F00A030B608F
S3150800116080F821200168A94201D1022219E05145DF
S3150800117001D1202215E0B14202D14FF4007210E0ED
S31508001180B94202D14FF400520BE0594502D14FF44F
S31508001190003206E0714502D14FF4001201E04FF02B
S315080011A00072124908394A6080F82090816A00293D
S315080011B01AD0BDE8F05F0847082505FA0CF5254260
S315080011C012D01B0710D50B6823F00E030B6090F89E
S315080011D04010C36B02FA01F15960826380F821203E
S315080011E080F82090016BE2E7BDE8F09F0800024016
S315080011F01C000240300002404400024058000240F1
S315080012006C00024030B528B308C8134914221944A3
S31508001210B1FBF2F18900C16310498163022141776C
S315080012201A6843F6F0718A43D0E900142143D0E9DD
S3150800123002452C43214304692143446921438469B7
S315080012402143114319600021416301224277017746
S31508001250084630BD012030BDF8FFFDBF0000024042
S3150800126070B5044690F82000002501280CD001200E
S3150800127084F8200094F821600020012E06D084F816
S3150800128020000225284670BD022070BD022684F87B
S315080012902160A0632068066826F0010606602046DD
S315080012A0FFF79AFCE06A00282068016802D041F03E
S315080012B00E0106E021F0040101602068016841F092
S315080012C00A0101602068016841F001010160D9E75F
S315080012D070B5044600F004F90546601C02D00448BF
S315080012E00078044400F0FCF8401BA042FAD370BD15
S315080012F0000000202DE9F84FDFF8B8910024A9F185
S31508001300040B23460F2709F1040AABF1040EC9E0C2
S315080013100125A5402A40AA427DD1674ED1F804C0CE
S31508001320ACEB0608B44532D014DCBCF1030F3AD056
S3150800133009DCBCF1000F2AD0BCF1010F1CD0BCF1AE
S31508001340020F31D11DE0BCF1110F17D0BCF1120FFD
S315080013502AD119E0B8F5881F19D006DCB8F5803F00
S3150800136015D0B8F5801F1FD111E0B8F5001F0ED0B3
S31508001370B8F5041F18D10AE0CB6815E0CB681B1D29
S3150800138012E0CB6808330FE0CB680C330CE08B68AF
S315080013902BB1012B4FF0080303D0456104E0042369
S315080013A002E0056100E00023FF2A01D8064601E0B5
S315080013B000F104064FEA840501D9A5F12005D6F8FF
S315080013C0008007FA05FC28EA0C0803FA05F548EA3E
S315080013D00508C6F800804D68ED0062D5374DAE6940
S315080013E046F00106AE61AD6924F0030605F0010575
S315080013F00095334D06EB050CDCF80850A607360FAA
S3150800140007FA06F825EA0805DFF8B880404503D14B
S315080014104FF0000817E044E0DFF8AC80404502D101
S315080014204FF001080FE0DFF8A480404502D14FF0E5
S31508001430020808E0DFF89880404502D14FF003081B
S3150800144001E04FF0040808FA06F848EA0508CCF85F
S3150800145008804D68D9F80060ED024D4601D516435F
S3150800146000E096432E604D68DAF80060AD025546F6
S3150800147001D5164300E096432E604D68DBF8006000
S31508001480AD035D4601D5164300E096432E604D68D0
S31508001490DEF80060ED03754601D5164300E0964375
S315080014A02E60641C0D682A46E5407FF431AFBDE81E
S315080014B0F88F0000080401400000111000100240D7
S315080014C00000014000080140000C014000100140E6
S315080014D0001401400AB1016170470904FBE70000E6
S315080014E001488068704700000000002002488168B3
S315080014F0027811448160704700000020074810B543
S31508001500016841F010010160032000F079F800201D
S3150800151000F006F800F024F8002010BD0020024074
S3150800152070B50D4D04464FF47A712878B1FBF0F08A
S315080015300A490968B1FBF0F000F039FC48B9102CEB
S3150800154007D200222146501E00F03AF800206C60AF
S3150800155070BD012070BD00000000002014000020AE
S315080015600E4808B5816941F001018161816901F080
S3150800157001010091C16941F08051C161C06900F063
S3150800158080500090052000F03BF80548416821F09E
S31508001590E06141F00071416008BD000000100240A2
S315080015A000000140002809DB00F01F0201219140DC
S315080015B04009800000F1E020C0F8001170470000E3
S315080015C0F0B40E4B1B680C46C3F30223C3F10705A0
S315080015D0042D00D90425191D072901D2002300E08E
S315080015E0DB1E012606FA05F1491E214099409E4058
S315080015F0761E16403143F0BC01F0BCBC0CED00E091
S31508001600064900F0070208684FF6FF03184040EA4B
S315080016100220034A10430860704700000CED00E002
S315080016200000FA052DE9F0470F46050061D0434E44
S31508001630306800F00700B84209D2306820F0070089
S3150800164038433060306800F00700B84251D1286846
S315080016503B4C810712D5400703D5606840F4E0602B
S3150800166060602878000703D5606840F460506060C1
S315080016706068A96820F0F000084360602878C00711
S3150800168028D06868012810D02168022810D0890758
S3150800169000292EDA616821F0030101436160FFF732
S315080016A01FFF804641F288390DE021688903EFE77C
S315080016B08901EDE7FFF714FFA0EB0801494502D9B8
S315080016C00320BDE8F0876068696800F00C00B0EB9D
S315080016D0810FEFD1306800F00700B8420BD93068A7
S315080016E020F0070038433060306800F00700B84241
S315080016F001D00120E5E72878400705D56068E96844
S3150800170020F4E060084360602878000706D5606822
S31508001710296920F4605040EAC100606000F038F89A
S315080017206168084AC1F30311515CC840064908605C
S3150800173006480068FFF7F4FE0020C2E700200240D2
S31508001740001002402A72000814000020040000203D
S315080017500448054900684968044AC1F30221515CF6
S31508001760C840704714000020001002403A72000872
S315080017700448054900684968044AC1F3C221515C16
S31508001780C840704714000020001002403A72000852
S315080017900E4A51680E4801F00C03042B11D0082B91
S315080017A00FD10C48C1F38343C903C05C0AD55168FD
S315080017B0084AC1F34041921E515C054A5043B0FBAA
S315080017C0F1F0704704494843704700000010024092
S315080017D000127A00FE38000800093D002DE9F84F8E
S315080017E0040070D02078C04DC00749D06868C0F39F
S315080017F08100012807D06868C0F38100022809D152
S315080018006868C00306D52868800339D5606800284B
S31508001810E7D035E06068B0F5803F0BD010B1B0F581
S31508001820A02F11D0286820F480302860286820F47A
S31508001830802002E0286840F480302860606890B113
S31508001840FFF74EFE06460AE0286840F48020286026
S31508001850F0E700BFFFF744FE801B642873D82868AA
S315080018608003F7D50CE0FFF73BFE064605E000BF10
S31508001870FFF736FE801B6428F0D828688003F7D463
S3150800188020789A4E80074FF001094FF0000839D5A5
S31508001890686810F00C0F07D06868C0F3810002284A
S315080018A009D16868C00306D42868800714D520695A
S315080018B0012808D110E02069B0B1C6F80090FFF7FA
S315080018C00FFE074605E00AE1FFF70AFEC01B0228DD
S315080018D0C4D828688007F7D52868616920F0F80019
S315080018E040EAC10028600DE0C6F80080FFF7F8FD61
S315080018F0074604E0FFF7F4FDC01B022823D8286832
S315080019008007F7D4207800072CD57948A169D9B182
S31508001910C0F80090FFF7E4FD074604E0FFF7E0FD96
S31508001920C01B02280FD8686A8007F7D571484FF49C
S31508001930FA510068B0FBF1F0009000BF0098411E14
S315080019400091FAD20EE080E0C0F80080FFF7C8FDEB
S31508001950074604E0FFF7C4FDC01B022875D8686A6D
S315080019608007F7D42078400760D5E8690027C000CB
S3150800197008D4E86940F08050E861E869012700F07A
S31508001980805000905C480168C90513D401688346F5
S3150800199041F480710160FFF7A3FD824606E000BFAF
S315080019A0FFF79EFDA0EB0A0064284ED8DBF800007E
S315080019B0C005F5D5E06801280AD008B1052813D076
S315080019C0286A20F001002862286A20F0040002E054
S315080019D0286A40F001002862E06841F2883B98B125
S315080019E0FFF77EFD82460BE0286A40F00400286275
S315080019F0EEE700BFFFF774FDA0EB0A0159455AD878
S31508001A00286A8007F6D50CE0FFF76AFD824605E0EE
S31508001A10FFF766FDA0EB0A0159454CD8286A8007EE
S31508001A20F6D41FB1E86920F08050E861E06988B310
S31508001A306968C1F38101022944D00228C6F860808A
S31508001A4004D0FFF74DFD044638E034E0FFF748FDC3
S31508001A50074604E0FFF744FDC01B02282BD8286878
S31508001A608001F7D4206AB0F5803F05D16868A1687F
S31508001A7020F4003008436860D4E90801084369681F
S31508001A8021F4741108436860C6F86090FFF728FDD2
S31508001A90044606E025E000BFFFF722FD001B0228EA
S31508001AA009D828688001F7D51BE000BFFFF718FDA5
S31508001AB0001B022802D90320BDE8F88F2868800198
S31508001AC0F4D40EE00128F7D06868226A00F4803161
S31508001AD0914204D1616A00F47010884201D0012055
S31508001AE0EAE70020E8E70000001002400000424252
S31508001AF080044242140000200070004070B50400C3
S31508001B0009D0606A002540B125616561A56294F82F
S31508001B10510040B10CE0012070BD6068B0F5827FCD
S31508001B20F4D0E561F2E784F85050204600F040F81A
S31508001B30022084F851002068016821F04001016004
S31508001B40A088218900F4827001F404410843A18920
S31508001B5001F400610843217C01F002010843217D5C
S31508001B6001F001010843218B01F400710843217F2C
S31508001B7001F03801084394F8201001F08001084369
S31508001B80218D01F40051084321680860A0690421E9
S31508001B9001EA1040216848602068C16921F40061A3
S31508001BA0C1616565012084F85100002070BD000000
S31508001BB070B586B0002506460095019502950395F1
S31508001BC000681A4988422ED11949886940F480501C
S31508001BD08861886900F480500490886940F00400A0
S31508001BE088618869694600F004000490A020009086
S31508001BF002200190032003900E48FFF77BFB0F4C51
S31508001C000D4820601020C4E901058020C4E90305B9
S31508001C106561A5612046E561FFF7F4FA08B1FFF7AB
S31508001C20D3F9B464666206B070BD000000300140A6
S31508001C30001002400008014030000240080200205F
S31508001C402DE9F84F044690F85000002698461546A8
S31508001C508A4601280CD0012784F85070FFF740FC0B
S31508001C60814694F85100B346012804D002269AE02A
S31508001C700220BDE8F88FBAF1000F6FD0002D6DD0A5
S31508001C80032084F85100C4F854B0C4F830A0A586DF
S31508001C90E586C4F838B0A4F83CB0A4F83EB0C4F859
S31508001CA044B0C4F840B0A068B0F5004F09D1206828
S31508001CB0016821F0400101602068016841F4804113
S31508001CC0016020680168490603D4016841F04001B3
S31508001CD00160E068B0F5006F606803D058B3012D65
S31508001CE029D049E008B1012D1FD1206B2168008851
S31508001CF0C86006E020688168890709D5216B0988CC
S31508001D00C160206B801C2063E08E401EE0860CE0DC
S31508001D10FFF7E6FBA0EB0901414503D3B8F1FF3F06
S31508001D2003D006E0B8F1000F03D0E08E0028E1D119
S31508001D3025E0032635E0206B21680078087306E065
S31508001D402068816889070AD5216B09780173206B99
S31508001D50401C2063E08E401EE0860DE01FE0FFF782
S31508001D60BFFBA0EB0901414503D3B8F1FF3F03D000
S31508001D70DFE7B8F1000FDCD0E08E0028E0D14A4654
S31508001D804146204600F01BFE08B120206065A06889
S31508001D9018B92068C16880680090606D08B101268E
S31508001DA001E084F8517084F850B0304661E710B508
S31508001DB0401EB0F1807F01D3012010BD4FF0E02412
S31508001DC060610F21601701F0D5F80020A061072097
S31508001DD02061002010BD38B5044690F8420020283E
S31508001DE001D0022038BD61B15AB10120206300201C
S31508001DF06063204601F018F80028F3D1216B012909
S31508001E0001D0012038BD21680A6849680091216817
S31508001E100C3151E8002F42F0100241E80023002B54
S31508001E20F5D138BD10B5174A01688AB0914227D155
S31508001E3000F07EF8144800684068C0F1C800C2B2D5
S31508001E401248007800281BD010491148FEF77AF985
S31508001E504FF6FF742D23802214210020009400F0F1
S31508001E60F0FA03AA0BA10A48FEF7A2F900200C21F2
S31508001E700094CDE90110034603AA142100F086FC5C
S31508001E800AB010BD00380140940200201C00002052
S31508001E90E4000020253233730000000070B50446C4
S31508001EA020680C3050E8001F21F4907140E80012B9
S31508001EB0002AF5D12068143050E8001F21F00101EE
S31508001EC040E80012002AF5D1206B012809D12068C4
S31508001ED00C3050E8001F21F0100140E80012002ADB
S31508001EE0F5D1206840694FF00005400615D52068F1
S31508001EF0143050E8001F21F0400140E80012002A83
S31508001F00F5D1E06B48B14563E06BFFF75FF820B1A8
S31508001F10E06BFFF7CBF8202806D0E585202084F86B
S31508001F2042002563002070BD10206064032070BD48
S31508001F3010B504460068406994F84110C0F3C01013
S31508001F40212911D180B12068143050E8001F21F0F2
S31508001F50800140E80012002AF5D1A06B08B1FFF70E
S31508001F6035F8204600F094FE2068406994F842103F
S31508001F70C0F38010222911D180B12068143050E8AE
S31508001F80001F21F0400140E80012002AF5D1E06B5D
S31508001F9008B1FFF71BF8204600F053FE002010BDDD
S31508001FA070470000F8B5016804460868CA684B69B6
S31508001FB010F00F0F4FF000055AD003F0010602F497
S31508001FC09077374365D0C10705D0D10503D5616C35
S31508001FD041F001016164410705D5D90703D0616C59
S31508001FE041F002016164810705D5D90703D0616C08
S31508001FF041F004016164010707D502F0200131436D
S3150800200003D0616C41F008016164616C00293BD022
S31508002010800604D5900602D5204600F047FE2068C3
S315080020204069616CC0F3801001F008010143204645
S315080020302BD000F006FE20684069400621D52068AE
S31508002040143050E8001F21F0400140E80012002A31
S31508002050F5D1E06BA8B16D494163E06BFEF7DAFF95
S31508002060002811D0E06B416B01B0BDE8F04008478D
S3150800207083060ED593060CD52046BDE8F84000F039
S3150800208015BE2046FFF78CFFF8BDFFF789FF65648C
S31508002090F8BD266B2023012E7CD1C6067AD5D60636
S315080020A078D508684868009048694FF002064006E7
S315080020B040D5E16B086840680004000CE8D0A28DA2
S315080020C08242E5D9E085886920282DD020680C3021
S315080020D050E8001F21F4807140E80012002AF5D16B
S315080020E02168143151E8000F20F0010041E8000290
S315080020F0002AF5D12068143050E8001F21F040016D
S3150800210040E80012002AF5D184F842302563206899
S315080021100C3050E8001F21F0100140E80012002A98
S31508002120F5D1E06BFEF752FF6663A08DE18D401A8C
S3150800213081B22AE0A08DE18D401A81B2E08D002897
S31508002140A6D00029A4D022680C3252E8000F20F449
S31508002150907042E80007002FF5D12068143050E847
S31508002160002F22F0010240E80027002FF5D184F85D
S315080021704230256320680C3050E8002F22F0100208
S3150800218040E80023002BF5D166632046FFF74AFE98
S31508002190F8BDFFE705062BD5150629D594F84100A5
S315080021A02128F5D1A068B0F5805F01D12069B0B1CA
S315080021B0206A411C2162216800784860E08C401E34
S315080021C00004000CE084E3D12068C16821F0800196
S315080021D0C1602068C16841F04001C160D8E7206A43
S315080021E00088C0F308004860206A801C2062E5E782
S315080021F04006CDD55006CBD5CA68204622F0400207
S31508002200CA6084F8413000F0F2F8C1E7452B0008AF
S3150800221070B5040004D094F84100002510B106E01A
S31508002220012070BD84F84050204600F023F8242091
S3150800223084F841002068C16821F40051C160204635
S3150800224000F096FD2068016921F49041016120683B
S31508002250416921F02A0141612068C16841F40051B1
S31508002260C1606564202084F8410084F842006563F3
S31508002270002070BDF0B585B0002406460094019490
S315080022800294039400682D49884254D12C488169E8
S3150800229041F480418161816901F480410491816939
S315080022A041F0040181618069264D00F00400049024
S315080022B04FF40070009002200190032003906946B5
S315080022C02846FFF717F82815CDE900046946284679
S315080022D00294FFF70FF81D4D1B488027C5E9000437
S315080022E0C5E902472C616C61AC612846EC61FEF7D2
S315080022F089FF08B1FEF768FEF5636E62134D124852
S315080023004435143801C5102091C5104845F81049C0
S3150800231044306C61AC61EC61FEF774FF08B1FEF7FE
S3150800232053FEB5630122114625206E62FFF748F970
S315080023302520FFF737F905B0F0BD00000038014049
S315080023400010024000080140580002409402002094
S31508002350704770472DE9F843044690F841001F4638
S3150800236016460D46202802D00220BDE8F8837DB126
S3150800237076B100206064212084F84100FFF7B0F8A8
S31508002380A6848046E684A068B0F5805F02D003E0A4
S315080023900120EAE7206910B12E4600250EE0002646
S315080023A00CE08021204600F087FDA0B9AEB116F8F2
S315080023B0010B21684860E08C401EE084E08C4346AF
S315080023C04FF0000200970028EBD14FF0400120465D
S315080023D000F072FD30B10320C7E735F8020BC0F3F1
S315080023E00800E6E7202084F841000020BDE7704792
S315080023F0FEE72DE9F04104461D4616460F462A20FB
S3150800240000F0ECF9204600F0DEF9304600F0DBF982
S315080024102B2000F0E3F9384600F0D5F9284600F0FD
S31508002420D2F9BDE8F0412C2000F0D8B910B5144611
S315080024300B460246FFF7DDFF2046BDE8104000F0D8
S31508002440C2B92DE9F04780461F46581E83B2164684
S31508002450501E82B20C464046DDF82090FFF7C9FFB1
S315080024600AE0454604E0484600F0ADF96D1CADB2F9
S31508002470B542F8D3641CA4B2BC42F2D3BDE8F087D7
S3150800248010B57E4C206820F480502060206820F427
S31508002490004020606420FEF71BFF206840F40040DF
S315080024A020606420FEF714FF206840F48050206006
S315080024B06420FEF70DFF112000F090F97820FEF752
S315080024C007FFB12000F08AF9052000F097F93C20B3
S315080024D000F094F93C2000F091F9B22000F07EF962
S315080024E0052000F08BF93C2000F088F93C2000F02C
S315080024F085F9B32000F072F9052000F07FF93C2039
S3150800250000F07CF93C2000F079F9052000F076F916
S315080025103C2000F073F93C2000F070F9B42000F07C
S315080025205DF9032000F06AF9C02000F057F9282069
S3150800253000F064F9082000F061F9042000F05EF963
S31508002540C12000F04BF9C02000F058F9C22000F075
S3150800255045F90D2000F052F9002000F04FF9C3208C
S3150800256000F03CF98D2000F049F92A2000F046F9E0
S31508002570C42000F033F98D2000F040F9EE2000F079
S315080025803DF9C52000F02AF91A2000F037F936205F
S3150800259000F024F9C02000F031F9E02000F01EF91F
S315080025A0042000F02BF9222000F028F9072000F07B
S315080025B025F90A2000F022F92E2000F01FF9302014
S315080025C000F01CF9252000F019F92A2000F016F968
S315080025D0282000F013F9262000F010F92E2000F02C
S315080025E00DF93A2000F00AF9002000F007F9012059
S315080025F000F004F9032000F001F9132000F0FEF8BA
S31508002600E12000F0EBF8042000F0F8F8162000F0BE
S31508002610F5F8062000F0F2F80D2000F0EFF82D206E
S3150800262000F0ECF8262000F0E9F8232000F0E6F8A0
S31508002630272000F0E3F8272000F0E0F8252000F036
S31508002640DDF82D2000F0DAF83B2000F0D7F800205E
S3150800265000F0D4F8012000F0D1F8042000F0CEF8FC
S31508002660132000F0CBF83A2000F0B8F8052000F067
S31508002670C5F8BDE81040292000F0B0B80C0C0140A0
S315080026802DE9FF4F81B00446DDF83C9000904FEAF3
S3150800269059074FF00008780700D0012000EBD70053
S315080026A000FB09FB203AD0B20390029802994844ED
S315080026B0401E83B2E019401E82B22046FFF799FEFB
S315080026C0002553E0B9F10C0F2AD0B9F1100F2ED01E
S315080026D0B9F1180F2ED0B9F1200F49D1274903981F
S315080026E001EB8010002610F805A0109800284FF07E
S315080026F0010000FA06F000EA0A0022D020B12046BE
S31508002700049A0299FFF792FE641C0098A4B2201A54
S31508002710B84225D10298009C401C80B2029023E062
S315080027200398174900EB400001EB8000DAE71549EA
S31508002730039803E00398144900EB400001EB0010EE
S31508002740D0E708B1049800E00E9800F03CF808F1CC
S315080027500100C0B2B0FBF7F1804607FB118050B10B
S31508002760761CF6B2082EC0D36D1CADB25D45A9D352
S3150800277005B0BDE8F08F4FF00008F5E742550008B0
S315080027800E390008823D0008724300082DE9FE4F05
S315080027909946DDE90D6714468A460546DDF8308018
S315080027A00CE0CDF800804B4651462846CDE9016736
S315080027B0FFF766FF05EB560085B2641C2278002AEF
S315080027C0EFD1BDE8FE8F10B50446000A00F016F8F2
S315080027D0E0B2BDE8104000F011B8000010B5064C94
S315080027E0216821F48041216000F008F8206840F44F
S315080027F08040206010BD00000C0C014031B5084C2B
S31508002800206820F4005020604FF6FF7301226946C5
S315080028100448FFF715FA206840F40050206038BDD8
S315080028200C0C0140B0010020114808B5416941F07F
S31508002830010141614069002200F001000090114643
S315080028400D20FEF7BDFE0D20FEF7ACFE0022114658
S315080028500E20FEF7B5FE0E20FEF7A4FE0022114656
S315080028600F20FEF7ADFEBDE808400F20FEF79ABE22
S31508002870001002402DE9F04385B000242848009452
S31508002880019402940394816941F020018161816970
S3150800289001F020010491816941F004018161816997
S315080028A001F004010491816941F0080181618069A0
S315080028B0DFF8708000F008000490012210214046DD
S315080028C0FEF708FEDFF860904FF47047012239469C
S315080028D04846FEF7FFFD002220214846FEF7FAFD8E
S315080028E0102001250326CDE90005CDE902466946F3
S315080028F04046FEF7FFFC00970396CDE9015469466A
S315080029004846FEF7F7FC2020CDE900050220CDE970
S31508002910024069464846FEF7EDFC05B0BDE8F0837F
S315080029200010024000080140000C0140104810B594
S315080029300E4901604FF48271416000218160C160D7
S315080029404FF400720161C0E905121022C0E907219F
S31508002950416281620A21C162FFF7D0F8002803D0DC
S31508002960BDE81040FEF730BB10BD00000030014046
S31508002970B00100200E4810B50C4901604FF4E13152
S315080029804160002181600C22C160C0E904128161A6
S31508002990C161FFF73DFC08B1FEF716FBBDE8104024
S315080029A0C82204490248FFF716BA00000038014059
S315080029B04C0200201C000020FEE7FEE7704738B5F1
S315080029C00B46009204460022802100F009F80028F0
S315080029D004D0606D40F020006065032038BD00001B
S315080029E02DE9F8431E46914688460446089DFEF79B
S315080029F077FD401B351AFEF773FD07462548006824
S31508002A00C0F3CB30684338E0701C37D0FEF768FD5A
S31508002A10C01BA84203D215B1009860B32CE0206809
S31508002A20416821F0E00141606068B0F5827F0BD112
S31508002A30A068B0F5004F02D0B0F5806F04D12068C9
S31508002A40016821F040010160A06AB0F5005F09D174
S31508002A502068016821F4005101602068016841F48A
S31508002A6000510160012084F85100002084F85000CC
S31508002A700320BDE8F8830025401E00902068816881
S31508002A8038EA010004D000214945BDD10020F0E70D
S31508002A900121F9E7140000207047FEF727BD30B57D
S31508002AA08FB028216846FDF766FB14210AA8FDF7B2
S31508002AB062FB01210804CDE90010002402940225D6
S31508002AC00491CDE907504FF4E01009906846FEF7E7
S31508002AD085FE08B172B6FEE70F20CDE90A054FF468
S31508002AE08060CDE90C4002210AA80E94FEF79AFDF3
S31508002AF0002801D072B6FEE70FB030BD0D48016858
S31508002B0041F00101016041680B4A114041600168CA
S31508002B100A4A11400160016821F480210160416878
S31508002B2021F4FE0141604FF41F0181600449C0038E
S31508002B3008607047001002400000FFF8FFFFF6FE2D
S31508002B4008ED00E010B5406A0021C185C184FFF791
S31508002B5027FA10BD70B5446A2068406994F8411098
S31508002B60C0F3C0100025212904D118B1E5842046F8
S31508002B7000F08EF82068406994F84210C0F380107F
S31508002B80222904D118B1E585204600F05AF8606C70
S31508002B9040F0100060642046FFF702FA70BD10B5D9
S31508002BA00146406A096809684FF0000289062ED472
S31508002BB0C28501680C3151E8003F23F4807341E86F
S31508002BC00034002CF5D10168143151E8003F23F098
S31508002BD0010341E80034002CF5D10168143151E8AD
S31508002BE0003F23F0400341E80034002CF5D12021B2
S31508002BF080F84210016B012909D101680C3151E8AE
S31508002C00003F23F0100341E80034002CF5D142635D
S31508002C10016B012902D0FFF79BFB10BD818DFFF7E1
S31508002C2001F910BD10B5406A01214163016B012904
S31508002C3002D0FFF78EFB10BD818D4908FFF7F2F829
S31508002C4010BD01680C3151E8002F22F4907241E85A
S31508002C500023002BF5D10168143151E8002F22F02A
S31508002C60010241E80023002BF5D1016B012909D1A6
S31508002C7001680C3151E8002F22F0100241E80023C8
S31508002C80002BF5D1202180F84210002101637047FE
S31508002C9001680C3151E8002F22F0C00241E80023F8
S31508002CA0002BF5D1202180F84110704708B590F81F
S31508002CB04210222901D0022008BD82684FF48053B1
S31508002CC09A4201D1016921B1816A9A421BD04AB15F
S31508002CD00AE00268816A5268C2F308020A80816AB9
S31508002CE0891C08E0026972B10268526802F07F0224
S31508002CF00A70816A491C8162C18D491E0904090C42
S31508002D00C18503D01BE002685268F1E70168CA680A
S31508002D1022F02002CA600168CA6822F48072CA607A
S31508002D2001684A6922F001024A61202180F84210AE
S31508002D3000214163026B012A03D0FFF709FB00203B
S31508002D4008BD016301680C3151E8002F22F010021A
S31508002D5041E80023002BF5D101680A68D20602D59E
S31508002D600A6849680091818DFFF75CF8E7E700007B
S31508002D7070B5044600680169E26821F440511143C0
S31508002D8001612169A0680843616908432168CA6826
S31508002D9041F20C639A430243CA6020684169A269FA
S31508002DA021F44071114341611E492068884202D1CD
S31508002DB0FEF7DEFC01E0FEF7CBFC00EBC00101EB01
S31508002DC00012606864218000B2FBF0F3B3FBF1F3F4
S31508002DD06FF018067343B2FBF0F5B2FBF0F605EB9D
S31508002DE08305322303EB0515B5FBF1F5B6FBF1F6C2
S31508002DF005F0F00505EB0615B2FBF0F6B2FBF0F0B0
S31508002E00B0FBF1F06FF01802504306EB800003EBBD
S31508002E100010B0FBF1F0216800F00F00284488602C
S31508002E2070BD00000038014038B5816204468285CD
S31508002E30002013466064222284F84220E56B1B4A70
S31508002E40AA62E56B1A4AEA62E56B1A4A2A63E26BDA
S31508002E5050630A462168E06B091DFEF701FA2068EF
S31508002E60016840680090206948B120680C3050E835
S31508002E70001F41F4807140E80012002AF5D120684D
S31508002E80143050E8001F41F0010140E80012002A02
S31508002E90F5D12068143050E8001F41F0400140E8A1
S31508002EA00012002AF5D1002038BD00009F2B00082B
S31508002EB0252C0008552B00082DE9F04198461746A1
S31508002EC00E460446069D27E0681C25D02DB1FEF760
S31508002ED007FBA0EB0800A8421ED920680C3050E872
S31508002EE0001F21F4D07140E80012002AF5D12068AD
S31508002EF0143050E8001F21F0010140E80012002AB2
S31508002F00F5D1202084F8410084F84200002084F896
S31508002F1040000320BDE8F0812068006836EA00001A
S31508002F2004D00020B842CFD00020F3E70120F9E70B
S31508002F3010B50548FFF736F8BDE81040C822034922
S31508002F400148FEF748BF00004C0200201C00002084
S31508002F50FEE700000FB4054B10B503A9044A029812
S31508002F6000F0DAF810BC5DF814FB000049380008D8
S31508002F70180000200907090E002804DB00F1E020EC
S31508002F8080F80014704700F00F0000F1E02080F888
S31508002F90141D704702E008C8121F08C1002AFAD19A
S31508002FA070477047002001E001C1121F002AFBD1BB
S31508002FB0704700002DE9FF5FDDE90220010DDDF80D
S31508002FC038B0024318D044F61050A1F2FF314143FD
S31508002FD00D140F98012820D0A5EB0B00401C5FEAC2
S31508002FE0000A4FF00004474EDFF81C91A0465046F1
S31508002FF016D5CAF1000728E00F98012443A2012834
S3150800300008D0002100980F9BC0E90021C0E90243BF
S31508003010BDE8FF9F6FEA0B01F4E7CBF10000DEE79E
S31508003020074612E0F80707D0224633464046494687
S31508003030FDF759FB8046894622463346104619460F
S31508003040FDF751FB04460E467F10002FEAD1DDE955
S315080030500201BAF1000F42464B4602DAFDF743FB7E
S3150800306001E0FDF7D8F904460E460022284BFDF785
S31508003070C5FB03D84FF0FF30014607E00022254B79
S3150800308020463146FDF720F9FDF79FFB102409E09D
S31508003090002C0ADB0A220023FDF742FA019B303294
S315080030A01A55641E50EA0102F2D1641C019AC4F151
S315080030B0110314440F9A012A03D0012208430DD1A3
S315080030C00AE0084304D000204FF0110B0F9080E768
S315080030D0A3EB0B056D1E0DE05B4504DD4FF000020A
S315080030E005F1010504E003DA4FF00002A5F1010538
S315080030F0002AECD000980F99C0E90231C0E90045D2
S3150800310086E70000000024400000F03F3000000081
S315080031100000F0430000E03F2DE9FF4F95B09B46C5
S315080031208946064600250FE2252877D1002427463A
S31508003130F84A0121059400E0044316F8013F203BB4
S3150800314001FA03F01042F7D130782A2811D06FF02F
S315080031502F033078A0F13002092A16D8059A44F0D0
S31508003160020402EB820203EB42021044761C05902D
S31508003170EFE759F8042B0592002A03DA504244F483
S315080031800054059044F00204761C30782E2816D197
S3150800319016F8010F44F004042A280DD06FF02F0208
S315080031A03078A0F13003092B09D807EB870302EB27
S315080031B04303C718761CF3E759F8047B761C307866
S315080031C06C280FD006DC4C2817D068280DD06A2842
S315080031D014D104E0742810D07A280FD10DE044F4F5
S315080031E000140AE044F4801401E044F440147278B0
S315080031F0824202D104F58014761C761C3078662843
S315080032000BD013DC582877D009DC002875D0452860
S31508003210F6D04628F4D047281AD19DE118E063284D
S3150800322035D0642879D0652812D195E1702873D0F5
S3150800323008DC6728F1D069286FD06E280DD06F2872
S3150800324006D1B5E073282CD0752875D0782874D0A7
S315080032505A46179990476D1C75E1C4F30250022827
S3150800326009D003280DD0D9F8001004280DD00D6018
S3150800327009F1040967E1D9F80010EA17C1E9005213
S31508003280F6E7D9F800100D80F2E70D70F0E719F8A7
S31508003290041B8DF8001000208DF80100EA46012075
S315080032A003E059F804AB4FF0FF3061074FF0000117
S315080032B002D40DE008F101018846B9420FDA8045CB
S315080032C0F8DB1AF808100029F4D108E008F1010122
S315080032D088468142FADB1AF808100029F6D10598C3
S315080032E05B46A0EB080721463846179A00F094FA81
S315080032F0284400EB080507E04DE029E10DE01AF83F
S31508003300010B5A4617999047B8F10108F7D25B4660
S3150800331021463846179A13E142E00A220092C4F37E
S3150800332002524FF0000A022A08D059F804CB032AA1
S315080033304FEAEC710AD00DE029E02AE009F107010D
S3150800334021F00702F2E802C1914609E00FFA8CFC67
S315080033504FEAEC71042A03D14FFA8CFC4FEAEC7160
S31508003360002907DA0A460021DCF1000C61EB0201AC
S315080033702D2202E0220504D52B228DF804200122F5
S3150800338003E0E20701D02022F7E7904659E00A2138
S3150800339002E010220DE010214FF0000A00910BE028
S315080033A010224FF0000A44F004040827009203E0B4
S315080033B008224FF0000A0092C4F30252022A05D0EE
S315080033C059F804CB0021032A08D009E009F10701BE
S315080033D021F00702F2E802C1914605E01FFA8CFCCB
S315080033E0042A01D10CF0FF0C4FF00008220728D55B
S315080033F0702806D0009B83F0100353EA0A0305D011
S315080034000EE040228DF80420012208E05CEA010261
S3150800341006D030228DF804208DF805000222904649
S31508003420009B83F0080353EA0A030AD15CEA010207
S3150800343001D1620705D530228DF804204FF0010826
S315080034407F1E582804D034A003900EA802900DE0E1
S3150800345036A0F9E753466046009AFDF761F88446B8
S315080034600398825C0298401E029002705CEA010092
S31508003470F0D1029806A9081A00F1200A600702D5B9
S3150800348024F4803400E00127574502DDA7EB0A0043
S3150800349000E0002000EB0A01009005984144401A1C
S315080034A00590E00306D45B462146179A059800F076
S315080034B0B3F90544002706E001A85A46C05D1799E6
S315080034C090476D1C7F1C4745F6DBE0030CD55B4631
S315080034D02146179A059800F09FF9054404E0302024
S315080034E05A46179990476D1C0099481E0090002966
S315080034F0F5DC08E0029802995A460078491C0291C0
S31508003500179990476D1CBAF10001AAF1010AF1DC7E
S3150800351065E1000009280100303132333435363789
S315080035203839616263646566000000003031323301
S3150800353034353637383941424344454600000000A1
S3150800354000F058F90544761C307800287FF4ECAD75
S3150800355019B02846BDE8F08F620700D4062709F19E
S31508003560070222F0070CFCE80223E14603F00048B4
S315080035705FEA080C02D00FF2702C0DE05FEA045CDB
S3150800358002D50FF2682C07E05FEAC47C02D00FF27E
S31508003590602C01E0AFF2700C4FF0FF3823F00043C7
S315080035A0CDF850C065280CD006DC452809D0462839
S315080035B01DD047283DD13DE0662818D067287ED122
S315080035C038E00021112F01DB112000E0781CCDE93D
S315080035D0000106A90EA8FFF7EDFCDDE90F010E9A1A
S315080035E003910021009207F1010A04914DE04FF082
S315080035F000400097CDE9011006A90EA8FFF7DAFCEE
S31508003600DDE90F0203920E9B11990022DDF80CA04A
S315080036100093049211B9791C00EB010AB7EB0A0072
S3150800362004D4C0F1FF3007F1010A0490AAEB0700A1
S31508003630019044E0012F00DA01270021112F01DD56
S31508003640112000E03846CDE9000106A90EA8FFF7CB
S31508003650B1FCDDE90F010E9A039100210491009255
S31508003660BA4621070CD40399514500DA8A46BAF1BD
S31508003670010F05DD009AAAF10101515C302908D035
S31508003680B84202DA10F1040F06DA0121CDE9011079
S3150800369015E0AAF10101E9E7002805DC04990144CF
S315080036A00491AAEB000102E0411C514500DD8A465F
S315080036B00499401A401C01904FF0004002902007E0
S315080036C004D40198504501DBCDF8048000208DF81C
S315080036D04F0002980DF14F07B0F1004F25D02B206F
S315080036E00E9002984FF0020800280CDA4042029029
S315080036F02D200E9007E00A210298FCF7FBFE3031D8
S31508003700029007F8011DB8F10001A8F10108F2DCE2
S3150800371002980028EFD1791E0E980870307800F0CC
S31508003720200040F0450007F8020D12A8C01B00F162
S3150800373007081498007800B1012000EB0A010198E7
S3150800374001EBE07105984144401A401E0590E003DC
S3150800375006D45B462146179A059800F05DF805449D
S315080037601498007818B15A46179990476D1CE003CB
S3150800377024D55B462146179A059800F04DF805446E
S315080037801CE00498002807DBDDE90301884203DD15
S315080037900098405C179901E0179930205A469047DF
S315080037A0049805F10105401C04900198401E0190FB
S315080037B004D12E205A46179990476D1CBAF100017C
S315080037C0AAF1010ADDDC05E017F8010B5A4617993C
S315080037D090476D1CB8F10001A8F10108F4DC5B46BE
S315080037E02146179A0598ABE62D0000002B0000002D
S315080037F0200000002DE9F041044600251E46174624
S31508003800880404D405E039462020B0476D1C641EA0
S31508003810F9D52846BDE8F0812DE9F0410446002592
S315080038201E469046C80301D5302700E020278804A5
S3150800383004D505E041463846B0476D1C641EF9D5E7
S315080038402846BDE8F081000013B54FF6FF73012244
S3150800385069460248FEF77EFD00981CBD4C02002012
S315080038603EB504464FF6FF7500210C238022084614
S315080038700095FEF7E6FD00200C210095CDE9011024
S31508003880034622460146FEF781FF3EBD0EB5FDF70B
S3150800389035FEFFF704F9FEF7EDFFFEF7C5FFFFF764
S315080038A069F8FFF743F814480068C16821F0200159
S315080038B0C160FEF7E5FD4FF6FF740021A0238022C4
S315080038C008460094FEF7BDFD10260025CDE9004602
S315080038D02B462E22282112200295FEF7D1FECDE98D
S315080038E0004600232E2228213A200295FEF7C8FE1C
S315080038F0FDF788F9FEE700004C02002001020203EA
S315080039000405060708090A0B0C0D0E0F1010000017
S315080039100000000000000000000000000404040489
S3150800392004000004000014140A000000000000004F
S31508003930000000000A0A1F0A0A1F0A0A00000004FB
S315080039400E1505060C14150E0400000012150D15AB
S315080039502E2C2A1200000000040A0A36151529160C
S31508003960000002020100000000000000000010082C
S3150800397008040404040408081000020404080808DB
S3150800398008080404020000000004150E0E150400C1
S31508003990000000000008083E0808000000000000BB
S315080039A00000000000000202010000000000003FC5
S315080039B000000000000000000000000000000002F7
S315080039C0000000201010080804040202010000008C
S315080039D00E1111111111110E000000000406040445
S315080039E00404040E000000000E1111080402011F51
S315080039F0000000000E11100C1010110E000000003F
S31508003A00080C0C0A091F081C000000001F01010F02
S31508003A101110110E000000000C12010D1311110EE9
S31508003A20000000001E10080804040404000000003A
S31508003A300E11110E1111110E000000000E111119B0
S31508003A40161009060000000000000400000000042B
S31508003A50000000000000000400000004040000004C
S31508003A6010080402020408100000000000003F00CD
S31508003A703F000000000000000204081010080402BD
S31508003A80000000000E1111080404000400000000E4
S31508003A901C22292D2D1D221C0000000004040C0ADE
S31508003AA00A1E1233000000000F12120E1212120F15
S31508003AB0000000001E1101010101110E00000000A6
S31508003AC00F1212121212120F000000001F120A0E15
S31508003AD00A02121F000000001F120A0E0A0202073D
S31508003AE0000000001C1201013911120C0000000030
S31508003AF03312121E12121233000000001F040404AF
S31508003B000404041F000000003E0808080808080806
S31508003B100907000037120A060A12123700000000C9
S31508003B20070202020202223F000000003B1B1B1B89
S31508003B3015151535000000003B1216161A1A12172D
S31508003B40000000000E1111111111110E00000000E5
S31508003B500F12120E02020207000000000E111111C8
S31508003B601117190E180000000F12120E0A1212373A
S31508003B70000000001E1101060810110F00000000C9
S31508003B801F1504040404040E000000003312121268
S31508003B901212120C000000003312120A0A0C040456
S31508003BA000000000151515150E0A0A0A0000000087
S31508003BB01B0A0A04040A0A1B000000001B0A0A0A58
S31508003BC00404040E000000001F0908040402121F62
S31508003BD000001C0404040404040404041C00000279
S31508003BE0020404040808081010000E08080808084B
S31508003BF0080808080E00040A00000000000000007B
S31508003C00000000000000000000000000003F020461
S31508003C100000000000000000000000000000000C8A
S31508003C20121C123C000000030202020E1212120EAF
S31508003C30000000000000001C1202120C0000001810
S31508003C401010101C1212123C000000000000000C9C
S31508003C50121E021C000000182404041E0404041E7C
S31508003C60000000000000003C120C021C221C00038D
S31508003C700202020E121212370000000404000006A7
S31508003C800404040E000000080800000C08080808D0
S31508003C90080700030202021A0A060A1300000007B0
S31508003CA0040404040404041F000000000000000FBC
S31508003CB015151515000000000000000F1212123726
S31508003CC0000000000000000C1212120C0000000098
S31508003CD00000000F1212120E020700000000001C5E
S31508003CE01212121C103800000000001B0602020700
S31508003CF0000000000000001E020C101E000000005C
S31508003D000004041E0404041C000000000000001B3C
S31508003D101212123C000000000000001B0A0A0404EC
S31508003D200000000000000015150E0A0A0000000039
S31508003D300000001B0A040A1B0000000000000033F4
S31508003D4012120C08040300000000001E0804041EDA
S31508003D50000018080808080C0808080818000808C9
S31508003D6008080808080808080808060404040408D7
S31508003D700404040406001609000000000000000000
S31508003D800000000000000000000000000000000025
S31508003D9000000000000808080808080800001818AD
S31508003DA0000000486C24120000000000000000001B
S31508003DB000000000002424247F1212127F1212121F
S31508003DC000000000081C2A2A0A0C1828282A2A1C7F
S31508003DD0080800000022251515152A58545454229F
S31508003DE000000000000C1212120A76252911916EA5
S31508003DF000000006060403000000000000000000A2
S31508003E0000000040201010080808080808101020B4
S31508003E1040000002040808101010101010080804CA
S31508003E2002000000000008086B1C1C6B0808000054
S31508003E30000000000000080808087F0808080800B5
S31508003E400000000000000000000000000000060658
S31508003E5004030000000000000000FE00000000004F
S31508003E600000000000000000000000000000060638
S31508003E7000000000804040202010100808040402BA
S31508003E8002000000001824424242424242422418DC
S31508003E900000000000080E08080808080808083E80
S31508003EA000000000003C4242422020100804427EE6
S31508003EB000000000003C4242201820404042221CDC
S31508003EC00000000000203028242422227E202078AA
S31508003ED000000000007E0202021A26404042221C10
S31508003EE00000000000382402021A26424242241822
S31508003EF000000000007E22221010080808080808A2
S31508003F0000000000003C4242422418244242423C3F
S31508003F100000000000182442424264584040241C15
S31508003F200000000000000000181800000000181823
S31508003F300000000000000000000800000000000863
S31508003F40080400000040201008040204081020405D
S31508003F5000000000000000007F0000007F00000055
S31508003F600000000000020408102040201008040287
S31508003F7000000000003C424246402010100018187D
S31508003F8000000000001C225A555555552D42221C8A
S31508003F9000000000000808181414243C224242E7D6
S31508003FA000000000001F2222221E22424242221F37
S31508003FB000000000007C4242010101010142221C6E
S31508003FC000000000001F2242424242424242221F93
S31508003FD000000000003F4212121E12120242423F27
S31508003FE000000000003F4212121E121202020207CF
S31508003FF000000000003C2222010101712122221C3E
S315080040000000000000E7424242427E42424242E746
S3150800401000000000003E0808080808080808083ECE
S3150800402000000000007C1010101010101010101066
S31508004030110F0000007722120A0E0A1212222277A6
S315080040400000000000070202020202020202427F8A
S31508004050000000000077363636362A2A2A2A2A6BC6
S315080040600000000000E346464A4A5252526262473E
S3150800407000000000001C2241414141414141221CEF
S3150800408000000000003F424242423E02020202078E
S3150800409000000000001C2241414141414D53321CA1
S315080040A060000000003F4242423E1212222242C7EE
S315080040B000000000007C4242020418204042423EB2
S315080040C000000000007F4908080808080808081CBE
S315080040D00000000000E74242424242424242423C5D
S315080040E00000000000E7424222242414141808089D
S315080040F000000000006B49494949555536222222DD
S315080041000000000000E7422424181818242442E777
S315080041100000000000772222141408080808081C6A
S3150800412000000000007E2120101008040442423FCF
S315080041300000007808080808080808080808080899
S315080041407800000002020404080808101020202045
S315080041504040001E101010101010101010101010F3
S315080041601E000038440000000000000000000000A7
S315080041700000000000000000000000000000000031
S3150800418000FF000608000000000000000000000014
S315080041900000000000000000003C4278444242FC57
S315080041A00000000000030202021A26424242261AB2
S315080041B000000000000000000038440202024438F3
S315080041C0000000000060404040784442424264D803
S315080041D00000000000000000003C427E0202423C53
S315080041E00000000000F08808087E08080808083E55
S315080041F00000000000000000007C22221C023C4255
S31508004200423C000000030202023A4642424242E7AA
S3150800421000000000000C0C00000E08080808083E04
S315080042200000000000303000003820202020202028
S31508004230221E0000000302020272120A16122277D8
S3150800424000000000000E0808080808080808083ECC
S315080042500000000000000000007F9292929292B740
S315080042600000000000000000003B4642424242E7D0
S315080042700000000000000000003C42424242423C6E
S315080042800000000000000000001B26424242221ED9
S3150800429002070000000000000078444242424478C9
S315080042A040E000000000000000774C040404041FEE
S315080042B00000000000000000007C42023C40423E34
S315080042C00000000000000008083E0808080808303A
S315080042D0000000000000000000634242424262DC27
S315080042E0000000000000000000E74224241408082B
S315080042F0000000000000000000EB49495555222245
S315080043000000000000000000007624181818246E2B
S31508004310000000000000000000E7422424141808EA
S315080043200807000000000000007E22100808447EEE
S31508004330000000C02020202020102020202020203F
S31508004340C0001010101010101010101010101010BF
S3150800435010100006080808080810080808080808C1
S3150800436006000C32C2000000000000000000000039
S31508004370000000000000000000000000000000002F
S31508004380000000000000000000000000000000001F
S31508004390000000000000000000000000000000000F
S315080043A000000000000000000000600060006000DF
S315080043B060006000600060004000200020002000CF
S315080043C000000000000060006000600000000000BF
S315080043D000000000000060066006300398018800AF
S315080043E0440000000000000000000000000000007B
S315080043F000000000000000000000000000000000AF
S315080044000000000000000000000010021002100268
S315080044101002FE07FE070802080108010801080144
S31508004420FE07FE0704010401040104010000000060
S31508004430000000000000000040004000F0015803A2
S315080044404C03CC034C0058007000E000C001C001CA
S3150800445040034C035C034C034801F0004000400055
S31508004460000000000000000000000E010A01910093
S3150800447091009100510051003A00AE03A002500489
S3150800448050044804480448048402840300000000D9
S315080044900000000000000000000038006C006C00FE
S315080044A06C006C006C002C0098071C011A01330183
S315080044B033016301E300C308C6093C070000000096
S315080044C00000000000000C001C001000100008008E
S315080044D004000000000000000000000000000000CA
S315080044E000000000000000000000000000000000BE
S315080044F000000000000000040002000180008000A7
S31508004500400040002000200020002000200020005D
S3150800451020004000400080008000000100020004E6
S31508004520000000000000020004000800100010004F
S3150800453020002000400040004000400040004000AD
S3150800454040002000200010001000080004000200AF
S31508004550000000000000000000000000000040000D
S31508004560C0004000460C4E0FD001F0015E0F460C0D
S31508004570400040004000000000000000000000006D
S31508004580000000000000000000000000000000001D
S3150800459040004000400040004000FE0F4000400040
S315080045A0400040004000000000000000000000003D
S315080045B000000000000000000000000000000000ED
S315080045C000000000000000000000000000000000DD
S315080045D00000000000000C001C001000100008007D
S315080045E004000000000000000000000000000000B9
S315080045F000000000000000000000FE0700000000A8
S31508004600000000000000000000000000000000009C
S31508004610000000000000000000000000000000008C
S31508004620000000000000000000000000000000007C
S315080046300000000000001C001C001C000000000018
S31508004640000000000000000400060002000300014C
S31508004650000180008000400040006000200020002B
S3150800466010001000080008000C00040006000200F4
S31508004670000000000000000000000000F0009801A3
S315080046800C030C03060606060606060606060606B6
S31508004690060606060C030C039801F000000000004D
S315080046A000000000000000000000000040007C0040
S315080046B060006000600060006000600060006000EC
S315080046C060006000600060006000FC0300000000FD
S315080046D0000000000000000000000000F80084014F
S315080046E0020306030603000300018001C000600000
S315080046F020001000080204020602FE030000000063
S315080047000000000000000000000000007800C6005D
S315080047108601860180018001C000700080010001C9
S3150800472000030003060306038601F80000000000E4
S315080047300000000000000000000000008001800169
S31508004740C001A001A00190018801880184018201AD
S31508004750FE0F8001800180018001E0070000000053
S31508004760000000000000000000000000FC03040038
S315080047700400040004000400F4008C010403000390
S3150800478000030603060382018401F8000000000006
S31508004790000000000000000000000000E00118030F
S315080047A00C030C0004000600E60116030E060606B6
S315080047B00606060604060C021803F00000000000B0
S315080047C0000000000000000000000000F8070C06CA
S315080047D0040204010001000180008000400040003E
S315080047E0400060006000600060006000000000009B
S315080047F0000000000000000000000000F8010C03A3
S315080048000606060606060C021C03F000C8010C0381
S3150800481006060606060606060C03F001000000005A
S31508004820000000000000000000000000F0000C017D
S315080048300C03060206060606060606078C06780612
S315080048400006000300030C018C017800000000003C
S31508004850000000000000000000000000000000004A
S31508004860000000000000E000E000E000000000009A
S31508004870000000000000E000E000E000000000008A
S31508004880000000000000000000000000000000001A
S31508004890000000000000600060000000000000004A
S315080048A000000000000000006000600040002000DA
S315080048B020000000000000000000000400020001C3
S315080048C080004000200010000800040008001000C6
S315080048D020004000800000010002000400000000E3
S315080048E000000000000000000000000000000000BA
S315080048F0000000000000FE07000000000000FE07A0
S315080049000000000000000000000000000000000099
S31508004910000000000000000000000400080010006D
S31508004920200040008000000100020004000200018F
S31508004930800040002000100008000400000000006D
S31508004940000000000000000000000000E003180658
S31508004950040C040C0C0C0C0C0007800140004000F1
S31508004960400000000000E000E000E0000000000059
S3150800497000000000000000000000E00018030C0220
S31508004980CC0564056605A605B604B604B604B604E1
S31508004990B602E4010C040C021803F0000000000043
S315080049A00000000000000000000000006000600039
S315080049B05000D00090009000880088010801F80196
S315080049C0040304030402020202060F0F000000009B
S315080049D0000000000000000000000000FE008C033C
S315080049E00C030C030C030C038C01FC000C030C02D7
S315080049F00C060C060C060C060C03FE010000000053
S31508004A00000000000000000000000000E00318039A
S31508004A100C060C0404040600060006000600060040
S31508004A20060006040C040C021803F000000000003F
S31508004A300000000000000000000000007F008C015C
S31508004A400C030C030C060C060C060C060C060C06CE
S31508004A500C060C060C030C038C017F0000000000FA
S31508004A60000000000000000000000000FF0306032D
S31508004A7006040604060086008600FE0086008600F8
S31508004A8086000600060406040602FF03000000006E
S31508004A90000000000000000000000000FF030603FD
S31508004AA006040604060086008600FE0086008600C8
S31508004AB0860006000600060006001F00000000002B
S31508004AC0000000000000000000000000F0001801CF
S31508004AD00C020C0204020600060006000600C60FB9
S31508004AE0060306030C030C031803F000000000007D
S31508004AF00000000000000000000000000F0F06067E
S31508004B0006060606060606060606FE07060606063E
S31508004B10060606060606060606060F0F000000002D
S31508004B20000000000000000000000000FC03600018
S31508004B306000600060006000600060006000600067
S31508004B4060006000600060006000FC030000000078
S31508004B50000000000000000000000000F807C00088
S31508004B60C000C000C000C000C000C000C000C00037
S31508004B70C000C000C000C000C000C000C60066007B
S31508004B803C0000000000000000000000CF03860182
S31508004B90C60046002600160036002E006E004600A7
S31508004BA0C60086008601060106038F07000000007E
S31508004BB00000000000000000000000001F000600C2
S31508004BC006000600060006000600060006000600A7
S31508004BD006000600060406040602FF03000000009D
S31508004BE00000000000000000000000000707860320
S31508004BF086038E038E034E034E034A035A035A0353
S31508004C003A03320332033203120387070000000017
S31508004C100000000000000000000000008E0F0C02DB
S31508004C201C021C0234023402640264024402C402F6
S31508004C30840284038403040304031F0200000000A3
S31508004C40000000000000000000000000F0009801CD
S31508004C500C030C02060606060606060606060606E1
S31508004C60060606060C020C039801F0000000000078
S31508004C70000000000000000000000000FF0006031E
S31508004C80060606060606060606068603FE0006004D
S31508004C90060006000600060006001F0000000000C9
S31508004CA0000000000000000000000000F00098016D
S31508004CB00C030C0206060606060606060606060681
S31508004CC0060676064C02CC039801F000800700031E
S31508004CD0000000000000000000000000FF010603BD
S31508004CE006060606060606060603FE004600C60073
S31508004CF0860086010603060306060F0E000000005E
S31508004D00000000000000000000000000F8020C038C
S31508004D100602060206000E003C00F800E0038003C7
S31508004D2000070206020606060C03F0010000000052
S31508004D30000000000000000000000000FE076204FA
S31508004D406108610860006000600060006000600043
S31508004D5060006000600060006000F801000000006C
S31508004D600000000000000000000000001E070C0202
S31508004D700C020C020C020C020C020C020C020C02B5
S31508004D800C020C020C020C021801F00000000000D4
S31508004D900000000000000000000000000F070602E7
S31508004DA0040104010C010C01880088009800980091
S31508004DB05000500070003000200020000000000065
S31508004DC0000000000000000000000000F70E62046A
S31508004DD042044604460464026402E402E4029C02B5
S31508004DE09C0198019801880188008800000000004D
S31508004DF00000000000000000000000009E070C01F3
S31508004E00080118019000B0006000200060006000F2
S31508004E10D00090008801080104038E0700000000F6
S31508004E200000000000000000000000000F0F06044C
S31508004E3004020C0208011801B800B00070006000F6
S31508004E4060006000600060006000F801000000007B
S31508004E50000000000000000000000000FC070C0233
S31508004E600603020180018000400040002000200067
S31508004E701000180008040C040402FE0300000000D9
S31508004E80000000000000E0032000200020002000B1
S31508004E902000200020002000200020002000200004
S31508004EA02000200020002000200020002000E00331
S31508004EB000000000000000000000040004000800D4
S31508004EC008001000100010002000200040004000DC
S31508004ED0C0008000800000010001000200020002FC
S31508004EE00004000000007C00400040004000400034
S31508004EF040004000400040004000400040004000A4
S31508004F0040004000400040004000400040007C0057
S31508004F10000000006000900008010000000000008A
S31508004F200000000000000000000000000000000073
S31508004F300000000000000000000000000000000063
S31508004F400000000000000000000000000000000053
S31508004F500000000000000000000000000000000043
S31508004F600000000000000000000000000000000033
S31508004F70FF0F00000000180060000000000000009D
S31508004F800000000000000000000000000000000013
S31508004F900000000000000000000000000000000003
S31508004FA000000000000000000000000000000000F3
S31508004FB0000000000000F0010C030C030003E003EE
S31508004FC01C030E03060306038E0B7C0E000000006E
S31508004FD00000000000000000000008000E000C00A1
S31508004FE00C000C000C00CC013C031C060C060C063D
S31508004FF00C060C060C060C021C03E401000000005B
S315080050000000000000000000000000000000000092
S31508005010000000000000F0008C018C0186010600EB
S315080050200600060006020C020C01F0000000000053
S31508005030000000000000000000000002C00300039A
S3150800504000030003000378038C030C03060306031E
S3150800505006030603060304038C0778010000000014
S315080050600000000000000000000000000000000032
S31508005070000000000000E001180308020C060C06F8
S31508005080FC070C000C0018041802E00100000000E0
S31508005090000000000000000000000000C0036006D9
S315080050A0300630003000FE0130003000300030009D
S315080050B030003000300030003000FC0100000000F5
S315080050C000000000000000000000000000000000D2
S315080050D0000000000000F007D8068C018C018C0146
S315080050E09801F8000C00FC00CC03060306038E03A7
S315080050F0F800000000000000000008000E000C0088
S315080051000C000C000C00EC011C030C030C030C0334
S315080051100C030C030C030C030C039E070000000091
S3150800512000000000000000000000000060006000B1
S315080051300000000040007C00600060006000600025
S3150800514060006000600060006000FC030000000072
S31508005150000000000000000000000000C001C001BF
S31508005160000000000001F00180018001800180013B
S315080051708001800180018001800180018001CC00CE
S315080051807C00000000000000000008000E000C0073
S315080051900C000C000C008C038C008C004C006C007E
S315080051A05C008C008C010C010C039E0700000000BB
S315080051B00000000000000000000040007C006000C5
S315080051C060006000600060006000600060006000D1
S315080051D060006000600060006000FC0300000000E2
S315080051E000000000000000000000000000000000B1
S315080051F00000000000003707EE066606660666062B
S3150800520066066606660666066606FF0F0000000066
S315080052100000000000000000000000000000000080
S31508005220000000000000EE011C030C030C030C0335
S315080052300C030C030C030C030C039E070000000070
S315080052400000000000000000000000000000000050
S31508005250000000000000F00098010C030606060690
S315080052600606060606060C030C03F00000000000FE
S315080052700000000000000000000000000000000020
S31508005280000000000000EE011C030C060C060C06CC
S315080052900C060C060C060C031C03EC010C000C0097
S315080052A03E000000000000000000000000000000B2
S315080052B000000000000078028C030C0306030603B6
S315080052C006030603060304038C037803000300039E
S315080052D0C0070000000000000000000000000000F9
S315080052E00000000000009F03580638061800180042
S315080052F018001800180018001800FF000000000029
S31508005300000000000000000000000000000000008F
S31508005310000000000000F0031C030C020C02380019
S31508005320F000C003040304038C03FC010000000022
S31508005330000000000000000000000000000020003F
S31508005340200030003000FE01300030003000300010
S3150800535030003000300030023002E001000000006A
S31508005360000000000000000000000000000000002F
S315080053700000000008028E030C030C030C030C0348
S315080053800C030C030C030C039C07780100000000B7
S3150800539000000000000000000000000000000000FF
S315080053A00000000000001E070C0208010801180191
S315080053B09000B000B000600060002000000000000F
S315080053C000000000000000000000000000000000CF
S315080053D0000000000000F70E62044604640264023E
S315080053E0EC029C0198019801980108000000000051
S315080053F0000000000000000000000000000000009F
S31508005400000000000000BC0718011001B000600091
S315080054106000E0009000080108039E0700000000F5
S31508005420000000000000000000000000000000006E
S315080054300000000000009E0708010801080190000E
S315080054409000B0006000600060002000200024008A
S315080054501C00000000000000000000000000000022
S31508005460000000000000FC018401C4004400600044
S3150800547020003000180208020C03FC01000000009E
S31508005480000000000000000380008000800080000B
S3150800549080008000800080004000200040008000DE
S315080054A0800080008000800080008000800000036B
S315080054B0000040004000400040004000400040001E
S315080054C040004000400040004000400040004000CE
S315080054D040004000400040004000400040004000BE
S315080054E04000000000000C00100010001000100022
S315080054F010001000100010002000400020001000CE
S3150800550010001000100010001000100010000C0011
