:020000040800F2
:10000000B004002001010008BF160008850E00089A
:10001000BD1600086D01000825180008000000004A
:10002000000000000000000000000000771700083A
:100030007D01000800000000C116000879170008C3
:100040001B0100081B0100081B0100081B01000820
:100050001B0100081B0100081B0100081B01000810
:100060001B0100081B0100081B0100081B01000800
:100070001B010008710100081B0100081B0100089A
:100080001B0100081B0100081B0100081B010008E0
:100090001B0100081B0100081B0100081B010008D0
:1000A0001B0100081B0100081B0100081B010008C0
:1000B0001B0100081B0100081B0100081B010008B0
:1000C0001B0100081B0100081B0100081B010008A0
:1000D0001B0100081B0100081B0100081B01000890
:1000E0001B0100081B0100081B010008DFF80CD0F1
:1000F00000F02AF80048004765180008B004002006
:100100000648804706480047FEE7FEE7FEE7FEE7B1
:10011000FEE7FEE7FEE7FEE7FEE7FEE7DD17000885
:10012000ED000008D2B201E000F8012B491EFBD21D
:1001300070470022F6E710B513460A4604461946F2
:10014000FFF7F0FF204610BD064C074D06E0E068C3
:1001500040F0010394E8070098471034AC42F6D30E
:10016000FFF7C8FF0C5200082C520008FEE7000001
:10017000014800F065B800006800002070470000EA
:100180002DE9FF4F83B090460E46074600251446E2
:100190004FE000BF381BA6EB050902901FFA89F15A
:1001A00080B2069A00F08CFE381901901FFA89F18E
:1001B00080B2069A00F084FE301981B2A7EB0509DF
:1001C00000901FFA89F0069A00F07AFEA6EB040B65
:1001D0001FFA8BF11FFA89F0069A00F071FE019860
:1001E00006EB050A1FFA8AF180B2069A00F068FE53
:1001F00007EB05091FFA8BF11FFA89F0069A00F048
:100200005FFE0098069A81B21FFA89F000F058FE4E
:1002100002981FFA8AF180B2069A00F051FE6D1C16
:1002200005FB05F004FB040108FB08F0814200DD3A
:10023000641EA542AEDD07B0BDE8F08F72B6FEE7E2
:100240002DE9F05FC16B0C6801680B68D0F840C005
:10025000042202FA0CF2494DDFF824A1494E4A4F1C
:10026000DFF828B1DFF828E122422CD05A072AD53E
:100270000A68920603D40A6822F004020A60016840
:10028000A94201D1042219E0514501D1402215E0D3
:10029000B14202D14FF4806210E0B94202D14FF472
:1002A00080420BE0594502D14FF4802206E07145AF
:1002B00002D14FF4800201E04FF080622F490839EB
:1002C0004A60C16A3BE04FF0020808FA0CF818EAED
:1002D000040F4FF000094FF0010235D05FEA837838
:1002E00032D50B689B0605D40B6823F00A030B601C
:1002F00080F821200168A94201D1022219E051456C
:1003000001D1202215E0B14202D14FF4007210E079
:10031000B94202D14FF400520BE0594502D14FF4DB
:10032000003206E0714502D14FF4001201E04FF0B7
:100330000072124908394A6080F82090816A0029C9
:100340001AD0BDE8F05F0847082505FA0CF52542EC
:1003500012D01B0710D50B6823F00E030B6090F82A
:100360004010C36B02FA01F15960826380F82120CA
:1003700080F82090016BE2E7BDE8F09F08000240A2
:100380001C0002403000024044000240580002407D
:100390006C00024030B528B308C813491422194430
:1003A000B1FBF2F18900C1631049816302214177F9
:1003B0001A6843F6F0718A43D0E900142143D0E96A
:1003C00002452C4321430469214344692143846944
:1003D00021431143196000214163012242770177D3
:1003E000084630BD012030BDF8FFFDBF00000240CF
:1003F00070B5044600F004F90546601C02D00448BC
:100400000078044400F0FCF8401BA042FAD370BD11
:10041000000000202DE9F84FDFF8B891002409F121
:10042000040A0AF1040B23460F270BF1040EC9E05E
:100430000125A5402A40AA427DD1674ED1F804C0CB
:10044000ACEB0608B44532D014DCBCF1030F3AD053
:1004500009DCBCF1000F2AD0BCF1010F1CD0BCF1AB
:10046000020F31D11DE0BCF1110F17D0BCF1120FFA
:100470002AD119E0B8F5881F19D006DCB8F5803FFD
:1004800015D0B8F5801F1FD111E0B8F5001F0ED0B0
:10049000B8F5041F18D10AE0CB6815E0CB681B1D26
:1004A00012E0CB6808330FE0CB680C330CE08B68AC
:1004B0002BB1012B4FF0080303D0456104E0042366
:1004C00002E0056100E00023FF2A01D8064601E0B2
:1004D00000F104064FEA840501D9A5F12005D6F8FC
:1004E000008007FA05FC28EA0C0803FA05F548EA3B
:1004F0000508C6F800804D68ED0062D5374DAE693D
:1005000046F00106AE61AD6924F0030605F0010571
:100510000095334D06EB050CDCF80850A607360FA6
:1005200007FA06F825EA0805DFF8B880404503D148
:100530004FF0000817E044E0DFF8AC80404502D1FE
:100540004FF001080FE0DFF8A480404502D14FF0E2
:10055000020808E0DFF89880404502D14FF0030818
:1005600001E04FF0040808FA06F848EA0508CCF85C
:1005700008804D68D9F80060ED034D4601D516435B
:1005800000E096432E604D68DAF80060AD035546F2
:1005900001D5164300E096432E604D68DBF80060FD
:1005A000ED025D4601D5164300E096432E604D688E
:1005B000DEF80060AD02754601D5164300E09643B3
:1005C0002E60641C0D682A46E5407FF431AFBDE81B
:1005D000F88F0000000401400000111000100240DC
:1005E0000000014000080140000C014000100140E3
:1005F000001401400AB1016170470904FBE70000E3
:1006000001488068704700000000002002488168AF
:10061000027811448160704700000020074810B53F
:10062000016841F010010160032000F075F80F200F
:1006300000F006F800F024F8002010BD0020024071
:1006400070B50D4D04464FF47A712878B1FBF0F087
:100650000A490968B1FBF0F000F000FC48B9102C21
:1006600007D200222146501E00F036F800206C60B0
:1006700070BD012070BD0000000000200C000020B3
:100680000C4808B5816941F001018161816901F07F
:1006900001010091C16941F08051C161C06900F060
:1006A000805000900448416821F0E06141F0007101
:1006B000416008BD0010024000000140002809DB35
:1006C00000F01F02012191404009800000F1E0206C
:1006D000C0F8001170470000F0B40E4B1B680C46C8
:1006E000C3F30223C3F10705042D00D90425191D06
:1006F000072901D2002300E0DB1E012606FA05F1DE
:10070000491E214099409E40761E16403143F0BC60
:1007100001F089B80CED00E0064900F00702086816
:100720004FF6FF03184040EA0220034A10430860D6
:10073000704700000CED00E00000FA052DE9F047DD
:100740000F46050061D0434E306800F00700B84204
:1007500009D2306820F0070038433060306800F07C
:100760000700B84251D128683B4C810712D5400799
:1007700003D5606840F4E06060602878000703D526
:10078000606840F4605060606068A96820F0F00024
:10079000084360602878C00728D06868012810D016
:1007A0002168022810D0890700292EDA616821F01B
:1007B000030101436160FFF723FF804641F288395E
:1007C0000DE021688903EFE78901EDE7FFF718FFE6
:1007D000A0EB0801494502D90320BDE8F087606815
:1007E000696800F00C00B0EB810FEFD1306800F0C9
:1007F0000700B8420BD9306820F00700384330605A
:10080000306800F00700B84201D00120E5E7287801
:10081000400705D56068E96820F4E060084360603F
:100820002878000706D56068296920F4605040EAFE
:10083000C100606000F018F86168084AC1F3031154
:10084000515CC8400649086006480068FFF7F8FE9A
:100850000020C2E70020024000100240FC510008C6
:100860000C0000200400002012A185B00FC98DE803
:100870000F0014A0144A006804905168134801F056
:100880000C03042B10D0082B0ED1C1F38343C903F2
:100890001DF803000AD5516804AAC1F34041515C18
:1008A0000A4A5043B0FBF1F005B07047084948438D
:1008B000FAE7000002030405060708090A0B0C0DFD
:1008C0000E0F1010010200000010024000127A000A
:1008D00000093D002DE9F84F040070D02078C04D8C
:1008E000C00749D06868C0F38100012807D0686854
:1008F000C0F38100022809D16868C00306D52868C2
:10090000800339D560680028E7D035E06068B0F52D
:10091000803F0BD010B1B0F5A02F11D0286820F483
:1009200080302860286820F4802002E0286840F4A5
:1009300080302860606890B1FFF762FE06460AE0EA
:10094000286840F480202860F0E700BFFFF758FED9
:10095000801B642873D828688003F7D50CE0FFF764
:100960004FFE064605E000BFFFF74AFE801B6428E5
:10097000F0D828688003F7D420789A4E80074FF08B
:1009800001094FF0000839D5686810F00C0F07D046
:100990006868C0F38100022809D16868C00306D4E2
:1009A0002868800714D52069012808D110E0206943
:1009B000B0B1C6F80090FFF723FE074605E00AE154
:1009C000FFF71EFEC01B0228C4D828688007F7D591
:1009D0002868616920F0F80040EAC10028600DE055
:1009E000C6F80080FFF70CFE074604E0FFF708FE9C
:1009F000C01B022823D828688007F7D42078000776
:100A00002CD57948A169D9B1C0F80090FFF7F8FD5D
:100A1000074604E0FFF7F4FDC01B02280FD8686A00
:100A20008007F7D571484FF4FA510068B0FBF1F038
:100A3000009000BF0098411E0091FAD20EE080E0C5
:100A4000C0F80080FFF7DCFD074604E0FFF7D8FDA3
:100A5000C01B022875D8686A8007F7D42078400741
:100A600060D5E8690027C00008D4E86940F08050EC
:100A7000E861E869012700F0805000905C48016857
:100A8000C90513D40168834641F480710160FFF702
:100A9000B7FD824606E000BFFFF7B2FDA0EB0A00FB
:100AA00064284ED8DBF80000C005F5D5E0680128C1
:100AB0000AD008B1052813D0286A20F00100286266
:100AC000286A20F0040002E0286A40F00100286251
:100AD000E06841F2883B98B1FFF792FD82460BE057
:100AE000286A40F004002862EEE700BFFFF788FDA7
:100AF000A0EB0A0159455AD8286A8007F6D50CE0C0
:100B0000FFF77EFD824605E0FFF77AFDA0EB0A01C4
:100B100059454CD8286A8007F6D41FB1E86920F0FF
:100B20008050E861E06988B36968C1F381010229F6
:100B300044D00228C6F8608004D0FFF761FD044667
:100B400038E034E0FFF75CFD074604E0FFF758FDAE
:100B5000C01B02282BD828688001F7D4206AB0F582
:100B6000803F05D16868A16820F4003008436860C0
:100B7000D4E908010843696821F4741108436860E6
:100B8000C6F86090FFF73CFD044606E025E000BF94
:100B9000FFF736FD001B022809D828688001F7D529
:100BA0001BE000BFFFF72CFD001B022802D9032029
:100BB000BDE8F88F28688001F4D40EE00128F7D052
:100BC0006868226A00F48031914204D1616A00F4BD
:100BD0007010884201D00120EAE70020E8E7000019
:100BE0000010024000004242800442420C000020FB
:100BF0000070004070B5040005D00025A56294F88F
:100C0000510010B106E0012070BD84F8505020461C
:100C100000F02EF8022084F851002068016821F0CD
:100C200040010160D4E901010843D4E903121143F2
:100C3000084361690843218B01F400710843E169AD
:100C40000843216A0843A16A084321680860A06933
:100C5000042101EA1040216848602068C16921F43C
:100C60000061C1616565012084F85100002070BDFC
:100C700070B586B00025064600950195029503954E
:100C800000681A4988422ED11949886940F4805079
:100C90008861886900F480500490886940F00400FD
:100CA00088618869694600F004000490A0200090E3
:100CB00002200190032003900E48FFF7ABFB0F4C7E
:100CC0000D4820601020C4E901058020C4E9030517
:100CD0006561A5612046E561FFF75CFB08B1FFF7A0
:100CE000ADFAB464666206B070BD00000030014029
:100CF000001002400008014030000240680000205F
:100D00002DE9F84F044690F8500000271D4616467E
:100D1000894601280DD04FF0010B84F850B0FFF741
:100D20006FFC804694F85100BA46012804D002278F
:100D30008EE00220BDE8F88FB9F1000F7DD0002EC3
:100D40007BD0032084F85100C4F854A0C4F830903C
:100D5000A686E686C4F838A0A4F83CA0A4F83EA075
:100D6000C4F844A0C4F840A0A068B0F5004F04D176
:100D70002068016841F480410160206801684906EB
:100D800003D4016841F040010160E068B0F5006FF4
:100D9000606803D030B3012E24D040E008B1012EAA
:100DA0001CD1206B21680088C86006E0206881683B
:100DB000890709D5216B0988C160206B801C2063DD
:100DC000E08E401EE08609E0FFF71AFCA0EB080069
:100DD000A84202D3681C01D031E07DB3E08E002828
:100DE000E4D11FE0206B21680078087306E02068DA
:100DF0008168890709D5216B09780173206B401C34
:100E00002063E08E401EE08609E0FFF7F9FBA0EBCF
:100E10000800A84202D3681C01D010E075B1E08E32
:100E20000028E4D142462946204600F04AFC08B199
:100E300020206065A06820B107E008E0FFE70327F5
:100E400006E02068C16880680090606D00B10127ED
:100E500084F851B084F850A038466BE710B5401EB6
:100E6000B0F1807F01D3012010BD4FF0E02460611C
:100E70000F21601700F0D7FC0020A061072020613F
:100E8000002010BDFEE72DE9F04104461D46164640
:100E90000F462A2000F07AFB204600F06DFB30461A
:100EA00000F06AFB2B2000F071FB384600F064FB79
:100EB000284600F061FBBDE8F0412C2000F066BB45
:100EC00010B514460B460246FFF7DDFF2046BDE88D
:100ED000104000F051BB2DE9F04780461F46581ED8
:100EE00083B21646501E82B20C464046DDF8209072
:100EF000FFF7C9FF0AE0454604E0484600F03CFB26
:100F00006D1CADB2B542F8D3641CA4B2BC42F2D39E
:100F1000BDE8F08710B57E4C206820F4805020603A
:100F2000206820F4004020606420FFF761FA206808
:100F300040F4004020606420FFF75AFA206840F433
:100F4000805020606420FFF753FA112000F01EFB50
:100F50007820FFF74DFAB12000F018FB052000F0D3
:100F600025FB3C2000F022FB3C2000F01FFBB220C0
:100F700000F00CFB052000F019FB3C2000F016FBF4
:100F80003C2000F013FBB32000F000FB052000F034
:100F90000DFB3C2000F00AFB3C2000F007FB052085
:100FA00000F004FB3C2000F001FB3C2000F0FEFAC6
:100FB000B42000F0EBFA032000F0F8FAC02000F0B3
:100FC000E5FA282000F0F2FA082000F0EFFA0420F9
:100FD00000F0ECFAC12000F0D9FAC02000F0E6FAE7
:100FE000C22000F0D3FA0D2000F0E0FA002000F05B
:100FF000DDFAC32000F0CAFA8D2000F0D7FA2A20CB
:1010000000F0D4FAC42000F0C1FA8D2000F0CEFA2E
:10101000EE2000F0CBFAC52000F0B8FA1A2000F05C
:10102000C5FA362000F0B2FAC02000F0BFFAE02086
:1010300000F0ACFA042000F0B9FA222000F0B6FA71
:10104000072000F0B3FA0A2000F0B0FA2E2000F0DA
:10105000ADFA302000F0AAFA252000F0A7FA2A20E5
:1010600000F0A4FA282000F0A1FA262000F09EFA51
:101070002E2000F09BFA3A2000F098FA002000F0B1
:1010800095FA012000F092FA032000F08FFA132065
:1010900000F08CFAE12000F079FA042000F086FAE2
:1010A000162000F083FA062000F080FA0D2000F0F0
:1010B0007DFA2D2000F07AFA262000F077FA23201E
:1010C00000F074FA272000F071FA272000F06EFA81
:1010D000252000F06BFA2D2000F068FA3B2000F08C
:1010E00065FA002000F062FA012000F05FFA0420A7
:1010F00000F05CFA132000F059FA3A2000F046FAAA
:10110000052000F053FABDE81040292000F03EBA57
:101110000C0C01402DE9FE4F9946DDE90D461546C0
:101120008A460746DDF8308014E00C2C17D0102CCE
:1011300020D0182C29D0202C0FD1CDF80080CDE95B
:1011400001464B462A465146384600F09BF938196D
:1011500087B2AD1C28780028E7D1BDE8FE8FCDF816
:101160000080CDE901464B462A465146384600F0FC
:1011700017F8ECE7CDF80080CDE901464B462A464A
:101180005146384600F088F8E1E7CDF80080CDE917
:1011900001464B462A465146384600F0F7F8D6E756
:1011A0002DE9FF4F83B08046119D00904FF000095C
:1011B000680700D0012000EBD50000FB05FB0520EF
:1011C0000026029006EB860000EBC6013148059A26
:1011D00010F811301278934251D100EB4100019088
:1011E000417805984078814249D10498049928446F
:1011F000401E83B208EB0500401E82B24046FFF756
:1012000042FE002739E00198002400EB070A1298FB
:101210009AF8021000284FF0010000FA04F001EAE9
:10122000000115D021B14046069A0499FFF748FE07
:1012300008F101001FFA80F80098A8EB0000A8420E
:1012400015D10498DDF80080401C80B2049012E0B3
:1012500009B1069800E0109800F08EF909F101003C
:10126000C0B2B0FBF5F1814605FB119078B1641C6A
:10127000E4B2082CCBD37F1CFFB25F45C3D3761CEE
:101280000298B6B286429DD307B0BDE8F08F4FF00A
:101290000009F0E7D44C00082DE9FF4F83B08046E9
:1012A000119D00904FF00009680700D0012000EB6D
:1012B000D50000FB05FB0520002602903248059A68
:1012C00006EB061110F811301278934250D100EB62
:1012D00041000190417805984078814248D10498B6
:1012E00004992844401E83B208EB0500401E82B2D8
:1012F0004046FFF7C8FD002738E00198002400EBC6
:10130000070A12989AF8021000284FF0010000FA1C
:1013100004F001EA000114D021B14046069A049974
:10132000FFF7CEFD08F1010000991FFA80F8A8EB45
:101330000100A84214D104988846401C80B2049051
:1013400012E009B1069800E0109800F015F909F1D3
:101350000100C0B2B0FBF5F1814605FB119078B1F8
:10136000641CE4B2082CCCD37F1CFFB25F45C4D30D
:10137000761C0298B6B28642A0D307B0BDE8F08FC3
:101380004FF00009F0E70000564D00082DE9FF4F2F
:1013900083B08046119D00904FF00009680700D08F
:1013A000012000EBD50000FB05FB05200026029084
:1013B00006EB860000EB46113148059A10F8113013
:1013C0001278934251D100EB410001904178059889
:1013D0004078814249D1049804992844401E83B240
:1013E00008EB0500401E82B24046FFF74CFD002787
:1013F00039E00198002400EB070A12989AF80210CD
:1014000000284FF0010000FA04F001EA000115D0B5
:1014100021B14046069A0499FFF752FD08F10100F8
:101420001FFA80F80098A8EB0000A84215D1049894
:10143000DDF80080401C80B2049012E009B10698EB
:1014400000E0109800F098F809F10100C0B2B0FB7C
:10145000F5F1814605FB119078B1641CE4B2082CCB
:10146000CBD37F1CFFB25F45C3D3761C0298B6B2C4
:1014700086429DD307B0BDE8F08F4FF00009F0E73A
:10148000004E00082DE9FF4F83B08046119D00906B
:101490004FF00009680700D0012000EBD50000FBE9
:1014A00005FB0520002602903248059A06EB8611BE
:1014B00010F811301278934250D100EB41000190A6
:1014C000417805984078814248D10498049928448D
:1014D000401E83B208EB0500401E82B24046FFF773
:1014E000D2FC002738E00198002400EB070A12988C
:1014F0009AF8021000284FF0010000FA04F001EA07
:10150000000114D021B14046069A0499FFF7D8FC97
:1015100008F1010000991FFA80F8A8EB0100A84229
:1015200014D104988846401C80B2049012E009B19E
:10153000069800E0109800F01FF809F10100C0B211
:10154000B0FBF5F1814605FB119078B1641CE4B263
:10155000082CCCD37F1CFFB25F45C4D3761C029805
:10156000B6B28642A0D307B0BDE8F08F4FF00009B5
:10157000F0E70000724F000810B50446000A00F0C2
:1015800015F8E0B2BDE8104000F010B810B5064CF8
:10159000216821F48041216000F008F8206840F4BF
:1015A0008040206010BD00000C0C014031B5084C9B
:1015B000206820F4005020604FF6FF730122694636
:1015C0000448FFF79DFB206840F40050206038BDC0
:1015D0000C0C014010000020094808B5416941F099
:1015E000010141614069002200F0010000901146B4
:1015F0000D20FFF771F8BDE808400D20FFF75EB839
:101600000010024070B586B0002418480094019480
:1016100002940394816941F020018161816901F0A4
:1016200020010491816941F004018161816901F027
:1016300004010491816941F00801816180690C4EC7
:1016400000F008004FF4704504900122294630460E
:10165000FEF7D0FF01200095CDE90104032003909F
:1016600069463046FEF7D6FE06B070BD0010024057
:10167000000C0140104810B50E4901604FF4827112
:10168000416000218160C1604FF400720161C0E9D6
:1016900005121022C0E90721416281620A21C1625C
:1016A000FFF7A8FA002803D0BDE81040FEF7C6BD3A
:1016B00010BD00000030014010000020FEE7FEE7F2
:1016C000704738B50B46009204460022802100F096
:1016D00008F8002804D0606D40F020006065032009
:1016E00038BD2DE9F0411D4617460E460446DDF88B
:1016F000188008E0681C06D0FEF782FFA0EB080007
:10170000A8420BD255B12068806836EA000030D07C
:101710000020B842EED10020BDE8F0812068416889
:1017200021F0E00141606068B0F5827F0BD1A068D4
:10173000B0F5004F02D0B0F5806F04D12068016889
:1017400021F040010160A06AB0F5005F09D1206876
:10175000016821F4005101602068016841F40051E2
:101760000160012084F85100002084F8500003201B
:10177000D2E70120CDE77047FEF748BF30B58FB004
:1017800028216846FEF7D5FC14210AA8FEF7D1FCF3
:1017900001210804CDE900100024029402250491DF
:1017A000CDE907504FF4E01009906846FFF792F832
:1017B00008B172B6FEE70F20CDE90A054FF480604C
:1017C000CDE90C4002210AA80E94FEF7B7FF0028CD
:1017D00001D072B6FEE70FB030BD00000D480168C1
:1017E00041F00101016041680B4A1140416001680C
:1017F0000A4A11400160016821F4802101604168BA
:1018000021F4FE0141604FF41F0181600449C003CF
:1018100008607047001002400000FFF8FFFFF6FE6E
:1018200008ED00E0FEE70907090E002804DB00F1DF
:10183000E02080F80014704700F00F0000F1E02075
:1018400080F8141D704702E008C8121F08C1002A62
:10185000FAD170477047002001E001C1121F002A31
:10186000FBD170470EB5FEF7D9FEFFF787FFFFF7F4
:10187000C9FEFFF7B1FEFFF7FDFEFFF74BFB4FF68A
:10188000FF750021A023802208460095FFF723FB67
:1018900000274FF018084FF6E0760023CDE90058F6
:1018A0000CA2194618460297FFF734FC0024334671
:1018B000224650214020FEF763FC641CE4B2202C39
:1018C000F5D9A0238022192100200095FFF703FB02
:1018D000E3E70000D6D0BEB0D4B0B5E7D7D3000060
:1018E00000000000000000000000000000000404F0
:1018F000040404000004000014140A0000000000A6
:101900000000000000000A0A1F0A0A1F0A0A00005D
:1019100000040E1505060C14150E04000000121527
:101920000D152E2C2A1200000000040A0A36151587
:101930002916000002020100000000000000000063
:101940001008080404040404080810000204040831
:10195000080808080404020000000004150E0E1513
:101960000400000000000008083E08080000000015
:101970000000000000000000020201000000000062
:10198000003F000000000000000000000000000018
:1019900000020000002010100808040402020100E8
:1019A00000000E1111111111110E000000000406AB
:1019B00004040404040E000000000E1111080402C7
:1019C000011F000000000E11100C1010110E00007D
:1019D0000000080C0C0A091F081C000000001F0171
:1019E000010F1110110E000000000C12010D131157
:1019F000110E000000001E1008080404040400007A
:101A000000000E11110E1111110E000000000E1138
:101A10001119161009060000000000000400000063
:101A200000040000000000000004000000040400A6
:101A3000000010080402020408100000000000006A
:101A40003F003F00000000000000020408101008E2
:101A50000402000000000E1111080404000400003C
:101A600000001C22292D2D1D221C00000000040452
:101A70000C0A0A1E1233000000000F12120E12127E
:101A8000120F000000001E1101010101110E0000E3
:101A900000000F1212121212120F000000001F128B
:101AA0000A0E0A02121F000000001F120A0E0A028C
:101AB0000207000000001C1201013911120C000085
:101AC00000003312121E12121233000000001F0415
:101AD00004040404041F000000003E08080808086D
:101AE00008080907000037120A060A121237000018
:101AF0000000070202020202223F000000003B1B1E
:101B00001B1B15151535000000003B1216161A1A7E
:101B10001217000000000E1111111111110E00001A
:101B200000000F12120E02020207000000000E1148
:101B300011111117190E180000000F12120E0A12BF
:101B40001237000000001E1101060810110F0000DE
:101B500000001F1504040404040E000000003312EA
:101B600012121212120C000000003312120A0A0C98
:101B7000040400000000151515150E0A0A0A0000DD
:101B800000001B0A0A04040A0A1B000000001B0ACA
:101B90000A0A0404040E000000001F0908040402DD
:101BA000121F00001C0404040404040404041C00A8
:101BB0000002020404040808081010000E080808B7
:101BC0000808080808080E00040A000000000000C9
:101BD0000000000000000000000000000000003FC6
:101BE00002040000000000000000000000000000EF
:101BF000000C121C123C000000030202020E121222
:101C0000120E000000000000001C1202120C000066
:101C100000181010101C1212123C000000000000EE
:101C2000000C121E021C000000182404041E0404F0
:101C3000041E000000000000003C120C021C221CCC
:101C400000030202020E1212123700000004040008
:101C500000060404040E000000080800000C080838
:101C60000808080700030202021A0A060A13000005
:101C70000007040404040404041F00000000000022
:101C8000000F15151515000000000000000F1212BE
:101C90001237000000000000000C1212120C0000AD
:101CA00000000000000F1212120E020700000000D8
:101CB000001C1212121C103800000000001B06024B
:101CC0000207000000000000001E020C101E0000B1
:101CD00000000004041E0404041C000000000000B6
:101CE000001B1212123C000000000000001B0A0A38
:101CF00004040000000000000015150E0A0A000090
:101D000000000000001B0A040A1B00000000000085
:101D1000003312120C08040300000000001E080427
:101D2000041E000018080808080C08080808180015
:101D30000808080808080808080808080604040431
:101D40000408040404040600160900000000000052
:101D50000000000000000000000000000000000083
:101D6000000000000000000808080808080800003B
:101D70001818000000486C24120000000000000049
:101D8000000000000000002424247F1212127F12A1
:101D9000121200000000081C2A2A0A0C1828282AFF
:101DA0002A1C080800000022251515152A5854542D
:101DB000542200000000000C1212120A762529118C
:101DC000916E000000060604030000000000000001
:101DD0000000000000402010100808080808081043
:101DE0001020400000020408081010101010100805
:101DF000080402000000000008086B1C1C6B0808A7
:101E00000000000000000000080808087F0808081B
:101E100008000000000000000000000000000000BA
:101E2000060604030000000000000000FE000000A1
:101E300000000000000000000000000000000000A2
:101E40000606000000008040402020101008080412
:101E50000402020000000018244242424242424270
:101E600024180000000000080E08080808080808E8
:101E7000083E00000000003C4242422020100804BE
:101E8000427E00000000003C4242201820404042B8
:101E9000221C0000000000203028242422227E2062
:101EA000207800000000007E0202021A2640404214
:101EB000221C0000000000382402021A264242427E
:101EC000241800000000007E2222101008080808D4
:101ED000080800000000003C42424224182442420C
:101EE000423C000000000018244242426458404036
:101EF000241C000000000000000018180000000072
:101F00001818000000000000000000080000000099
:101F10000008080400000040201008040204081013
:101F2000204000000000000000007F0000007F0053
:101F300000000000000000020408102040201008EB
:101F4000040200000000003C424246402010100005
:101F5000181800000000001C225A555555552D42F6
:101F6000221C00000000000808181414243C22421F
:101F700042E700000000001F2222221E22424242AD
:101F8000221F00000000007C4242010101010142C9
:101F9000221C00000000001F2242424242424242F4
:101FA000221F00000000003F4212121E12120242C5
:101FB000423F00000000003F4212121E12120202B5
:101FC000020700000000003C2222010101712122D1
:101FD000221C0000000000E7424242427E42424290
:101FE00042E700000000003E08080808080808084A
:101FF000083E00000000007C10101010101010109F
:102000001010110F0000007722120A0E0A1212227D
:102010002277000000000007020202020202020210
:10202000427F000000000077363636362A2A2A2AF8
:102030002A6B0000000000E346464A4A52525262B0
:10204000624700000000001C2241414141414141E2
:10205000221C00000000003F424242423E020202B7
:10206000020700000000001C2241414141414D5344
:10207000321C60000000003F4242423E1212222207
:1020800042C700000000007C424202041820404287
:10209000423E00000000007F4908080808080808C0
:1020A000081C0000000000E7424242424242424215
:1020B000423C0000000000E742422224241414188D
:1020C000080800000000006B49494949555536226F
:1020D00022220000000000E74224241818182424BB
:1020E00042E70000000000772222141408080808C4
:1020F000081C00000000007E21201010080404428B
:10210000423F000000780808080808080808080886
:1021100008087800000002020404080808101020D3
:1021200020204040001E1010101010101010101031
:1021300010101E00003844000000000000000000E5
:10214000000000000000000000000000000000008F
:10215000000000FF00060800000000000000000072
:1021600000000000000000000000003C42784442F3
:1021700042FC0000000000030202021A2642424212
:10218000261A00000000000000000038440202028D
:102190004438000000000060404040784442424221
:1021A00064D80000000000000000003C427E0202F3
:1021B000423C0000000000F08808087E080808087B
:1021C000083E0000000000000000007C22221C02EB
:1021D0003C42423C000000030202023A46424242B4
:1021E00042E700000000000C0C00000E0808080880
:1021F000083E000000000030300000382020202081
:102200002020221E0000000302020272120A16128F
:10221000227700000000000E0808080808080808D7
:10222000083E0000000000000000007F92929292A1
:1022300092B70000000000000000003B464242420E
:1022400042E70000000000000000003C4242424221
:10225000423C0000000000000000001B26424242F9
:10226000221E0207000000000000007844424242A3
:10227000447840E000000000000000774C040404B3
:10228000041F0000000000000000007C42023C40EF
:10229000423E0000000000000008083E0808080850
:1022A000083000000000000000000063424242428B
:1022B00062DC000000000000000000E7422424145B
:1022C0000808000000000000000000EB49495555D7
:1022D00022220000000000000000007624181818D8
:1022E000246E000000000000000000E742242414D7
:1022F00018080807000000000000007E22100808EF
:10230000447E000000C0202020202010202020201B
:102310002020C000101010101010101010101010FD
:10232000101010100006080808080810080808080F
:10233000080806000C32C200000000000000000087
:10234000000000000000000000000000000000008D
:10235000000000000000000000000000000000007D
:10236000000000000000000000000000000000006D
:10237000000000000000000000000000600060009D
:1023800060006000600060006000400020002000ED
:1023900020000000000000006000600060000000FD
:1023A0000000000000000000600660063003980195
:1023B0008800440000000000000000000000000051
:1023C000000000000000000000000000000000000D
:1023D00000000000000000000000000010021002D9
:1023E00010021002FE07FE0708020801080108019A
:1023F0000801FE07FE0704010401040104010000B6
:102400000000000000000000000040004000F0015B
:1024100058034C03CC034C0058007000E000C0018E
:10242000C00140034C035C034C034801F000400032
:102430004000000000000000000000000E010A0142
:10244000910091009100510051003A00AE03A002AA
:1024500050045004480448044804840284030000E3
:1024600000000000000000000000000038006C00C8
:102470006C006C006C006C002C0098071C011A01A9
:10248000330133016301E300C308C6093C070000C0
:1024900000000000000000000C001C0010001000F4
:1024A0000800040000000000000000000000000020
:1024B000000000000000000000000000000000001C
:1024C0000000000000000000000400020001800085
:1024D000800040004000200020002000200020005C
:1024E0002000200040004000800080000001000229
:1024F00000040000000000000200040008001000BA
:10250000100020002000400040004000400040003B
:1025100040004000200020001000100008000400CF
:1025200002000000000000000000000000000000A9
:102530004000C0004000460C4E0FD001F0015E0F7D
:10254000460C400040004000000000000000000079
:10255000000000000000000000000000000000007B
:10256000000040004000400040004000FE0F4000DE
:10257000400040004000400000000000000000005B
:10258000000000000000000000000000000000004B
:10259000000000000000000000000000000000003B
:1025A00000000000000000000C001C0010001000E3
:1025B000080004000000000000000000000000000F
:1025C000000000000000000000000000FE07000006
:1025D00000000000000000000000000000000000FB
:1025E00000000000000000000000000000000000EB
:1025F00000000000000000000000000000000000DB
:1026000000000000000000001C001C001C00000076
:1026100000000000000000000004000600020003AB
:1026200000010001800080004000400060002000A8
:10263000200010001000080008000C000400060034
:102640000200000000000000000000000000F00098
:1026500098010C030C030606060606060606060687
:102660000606060606060C030C039801F00000009F
:10267000000000000000000000000000000040001A
:102680007C0060006000600060006000600060002E
:10269000600060006000600060006000FC030000FB
:1026A0000000000000000000000000000000F80032
:1026B0008401020306030603000300018001C00039
:1026C000600020001000080204020602FE03000061
:1026D0000000000000000000000000000000780082
:1026E000C6008601860180018001C0007000800163
:1026F000000100030003060306038601F800000042
:102700000000000000000000000000000000800148
:102710008001C001A001A00190018801880184010D
:102720008201FE0F8001800180018001E00700002E
:102730000000000000000000000000000000FC039A
:1027400004000400040004000400F4008C010403ED
:10275000000300030603060382018401F800000061
:102760000000000000000000000000000000E00188
:1027700018030C030C0004000600E60116030E0605
:1027800006060606060604060C021803F000000002
:102790000000000000000000000000000000F8073A
:1027A0000C060402040100010001800080004000CA
:1027B00040004000600060006000600060000000B9
:1027C0000000000000000000000000000000F80110
:1027D0000C030606060606060C021C03F000C801E0
:1027E0000C0306060606060606060C03F0010000AA
:1027F0000000000000000000000000000000F000E9
:102800000C010C03060206060606060606078C06E1
:1028100078060006000300030C018C01780000001C
:1028200000000000000000000000000000000000A8
:102830000000000000000000E000E000E0000000F8
:102840000000000000000000E000E000E0000000E8
:102850000000000000000000000000000000000078
:1028600000000000000000006000600000000000A8
:102870000000000000000000000060006000400058
:102880002000200000000000000000000004000202
:102890000001800040002000100008000400080033
:1028A0001000200040008000000100020004000031
:1028B0000000000000000000000000000000000018
:1028C0000000000000000000FE0700000000000003
:1028D000FE070000000000000000000000000000F3
:1028E00000000000000000000000000004000800DC
:1028F00010002000400080000001000200040002DF
:1029000000018000400020001000080004000000CA
:102910000000000000000000000000000000E003D4
:102920001806040C040C0C0C0C0C00078001400071
:102930004000400000000000E000E000E000000077
:10294000000000000000000000000000E00018038C
:102950000C02CC0564056605A605B604B604B604EB
:10296000B604B602E4010C040C021803F0000000E7
:1029700000000000000000000000000000006000F7
:1029800060005000D000900090008800880108018D
:10299000F801040304030402020202060F0F000000
:1029A0000000000000000000000000000000FE0029
:1029B0008C030C030C030C030C038C01FC000C03B4
:1029C0000C020C060C060C060C060C03FE010000A3
:1029D0000000000000000000000000000000E00314
:1029E00018030C060C04040406000600060006008A
:1029F0000600060006040C040C021803F000000098
:102A000000000000000000000000000000007F0047
:102A10008C010C030C030C060C060C060C060C06B1
:102A20000C060C060C060C030C038C017F00000046
:102A30000000000000000000000000000000FF0394
:102A4000060306040604060086008600FE008600D3
:102A5000860086000600060406040602FF03000046
:102A60000000000000000000000000000000FF0364
:102A7000060306040604060086008600FE008600A3
:102A80008600860006000600060006001F00000003
:102A90000000000000000000000000000000F00046
:102AA00018010C020C0204020600060006000600D3
:102AB000C60F060306030C030C031803F000000006
:102AC00000000000000000000000000000000F0FE8
:102AD000060606060606060606060606FE0706069D
:102AE0000606060606060606060606060F0F000080
:102AF0000000000000000000000000000000FC03D7
:102B000060006000600060006000600060006000C5
:102B1000600060006000600060006000FC03000076
:102B20000000000000000000000000000000F807A6
:102B3000C000C000C000C000C000C000C000C00095
:102B4000C000C000C000C000C000C000C000C6007F
:102B500066003C0000000000000000000000CF0301
:102B60008601C60046002600160036002E006E00C4
:102B70004600C60086008601060106038F07000096
:102B800000000000000000000000000000001F0026
:102B90000600060006000600060006000600060005
:102BA000060006000600060406040602FF030000F5
:102BB0000000000000000000000000000000070707
:102BC000860386038E038E034E034E034A035A0385
:102BD0005A033A0332033203320312038707000019
:102BE00000000000000000000000000000008E0F48
:102BF0000C021C021C02340234026402640244020D
:102C0000C402840284038403040304031F0200003B
:102C10000000000000000000000000000000F000C4
:102C200098010C030C0206060606060606060606B2
:102C30000606060606060C020C039801F0000000CA
:102C40000000000000000000000000000000FF0085
:102C50000603060606060606060606068603FE00A8
:102C60000600060006000600060006001F00000021
:102C70000000000000000000000000000000F00064
:102C800098010C030C020606060606060606060652
:102C90000606060676064C02CC039801F000800773
:102CA0000003000000000000000000000000FF0121
:102CB000060306060606060606060603FE0046008E
:102CC000C600860086010603060306060F0E0000F6
:102CD0000000000000000000000000000000F802FA
:102CE0000C030602060206000E003C00F800E0039A
:102CF000800300070206020606060C03F00100002E
:102D00000000000000000000000000000000FE07BE
:102D1000620461086108600060006000600060009B
:102D2000600060006000600060006000F80100006A
:102D300000000000000000000000000000001E076E
:102D40000C020C020C020C020C020C020C020C0213
:102D50000C020C020C020C020C021801F000000024
:102D600000000000000000000000000000000F074D
:102D70000602040104010C010C018800880098007F
:102D8000980050005000700030002000200000002B
:102D90000000000000000000000000000000F70E2E
:102DA000620442044604460464026402E402E4024B
:102DB0009C029C019801980188018800880000000D
:102DC00000000000000000000000000000009E075E
:102DD0000C01080118019000B000600020006000A4
:102DE0006000D00090008801080104038E070000F5
:102DF00000000000000000000000000000000F0FB5
:102E0000060404020C0208011801B800B0007000AA
:102E1000600060006000600060006000F801000079
:102E20000000000000000000000000000000FC079F
:102E30000C020603020180018000400040002000D7
:102E400020001000180008040C040402FE03000017
:102E50000000000000000000E0032000200020002F
:102E60002000200020002000200020002000200062
:102E70002000200020002000200020002000200052
:102E8000E003000000000000000000000400040057
:102E90000800080010001000100020002000400072
:102EA0004000C0008000800000010001000200021C
:102EB00000020004000000007C00400040004000D0
:102EC0004000400040004000400040004000400002
:102ED00040004000400040004000400040004000F2
:102EE0007C0000000000600090000801000000006D
:102EF00000000000000000000000000000000000D2
:102F000000000000000000000000000000000000C1
:102F100000000000000000000000000000000000B1
:102F200000000000000000000000000000000000A1
:102F30000000000000000000000000000000000091
:102F40000000FF0F000000001800600000000000FB
:102F50000000000000000000000000000000000071
:102F60000000000000000000000000000000000061
:102F70000000000000000000000000000000000051
:102F80000000000000000000F0010C030C0300032F
:102F9000E0031C030E03060306038E0B7C0E0000E9
:102FA00000000000000000000000000008000E000B
:102FB0000C000C000C000C00CC013C031C060C06A1
:102FC0000C060C060C060C060C021C03E4010000A7
:102FD00000000000000000000000000000000000F1
:102FE0000000000000000000F0008C018C01860150
:102FF00006000600060006020C020C01F0000000AC
:103000000000000000000000000000000002C003FB
:10301000000300030003000378038C030C03060382
:10302000060306030603060304038C077801000069
:103030000000000000000000000000000000000090
:103040000000000000000000E001180308020C0668
:103050000C06FC070C000C0018041802E00100002C
:103060000000000000000000000000000000C0039D
:103070006006300630003000FE01300030003000C5
:10308000300030003000300030003000FC01000023
:103090000000000000000000000000000000000030
:1030A0000000000000000000F007D8068C018C0131
:1030B0008C019801F8000C00FC00CC030603060309
:1030C0008E03F800000000000000000008000E0061
:1030D0000C000C000C000C00EC011C030C030C0396
:1030E0000C030C030C030C030C030C039E070000E1
:1030F0000000000000000000000000000000600070
:1031000060000000000040007C0060006000600083
:10311000600060006000600060006000FC03000070
:103120000000000000000000000000000000C001DE
:10313000C001000000000001F00180018001800159
:103140008001800180018001800180018001800177
:10315000CC007C00000000000000000008000E0011
:103160000C000C000C000C008C038C008C004C003C
:103170006C005C008C008C010C010C039E070000AD
:1031800000000000000000000000000040007C0083
:10319000600060006000600060006000600060002F
:1031A000600060006000600060006000FC030000E0
:1031B000000000000000000000000000000000000F
:1031C00000000000000000003707EE0666066606F5
:1031D000660666066606660666066606FF0F000059
:1031E00000000000000000000000000000000000DF
:1031F0000000000000000000EE011C030C030C03A3
:103200000C030C030C030C030C030C039E070000BF
:1032100000000000000000000000000000000000AE
:103220000000000000000000F00098010C030606FA
:1032300006060606060606060C030C03F000000050
:10324000000000000000000000000000000000007E
:103250000000000000000000EE011C030C060C063C
:103260000C060C060C060C060C031C03EC010C00EF
:103270000C003E0000000000000000000000000004
:10328000000000000000000078028C030C0306031D
:10329000060306030603060304038C0378030003F6
:1032A0000003C00700000000000000000000000054
:1032B00000000000000000009F03580638061800B8
:1032C000180018001800180018001800FF0000006F
:1032D00000000000000000000000000000000000EE
:1032E0000000000000000000F0031C030C020C02B0
:1032F0003800F000C003040304038C03FC01000049
:1033000000000000000000000000000000000000BD
:103310002000200030003000FE013000300030007E
:10332000300030003000300030023002E001000098
:10333000000000000000000000000000000000008D
:1033400000000000000008028E030C030C030C03B5
:103350000C030C030C030C030C039C077801000006
:10336000000000000000000000000000000000005D
:1033700000000000000000001E070C020801080108
:1033800018019000B000B000600060002000000054
:10339000000000000000000000000000000000002D
:1033A0000000000000000000F70E62044604640202
:1033B0006402EC029C019801980198010800000049
:1033C00000000000000000000000000000000000FD
:1033D0000000000000000000BC0718011001B00050
:1033E00060006000E0009000080108039E070000F4
:1033F00000000000000000000000000000000000CD
:1034000000000000000000009E07080108010801FC
:1034100090009000B000600060006000200020007C
:1034200024001C000000000000000000000000005C
:103430000000000000000000FC018401C400440002
:10344000600020003000180208020C03FC0100009C
:1034500000000000000000000003800080008000E9
:10346000800080008000800080004000200040003C
:10347000800080008000800080008000800080004C
:1034800000030000400040004000400040004000B9
:10349000400040004000400040004000400040002C
:1034A000400040004000400040004000400040001C
:1034B00040004000000000000C0010001000100050
:1034C000100010001000100010002000400020002C
:1034D000100010001000100010001000100010006C
:1034E0000C00000000001C002204C2048003000045
:1034F00000000000000000000000000000000000CC
:1035000000000000000000000000000000000000BB
:1035100000000000000000000000000000000000AB
:10352000000000000000000000000000000000009B
:10353000000000000000000000000000000000008B
:10354000000000000000000000000000000000007B
:103550000000000000000000000000000000C001AA
:10356000C001C001C001C001C001C00180008000D5
:1035700080008000800080008000000000000000CB
:1035800000008001C003C0038001000000000000B3
:1035900000000000000000000000E01CE01CF01E25
:1035A000700E3807180308018400000000000000B6
:1035B000000000000000000000000000000000000B
:1035C00000000000000000000000000000000000FB
:1035D00000000000000000000000000000000000EB
:1035E00020102010201020102010FE7FFE7F1008D9
:1035F000100810081008100810081008FE7FFE7F41
:10360000080408040804080408040000000000007E
:1036100000000000000000000000000000010001A8
:10362000C007601910311831183918393801700184
:10363000E001C0038007000F001D003900311C317C
:103640001C310C310C11180DE007000100010001C4
:10365000000000000000000000000000000000006A
:103660001C1036186308630C63046304630263026E
:103670006301361D9C378022806340634063206372
:103680002063306310221836081C00000000000080
:10369000000000000000000000000000000000002A
:1036A000F00098018C018C018C018C018C00CC0005
:1036B0007800183E1C083608320863046304C3040B
:1036C000C303834306438E26781C000000000000DD
:1036D000000000000000000000001C003C003C0056
:1036E0003000300010000C00060000000000000058
:1036F00000000000000000000000000000000000CA
:1037000000000000000000000000000000000000B9
:103710000000000000000000000000400020001039
:103720000008000C000400060003000300038001F1
:1037300080018001800180018001800180010003FF
:103740000003000300060006000C00080010002023
:10375000004000000000000000000200040008001B
:103760001000300020006000C000C000C0008001D8
:103770008001800180018001800180018001C00002
:10378000C000C000600060003000100008000400AD
:103790000200000000000000000000000000000027
:1037A0000000000000018003800300011C713C79CF
:1037B000783DC0070001C007783D3C791C710001CD
:1037C0008003800380010000000000000000000072
:1037D00000000000000000000000000000000000E9
:1037E00000000000000000010001000100010001D4
:1037F00000010001FC7F0001000100010001000147
:1038000000010001000000000000000000000000B6
:1038100000000000000000000000000000000000A8
:103820000000000000000000000000000000000098
:103830000000000000000000000000000000000088
:10384000000000001C003C003C0030003000100074
:103850000C00060000000000000000000000000056
:103860000000000000000000000000000000000058
:1038700000000000FE7F00000000000000000000CB
:103880000000000000000000000000000000000038
:103890000000000000000000000000000000000028
:1038A0000000000000000000000000000000000018
:1038B0000000000000000000000000000000000008
:1038C000000018003C003C00180000000000000050
:1038D0000000000000000000000000400060002028
:1038E0000030001000180008000C00040006000260
:1038F0000003000180018000C00040006000200043
:1039000030001000180008000C000400060002003F
:1039100000000000000000000000000000000000A7
:10392000C007600C30181830183018200C600C607C
:103930000C600C600C600C600C600C600C6018205B
:10394000183018303018600CC0070000000000006C
:103950000000000000000000000000000000000067
:1039600000018001F8018001800180018001800157
:10397000800180018001800180018001800180013F
:10398000800180018001C003F81F000000000000DA
:103990000000000000000000000000000000000027
:1039A000E007101C0818043004300C300C300030D4
:1039B00000180008000400020001800040002020E0
:1039C000102008200430FC1FFC1F00000000000035
:1039D00000000000000000000000000000000000E7
:1039E000E003180E0C0C0C180C180C180018000C26
:1039F0000006C003000E00180010003000300C302C
:103A00000C300C100C18180CE00300000000000033
:103A100000000000000000000000000000000000A6
:103A2000000C000E000E000F800E800E400E600E87
:103A3000200E100E100E080E040E040EFE7F000E57
:103A4000000E000E000E000E000EC07F00000000F1
:103A50000000000000000000000000000000000066
:103A6000F03FF03F10001000100008000800C807E9
:103A7000280C1818081000300030003000300C30CE
:103A80000C3004180418080CF003000000000000BB
:103A90000000000000000000000000000000000026
:103AA000800FC010203010301800180008000C00E3
:103AB0008C0F6C183C301C600C600C600C600C604F
:103AC0001860182030306018C007000000000000A7
:103AD00000000000000000000000000000000000E6
:103AE000F83FF83F1C100C0804080404000400020E
:103AF0000002000100010001800080008000C00081
:103B0000C000C000C000C000C000000000000000F5
:103B100000000000000000000000000000000000A5
:103B2000E007300C18180C300C300C301C303818F2
:103B30007008E007B007180E0C1C06380630063077
:103B4000063006300C18180CE003000000000000DE
:103B50000000000000000000000000000000000065
:103B6000E00318040C080C18061006300630063066
:103B7000063006380C3C1836F031003000180018BA
:103B800000180C0C0C060C03F001000000000000F3
:103B90000000000000000000000000000000000025
:103BA0000000000000000000000000000000800194
:103BB000C003C003800100000000000000000000FE
:103BC00000008001C003C00380010000000000006D
:103BD00000000000000000000000000000000000E5
:103BE0000000000000000000000000000000C00015
:103BF000C000000000000000000000000000000005
:103C0000000000000000C000C000800080004000F4
:103C10004000000000000000000000000000002044
:103C2000001000080004000600038001C0006000CE
:103C3000300018000C00180030006000C000800147
:103C4000000300060004000800100020000000002F
:103C50000000000000000000000000000000000064
:103C60000000000000000000000000000000FE7FD7
:103C700000000000000000000000FE7F00000000C7
:103C80000000000000000000000000000000000034
:103C90000000000000000000000000000000040020
:103CA0000800100020006000C00080010003000632
:103CB000000C001800300018000C00060003800102
:103CC000C000600020001000080004000000000098
:103CD0000000000000000000000000000000C0071D
:103CE0003018083008600C601C601C601C600030DC
:103CF000001C0006000180008000800080000000A1
:103D000000008001C003C00380010000000000002B
:103D100000000000000000000000000000000000A3
:103D2000C0076018103018200C2F8C4D864CC64CE4
:103D3000C64C664C66446644662666266615CC1CF0
:103D40000C40082018303018C007000000000000A8
:103D50000000000000000000000000000000000162
:103D6000C001C001C0014001600320032003200303
:103D70003006100610061006F80F080C080C080C88
:103D80000C0C0418041806181F7C0000000000002A
:103D90000000000000000000000000000000000023
:103DA000FE07181C1838183018301830183018183A
:103DB000180CF807181818301820186018601860C8
:103DC0001860186018301818FE0F0000000000007E
:103DD00000000000000000000000000000000000E3
:103DE000C0276038103018200C400C40040006003A
:103DF00006000600060006000600060006000C404D
:103E00000C400C2018303018C007000000000000E3
:103E100000000000000000000000000000000000A2
:103E2000FE03180E18181830183018301860186073
:103E300018601860186018601860186018601830F2
:103E4000183018101818180EFE03000000000000AB
:103E50000000000000000000000000000000000062
:103E6000FE3F18301820186018401800180818086D
:103E7000180CF80F180C180818081800180018006B
:103E80001840184018201830FE3F000000000000C5
:103E90000000000000000000000000000000000022
:103EA000FE7F1870184018C01880180018101810DD
:103EB0001818F81F181818101810180018001800F3
:103EC00018001800180018007E0000000000000014
:103ED00000000000000000000000000000000000E2
:103EE000C013701C101018100C200C2004000600C9
:103EF000060006000600060006FC063006300C3000
:103F00000C30183018303008C007000000000000E6
:103F100000000000000000000000000000000000A1
:103F20003F7E0C180C180C180C180C180C180C18D8
:103F30000C180C18FC1F0C180C180C180C180C186A
:103F40000C180C180C180C183F7E00000000000024
:103F50000000000000000000000000000000000061
:103F6000F81F8001800180018001800180018001B3
:103F70008001800180018001800180018001800139
:103F80008001800180018001F81F00000000000016
:103F90000000000000000000000000000000000021
:103FA000E07F000600060006000600060006000688
:103FB00000060006000600060006000600060006D1
:103FC0000006000600060006000600060E060E03A8
:103FD0008E01FC0000000000000000000000000056
:103FE0007E7C181818081804180618021801980181
:103FF0009801D801B803380318071806180E180CD2
:10400000181C1818183018307EFC00000000000042
:1040100000000000000000000000000000000000A0
:104020007E0018001800180018001800180018006A
:1040300018001800180018001800180018001800C0
:104040001840184018201830FE3F00000000000003
:104050000000000000000000000000000000000060
:104060001FF81C381C381C381C3C343434343434AD
:10407000343674326432643264326431C431C431EF
:10408000C431C430C43084309FFC00000000000004
:104090000000000000000000000000000000000020
:1040A0001F7C1C103C103410341074106410E41089
:1040B000C410C41184118413041304170416041EBD
:1040C000041C041C041C04181F180000000000003D
:1040D00000000000000000000000000000000000E0
:1040E000C003300C181808100C300C300660066045
:1040F00006600660066006600660066006600C20CA
:104100000C3008101818300CC0030000000000002C
:10411000000000000000000000000000000000009F
:10412000FE0F1818183018601860186018601860B2
:1041300018301818F80F1800180018001800180088
:1041400018001800180018007E0000000000000091
:10415000000000000000000000000000000000005F
:10416000C003300C18180C100C300C2006600660D0
:104170000660066006600660066006600660E46130
:104180002C331C321816300EC007004C007C00384F
:10419000000000000000000000000000000000001F
:1041A000FE07181C18381830183018301830181836
:1041B000180CF80798031803180718061806180EA5
:1041C000180C180C181C18187E780000000000004D
:1041D00000000000000000000000000000000000DF
:1041E000E027303818300C200C200C000C00180090
:1041F0007800E003800F001E00380070006004604B
:104200000460086018303818C80F00000000000073
:10421000000000000000000000000000000000009E
:10422000FC3F8C21846182418241800180018001B8
:104230008001800180018001800180018001800176
:104240008001800180018001E00700000000000083
:10425000000000000000000000000000000000005E
:104260003F7C0C100C100C100C100C100C100C10CF
:104270000C100C100C100C100C100C100C100C105E
:104280000C100C1008083804E003000000000000C7
:10429000000000000000000000000000000000001E
:1042A0003EF8182018201820301030103010301030
:1042B000600860086008E00CC004C004C00480030B
:1042C0008003800380030001000100000000000063
:1042D00000000000000000000000000000000000DE
:1042E000DFF38661862186218C210C218C238C139F
:1042F0008C138C134C1358125816580E380E380E57
:10430000380E300C100410041004000000000000EF
:10431000000000000000000000000000000000009D
:104320007E3E180838083004300470026002E00154
:10433000C001C00180018003400340072006200621
:10434000100C100C081808183E7C0000000000003B
:10435000000000000000000000000000000000005D
:104360007E7C1C10181018083008300C7004600493
:104370006002C002C002C001800180018001800192
:104380008001800180018001E00700000000000042
:10439000000000000000000000000000000000001D
:1043A000F83F18180818040C040E00060007000354
:1043B00080038001C001C000E00060007000300098
:1043C000382018201C100C18FE1F000000000000F0
:1043D00000000000000000000000C03F400040005E
:1043E00040004000400040004000400040004000CD
:1043F00040004000400040004000400040004000BD
:104400004000400040004000400040004000C03FED
:104410000000000000000000000000000000080094
:1044200018001800100030002000600060004000FC
:10443000C00080008001800100010003000200062E
:1044400000060004000C00080018001800100030DE
:1044500000200000000000000000FC030002000239
:10446000000200020002000200020002000200023C
:10447000000200020002000200020002000200022C
:104480000002000200020002000200020002FC031F
:10449000000000000000000000008007C0062008A7
:1044A00010100000000000000000000000000000EC
:1044B00000000000000000000000000000000000FC
:1044C00000000000000000000000000000000000EC
:1044D00000000000000000000000000000000000DC
:1044E00000000000000000000000000000000000CC
:1044F00000000000000000000000000000000000BC
:1045000000000000000000000000000000000000AB
:104510000000FFFF0000000000007800C000000164
:10452000000000000000000000000000000000008B
:10453000000000000000000000000000000000007B
:10454000000000000000000000000000000000006B
:10455000000000000000000000000000000000005B
:104560000000000000000000000000000000F00358
:1045700018060C0C0C0C000C800F700C1C0C0C0C96
:10458000060C060C064C0C4FF8380000000000002A
:10459000000000000000000000000000000010000B
:1045A0001E00180018001800180018001800180F36
:1045B000D8183830386018601860186018601860B3
:1045C0001860182038307818C80700000000000074
:1045D00000000000000000000000000000000000DB
:1045E0000000000000000000000000000000C00704
:1045F000700C181818180C180C000C000C000C008B
:104600000C20182018103008C0070000000000001F
:10461000000000000000000000000000000000108A
:10462000001E001800180018001800180018E01BE1
:10463000301C181818180C180C180C180C180C181A
:104640000C180818181C307AE0090000000000005F
:10465000000000000000000000000000000000005A
:104660000000000000000000000000000000C00783
:10467000300C181808100C300C30FC3F0C000C00EB
:104680000C00182018107018C0070000000000006F
:10469000000000000000000000000000000000001A
:1046A000003E80C380C0C0C0C000C000C000FC1F6E
:1046B000C000C000C000C000C000C000C000C000FA
:1046C000C000C000C000C000F80F000000000000E3
:1046D00000000000000000000000000000000000DA
:1046E0000000000000000000000000000000C07793
:1046F000306C10181818181818181018300CF0070B
:1047000018001800F00FF03F08700C600C600C608F
:104710003838E00F0000000000000000000010002A
:104720001E00180018001800180018001800980F34
:10473000D818383018301830183018301830183071
:1047400018301830183018307EFC000000000000CF
:104750000000000000000000000000000000000059
:104760008003800380030000000000000001F801C6
:104770008001800180018001800180018001800131
:104780008001800180018001F81F0000000000000E
:104790000000000000000000000000000000000019
:1047A0000038003800380000000000000010801FB2
:1047B0000018001800180018001800180018001839
:1047C0000018001800180018001800180018180C1D
:1047D0001806F003000000000000000000001000B8
:1047E0001E00180018001800180018001800183EC5
:1047F000180C1806180318019801D8013803180777
:104800001806180C181C18187E7C00000000000008
:104810000000000000000000000000000000000197
:10482000F801800180018001800180018001800108
:104830008001800180018001800180018001800170
:104840008001800180018001F81F0000000000004D
:104850000000000000000000000000000000000058
:104860000000000000000000000000000800EE1C36
:104870009C338C318C318C318C318C318C318C313E
:104880008C318C318C318C31DE7B000000000000DB
:104890000000000000000000000000000000000018
:1048A00000000000000000000000000010001E0FCB
:1048B000D8183830183018301830183018301830F0
:1048C00018301830183018307EFC0000000000004E
:1048D00000000000000000000000000000000000D8
:1048E0000000000000000000000000000000C00701
:1048F000701C103018300C600C600C600C600C6088
:104900000C60183018303018C0070000000000009C
:104910000000000000000000000000000000000097
:1049200000000000000000000000000010009E0FCA
:10493000581838301820186018601860186018600F
:1049400018601830383078189807180018001800C8
:1049500018007E00000000000000000000000000C1
:104960000000000000000000000000000000C02364
:10497000303C183818300C300C300C300C300C3007
:104980000C3008301838303CE03300300030003054
:10499000003000FC000000000000000000000000EB
:1049A00000000000000000000000000060007E3CED
:1049B00060666061E000E000600060006000600030
:1049C0006000600060006000FE0700000000000062
:1049D00000000000000000000000000000000000D7
:1049E0000000000000000000000000000000E027C0
:1049F00030381830182018007000E003800F001CB9
:104A0000043004300C301C18EC0F000000000000D3
:104A10000000000000000000000000000000000096
:104A200000000000800080008000C000E000FC1F4B
:104A3000C000C000C000C000C000C000C000C00076
:104A4000C000C020C0208011000F00000000000046
:104A50000000000000000000000000000000000056
:104A600000000000000000000000000010201E3CBC
:104A700018301830183018301830183018301830F6
:104A800018301830183830F4E0130000000000002F
:104A90000000000000000000000000000000000016
:104AA00000000000000000000000000000007E3C4C
:104AB00018181808380830043004700260026002C8
:104AC000E001C001C001C000800000000000000043
:104AD00000000000000000000000000000000000D6
:104AE0000000000000000000000000000000DFF7F0
:104AF0008E630C238C238C23981398135816581606
:104B0000700E700E700E20042004000000000000E3
:104B10000000000000000000000000000000000095
:104B20000000000000000000000000000000FC3E4B
:104B300070087004E004C002C001800380034007D5
:104B40006006200C100C18183E7E000000000000CB
:104B50000000000000000000000000000000000055
:104B600000000000000000000000000000007E7C4B
:104B70001818180830083008300460046004C002B7
:104B8000C002C0028001800180018000800080009E
:104B90004C003C000000000000000000000000008D
:104BA0000000000000000000000000000000FC1FEA
:104BB0000C0C040E0406000380038001C000E0001A
:104BC0007020302038301C18FC1F0000000000004E
:104BD0000000000000000000000000300008000499
:104BE00000040004000400040004000400040004A5
:104BF000000400028001000200040004000400041C
:104C00000004000400040004000400040004000880
:104C1000003000000001000100010001000100015E
:104C2000000100010001000100010001000100017C
:104C3000000100010001000100010001000100016C
:104C4000000100010001000100010001000100015C
:104C5000000100010000000000000C001000200016
:104C60002000200020002000200020002000200044
:104C70002000400080014000200020002000200093
:104C80002000200020002000200020002000100034
:104C90000C00000000003800C400864002610022C1
:104CA000001C0000000000000000000000000000E8
:104CB00000000000000000000000000000000000F4
:104CC00000000000000000000000000000000000E4
:104CD00000000000D6D0200020002000FE032202A9
:104CE00022022202FE032202200020002000BEB089
:104CF000FC010401FC010401FC012000FF07040188
:104D0000FC01200024013202D4B0FE070204FA04A0
:104D100002040204FE05520452044A0586050204F8
:104D2000FE07B5E710001000FF0111011101FF019E
:104D300011011101FF0111041004E007D7D3000095
:104D4000FC018000400020002000FF072000200020
:104D5000200020003800D6D0800080008000800035
:104D6000FC1F84108410841084108410FC1F841095
:104D70008000800080008000BEB0F80F0808F80FA7
:104D80000808F80F8000FF7F0000F80F08080808E7
:104D9000F80F80008410A2204000D4B00000FE3F35
:104DA0000220F22702200220FA2F22212221222192
:104DB000122912290A2E0220FE3F0220B5E78000A8
:104DC00080008000FC1F841084108410FC1F84105D
:104DD00084108410FC1F845080408040007FD7D313
:104DE0000000FE1F00080004000280018000FF7F19
:104DF000800080008000800080008000A0004000D3
:104E0000D6D00000000000000018000008000008D4
:104E100000000800080818F8FF1F180818180818DC
:104E2000180818180818180818180818F8FF1F0884
:104E3000080800080000080000080000080000182A
:104E400000001800001800000000BEB000000000C4
:104E50000000400006C0FF07400006C0FF074000FA
:104E600006C0FF07400802003000FEFF3F000000C0
:104E7000C0FF07C00002C00002C00002C0FF0380E4
:104E8000100080110160100E3010180C1E30001C34
:104E900000000000D4B0000000000000080030F85E
:104EA000FF1F08001008C010083F1008001008007D
:104EB00010080013C8FF1008221008221008221042
:104EC00008221008211208211488601648C01328EF
:104ED0000010080010F8FF1F080010000000B5E7E0
:104EE000000000000000001800000800000800009A
:104EF0000800F0FF0F100804100804100804100840
:104F000004F0FF0710080410080410080410080437
:104F1000F0FF07100800000810000810000820002B
:104F2000183000F01F000000D7D300000000000080
:104F3000000004F0FF0F00000600000100C00000A8
:104F40002800001800001800001830FEFF7F00182D
:104F500000001800001800001800001800001800D9
:104F6000001800001800001800001F00000C0000CE
:104F70000000D6D00000000000000000008000000B
:104F8000008001000080010000800100008001001D
:104F9000008001001080010CF0FFFF0F3080010441
:104FA000308001043080010430800104308001042D
:104FB000308001043080010430800104F0FFFF07DD
:104FC0003080010430800104008001000080010075
:104FD00000800100008001000080010000800100CD
:104FE00000800100008001000080010000800000BE
:104FF00000000000BEB00000000000000000000043
:1050000000000001800100FFFF0100038001000398
:10501000800100FFFF01000380010003800100FF09
:10502000FF0100818100000003000000031CFCFF61
:10503000FF3F000040000003C00100FFFF0100032C
:10504000C0000003C0000003C00000FFFF0000011B
:10505000410000040100000E710000078101800181
:1050600001076000010E1898011C04E0011800C03F
:10507000000000000000D4B00000000000000000AC
:1050800000000008F0FFFF1F3000000C3000000C93
:105090003000100C30FE3F0C3004000C3000000CCF
:1050A0003000000C3000000C3000C00CF0FFFF0D91
:1050B0003030060E3030060C3010060C3010060C66
:1050C0003010060C3018860C3018860C3008060D8F
:1050D000300C860D3006EE0F3002FC0D3001000C56
:1050E000F000000C3000000CF0FFFF0F3000000C4F
:1050F0001000000400000000B5E700000000000000
:10510000000000C0000000C0010000C0000000C09E
:10511000000000C0000000C00000E0FFFF0360C00E
:10512000000360C0000360C0000360C0000360C0F3
:10513000000360C00003E0FFFF0360C0000360C025
:10514000000360C0000360C0000360C00003E0FF14
:10515000FF0360C0000160C0000000C0000800C084
:10516000001000C0001000C0001800C0013800800E
:10517000FF1F0000000000000000D7D30000000067
:10518000000000000000000000000003C0FFFF0757
:10519000000080070000C000000060000000180050
:1051A00000000C000080030000800300008001006C
:1051B000008001080080011CFCFFFF3F008001000F
:1051C00000800100008001000080010000800100DB
:1051D00000800100008001000080010000800100CB
:1051E00000800100008001000080010000FC01003F
:1051F00000E000000040000000000000000000008F
:105200000000000001020304060708092C520008F0
:105210000000002010000000461800083C52000862
:1052200010000020A0040000561800080100000033
:0C52300010000000000000000024F4004A
:04000005080000ED02
:00000001FF
